{
  "contractName": "FurnitureToken",
  "abi": [
    {
      "inputs": [],
      "stateMutability": "nonpayable",
      "type": "constructor"
    },
    {
      "inputs": [
        {
          "internalType": "address",
          "name": "",
          "type": "address"
        }
      ],
      "name": "balanceOf",
      "outputs": [
        {
          "internalType": "uint256",
          "name": "",
          "type": "uint256"
        }
      ],
      "stateMutability": "view",
      "type": "function",
      "constant": true
    },
    {
      "inputs": [],
      "name": "name",
      "outputs": [
        {
          "internalType": "string",
          "name": "",
          "type": "string"
        }
      ],
      "stateMutability": "view",
      "type": "function",
      "constant": true
    },
    {
      "inputs": [],
      "name": "owner",
      "outputs": [
        {
          "internalType": "address",
          "name": "",
          "type": "address"
        }
      ],
      "stateMutability": "view",
      "type": "function",
      "constant": true
    },
    {
      "inputs": [],
      "name": "symbol",
      "outputs": [
        {
          "internalType": "string",
          "name": "",
          "type": "string"
        }
      ],
      "stateMutability": "view",
      "type": "function",
      "constant": true
    },
    {
      "inputs": [],
      "name": "totalSupply",
      "outputs": [
        {
          "internalType": "uint256",
          "name": "",
          "type": "uint256"
        }
      ],
      "stateMutability": "view",
      "type": "function",
      "constant": true
    },
    {
      "inputs": [
        {
          "internalType": "address",
          "name": "_to",
          "type": "address"
        },
        {
          "internalType": "uint256",
          "name": "_value",
          "type": "uint256"
        }
      ],
      "name": "_WithdrawToken",
      "outputs": [
        {
          "internalType": "bool",
          "name": "success",
          "type": "bool"
        }
      ],
      "stateMutability": "nonpayable",
      "type": "function"
    },
    {
      "inputs": [
        {
          "internalType": "address",
          "name": "_to",
          "type": "address"
        },
        {
          "internalType": "uint256",
          "name": "_value",
          "type": "uint256"
        }
      ],
      "name": "_DepositToken",
      "outputs": [
        {
          "internalType": "bool",
          "name": "success",
          "type": "bool"
        }
      ],
      "stateMutability": "nonpayable",
      "type": "function"
    }
  ],
  "bytecode": "0x60806040526040518060400160405280600f81526020017f4675726e697475726520546f6b656e00000000000000000000000000000000008152506001908051906020019061004f929190610142565b506040518060400160405280600981526020017f4675726e697475726500000000000000000000000000000000000000000000008152506002908051906020019061009b929190610142565b5069d3c21bcecceda10000006003553480156100b657600080fd5b50600354600460003373ffffffffffffffffffffffffffffffffffffffff1673ffffffffffffffffffffffffffffffffffffffff16815260200190815260200160002081905550336000806101000a81548173ffffffffffffffffffffffffffffffffffffffff021916908373ffffffffffffffffffffffffffffffffffffffff160217905550610246565b82805461014e90610214565b90600052602060002090601f01602090048101928261017057600085556101b7565b82601f1061018957805160ff19168380011785556101b7565b828001600101855582156101b7579182015b828111156101b657825182559160200191906001019061019b565b5b5090506101c491906101c8565b5090565b5b808211156101e15760008160009055506001016101c9565b5090565b7f4e487b7100000000000000000000000000000000000000000000000000000000600052602260045260246000fd5b6000600282049050600182168061022c57607f821691505b602082108114156102405761023f6101e5565b5b50919050565b61097f806102556000396000f3fe608060405234801561001057600080fd5b506004361061007d5760003560e01c806370a082311161005b57806370a08231146100ee5780638da5cb5b1461011e57806395d89b411461013c578063fb535aa91461015a5761007d565b8063013bf7c11461008257806306fdde03146100b257806318160ddd146100d0575b600080fd5b61009c6004803603810190610097919061067d565b61018a565b6040516100a991906106d8565b60405180910390f35b6100ba610308565b6040516100c7919061078c565b60405180910390f35b6100d8610396565b6040516100e591906107bd565b60405180910390f35b610108600480360381019061010391906107d8565b61039c565b60405161011591906107bd565b60405180910390f35b6101266103b4565b6040516101339190610814565b60405180910390f35b6101446103d8565b604051610151919061078c565b60405180910390f35b610174600480360381019061016f919061067d565b610466565b60405161018191906106d8565b60405180910390f35b600081600460008060009054906101000a900473ffffffffffffffffffffffffffffffffffffffff1673ffffffffffffffffffffffffffffffffffffffff1673ffffffffffffffffffffffffffffffffffffffff1681526020019081526020016000205410156101f957600080fd5b81600460008060009054906101000a900473ffffffffffffffffffffffffffffffffffffffff1673ffffffffffffffffffffffffffffffffffffffff1673ffffffffffffffffffffffffffffffffffffffff1681526020019081526020016000206000828254610269919061085e565b9250508190555081600460008573ffffffffffffffffffffffffffffffffffffffff1673ffffffffffffffffffffffffffffffffffffffff168152602001908152602001600020546102bb9190610892565b600460008573ffffffffffffffffffffffffffffffffffffffff1673ffffffffffffffffffffffffffffffffffffffff168152602001908152602001600020819055506001905092915050565b6001805461031590610917565b80601f016020809104026020016040519081016040528092919081815260200182805461034190610917565b801561038e5780601f106103635761010080835404028352916020019161038e565b820191906000526020600020905b81548152906001019060200180831161037157829003601f168201915b505050505081565b60035481565b60046020528060005260406000206000915090505481565b60008054906101000a900473ffffffffffffffffffffffffffffffffffffffff1681565b600280546103e590610917565b80601f016020809104026020016040519081016040528092919081815260200182805461041190610917565b801561045e5780601f106104335761010080835404028352916020019161045e565b820191906000526020600020905b81548152906001019060200180831161044157829003601f168201915b505050505081565b600081600460008573ffffffffffffffffffffffffffffffffffffffff1673ffffffffffffffffffffffffffffffffffffffff1681526020019081526020016000205410156104b457600080fd5b81600460008573ffffffffffffffffffffffffffffffffffffffff1673ffffffffffffffffffffffffffffffffffffffff1681526020019081526020016000206000828254610503919061085e565b9250508190555081600460008060009054906101000a900473ffffffffffffffffffffffffffffffffffffffff1673ffffffffffffffffffffffffffffffffffffffff1673ffffffffffffffffffffffffffffffffffffffff168152602001908152602001600020546105769190610892565b600460008060009054906101000a900473ffffffffffffffffffffffffffffffffffffffff1673ffffffffffffffffffffffffffffffffffffffff1673ffffffffffffffffffffffffffffffffffffffff168152602001908152602001600020819055506001905092915050565b600080fd5b600073ffffffffffffffffffffffffffffffffffffffff82169050919050565b6000610614826105e9565b9050919050565b61062481610609565b811461062f57600080fd5b50565b6000813590506106418161061b565b92915050565b6000819050919050565b61065a81610647565b811461066557600080fd5b50565b60008135905061067781610651565b92915050565b60008060408385031215610694576106936105e4565b5b60006106a285828601610632565b92505060206106b385828601610668565b9150509250929050565b60008115159050919050565b6106d2816106bd565b82525050565b60006020820190506106ed60008301846106c9565b92915050565b600081519050919050565b600082825260208201905092915050565b60005b8381101561072d578082015181840152602081019050610712565b8381111561073c576000848401525b50505050565b6000601f19601f8301169050919050565b600061075e826106f3565b61076881856106fe565b935061077881856020860161070f565b61078181610742565b840191505092915050565b600060208201905081810360008301526107a68184610753565b905092915050565b6107b781610647565b82525050565b60006020820190506107d260008301846107ae565b92915050565b6000602082840312156107ee576107ed6105e4565b5b60006107fc84828501610632565b91505092915050565b61080e81610609565b82525050565b60006020820190506108296000830184610805565b92915050565b7f4e487b7100000000000000000000000000000000000000000000000000000000600052601160045260246000fd5b600061086982610647565b915061087483610647565b9250828210156108875761088661082f565b5b828203905092915050565b600061089d82610647565b91506108a883610647565b9250827fffffffffffffffffffffffffffffffffffffffffffffffffffffffffffffffff038211156108dd576108dc61082f565b5b828201905092915050565b7f4e487b7100000000000000000000000000000000000000000000000000000000600052602260045260246000fd5b6000600282049050600182168061092f57607f821691505b60208210811415610943576109426108e8565b5b5091905056fea2646970667358221220696dbfc18c141e627d370de3fc2033967e1cd8319cd599d27380f19e252dbc6164736f6c634300080a0033",
  "immutableReferences": {},
  "source": "// SPDX-License-Identifier: MIT\npragma solidity >=0.4.22 <0.9.0;\n\ncontract FurnitureToken {\n    address public owner;\n    string public name = \"Furniture Token\";\n    string public symbol = \"Furniture\";\n    uint256 public totalSupply = 1000000000000000000000000; // 1 million tokens\n    mapping(address => uint256) public balanceOf;\n\n    constructor() {\n        balanceOf[msg.sender] = totalSupply;\n        owner = msg.sender;\n    }\n\n    function _WithdrawToken(address _to, uint256 _value)\n        public\n        returns (bool success)\n    {\n        require(balanceOf[owner] >= _value);\n        balanceOf[owner] -= _value;\n        balanceOf[_to] = balanceOf[_to] + _value;\n        return true;\n    }\n\n    function _DepositToken(address _to, uint256 _value)\n        public\n        returns (bool success)\n    {\n        require(balanceOf[_to] >= _value);\n        balanceOf[_to] -= _value;\n        balanceOf[owner] = balanceOf[owner] + _value;\n        return true;\n    }\n}\n",
  "sourcePath": "/Users/jujunees/project//Farm-Souvirniors-Web-Application/contracts/FurnitureToken.sol",
  "compiler": {
    "name": "solc",
    "version": "0.8.10+commit.fc410830.Emscripten.clang"
  },
  "schemaVersion": "3.4.5",
  "updatedAt": "2022-03-01T11:09:55.282Z",
  "networkType": "ethereum",
  "devdoc": {
    "kind": "dev",
    "methods": {},
    "version": 1
  },
  "userdoc": {
    "kind": "user",
    "methods": {},
    "version": 1
  }
}