{
  "contractName": "NFT",
  "abi": [
    {
      "anonymous": false,
      "inputs": [
        {
          "indexed": true,
          "internalType": "address",
          "name": "from",
          "type": "address"
        },
        {
          "indexed": true,
          "internalType": "address",
          "name": "to",
          "type": "address"
        },
        {
          "indexed": false,
          "internalType": "uint256",
          "name": "indexNFT",
          "type": "uint256"
        },
        {
          "indexed": false,
          "internalType": "string",
          "name": "price",
          "type": "string"
        }
      ],
      "name": "BuyNFT",
      "type": "event"
    },
    {
      "anonymous": false,
      "inputs": [
        {
          "indexed": true,
          "internalType": "address",
          "name": "from",
          "type": "address"
        },
        {
          "indexed": false,
          "internalType": "uint256",
          "name": "indexNFT",
          "type": "uint256"
        }
      ],
      "name": "CancleNFT",
      "type": "event"
    },
    {
      "anonymous": false,
      "inputs": [
        {
          "indexed": true,
          "internalType": "address",
          "name": "to",
          "type": "address"
        },
        {
          "indexed": false,
          "internalType": "uint256",
          "name": "nft_id",
          "type": "uint256"
        },
        {
          "indexed": false,
          "internalType": "uint256",
          "name": "indexNFT",
          "type": "uint256"
        },
        {
          "indexed": false,
          "internalType": "string",
          "name": "name",
          "type": "string"
        },
        {
          "indexed": false,
          "internalType": "string",
          "name": "picture",
          "type": "string"
        },
        {
          "indexed": false,
          "internalType": "uint16",
          "name": "reward",
          "type": "uint16"
        },
        {
          "indexed": false,
          "internalType": "string",
          "name": "type_nft",
          "type": "string"
        },
        {
          "indexed": false,
          "internalType": "string",
          "name": "price",
          "type": "string"
        },
        {
          "indexed": false,
          "internalType": "uint16",
          "name": "cost_wood",
          "type": "uint16"
        },
        {
          "indexed": false,
          "internalType": "uint16",
          "name": "cost_fruit",
          "type": "uint16"
        },
        {
          "indexed": false,
          "internalType": "uint16",
          "name": "energy_consumed",
          "type": "uint16"
        },
        {
          "indexed": false,
          "internalType": "uint16",
          "name": "amount_food",
          "type": "uint16"
        },
        {
          "indexed": false,
          "internalType": "address",
          "name": "seller",
          "type": "address"
        }
      ],
      "name": "CraftNFT",
      "type": "event"
    },
    {
      "anonymous": false,
      "inputs": [
        {
          "indexed": true,
          "internalType": "address",
          "name": "from",
          "type": "address"
        },
        {
          "indexed": false,
          "internalType": "string",
          "name": "price",
          "type": "string"
        },
        {
          "indexed": false,
          "internalType": "uint256",
          "name": "indexNFT",
          "type": "uint256"
        }
      ],
      "name": "SellNFT",
      "type": "event"
    },
    {
      "inputs": [
        {
          "internalType": "uint256",
          "name": "",
          "type": "uint256"
        }
      ],
      "name": "nft",
      "outputs": [
        {
          "internalType": "uint256",
          "name": "nft_id",
          "type": "uint256"
        },
        {
          "internalType": "string",
          "name": "name",
          "type": "string"
        },
        {
          "internalType": "string",
          "name": "picture",
          "type": "string"
        },
        {
          "internalType": "uint16",
          "name": "reward",
          "type": "uint16"
        },
        {
          "internalType": "string",
          "name": "type_nft",
          "type": "string"
        },
        {
          "internalType": "string",
          "name": "price",
          "type": "string"
        },
        {
          "internalType": "uint16",
          "name": "cost_wood",
          "type": "uint16"
        },
        {
          "internalType": "uint16",
          "name": "cost_fruit",
          "type": "uint16"
        },
        {
          "internalType": "uint16",
          "name": "energy_consumed",
          "type": "uint16"
        },
        {
          "internalType": "uint16",
          "name": "amount_food",
          "type": "uint16"
        },
        {
          "internalType": "address",
          "name": "seller",
          "type": "address"
        }
      ],
      "stateMutability": "view",
      "type": "function",
      "constant": true
    },
    {
      "inputs": [
        {
          "internalType": "uint256",
          "name": "_nft_id",
          "type": "uint256"
        },
        {
          "internalType": "string",
          "name": "_name",
          "type": "string"
        },
        {
          "internalType": "string",
          "name": "_picture",
          "type": "string"
        },
        {
          "internalType": "uint16",
          "name": "_reward",
          "type": "uint16"
        },
        {
          "internalType": "string",
          "name": "_type_nft",
          "type": "string"
        },
        {
          "internalType": "uint16",
          "name": "_cost_wood",
          "type": "uint16"
        },
        {
          "internalType": "uint16",
          "name": "_cost_fruit",
          "type": "uint16"
        },
        {
          "internalType": "uint16",
          "name": "_energy_consumed",
          "type": "uint16"
        },
        {
          "internalType": "uint16",
          "name": "_amount_food",
          "type": "uint16"
        }
      ],
      "name": "_craftNFT",
      "outputs": [],
      "stateMutability": "nonpayable",
      "type": "function"
    },
    {
      "inputs": [
        {
          "internalType": "address",
          "name": "_owner",
          "type": "address"
        }
      ],
      "name": "getNFTByOwner",
      "outputs": [
        {
          "internalType": "uint256[]",
          "name": "",
          "type": "uint256[]"
        }
      ],
      "stateMutability": "view",
      "type": "function",
      "constant": true
    },
    {
      "inputs": [
        {
          "internalType": "uint256",
          "name": "_indexNFT",
          "type": "uint256"
        },
        {
          "internalType": "string",
          "name": "_price",
          "type": "string"
        }
      ],
      "name": "sellNFT",
      "outputs": [],
      "stateMutability": "nonpayable",
      "type": "function"
    },
    {
      "inputs": [
        {
          "internalType": "uint256",
          "name": "_indexNFT",
          "type": "uint256"
        },
        {
          "internalType": "string",
          "name": "_price",
          "type": "string"
        },
        {
          "internalType": "address",
          "name": "seller",
          "type": "address"
        }
      ],
      "name": "buyNFT",
      "outputs": [],
      "stateMutability": "payable",
      "type": "function",
      "payable": true
    },
    {
      "inputs": [
        {
          "internalType": "uint256",
          "name": "_indexNFT",
          "type": "uint256"
        }
      ],
      "name": "cancleNFT",
      "outputs": [],
      "stateMutability": "nonpayable",
      "type": "function"
    }
  ],
  "bytecode": "0x608060405234801561001057600080fd5b50611b97806100206000396000f3fe6080604052600436106100555760003560e01c8063349d595f1461005a57806335cc06e31461008357806362cb9fa41461009f5780639d0214cb146100c8578063cb0c14c41461010f578063fda547ef1461014c575b600080fd5b34801561006657600080fd5b50610081600480360381019061007c91906111b7565b610175565b005b61009d60048036038101906100989190611388565b6103ec565b005b3480156100ab57600080fd5b506100c660048036038101906100c191906113f7565b610690565b005b3480156100d457600080fd5b506100ef60048036038101906100ea91906111b7565b6108d4565b6040516101069b9a99989796959493929190611516565b60405180910390f35b34801561011b57600080fd5b50610136600480360381019061013191906115dd565b610bc4565b60405161014391906116c8565b60405180910390f35b34801561015857600080fd5b50610173600480360381019061016e9190611716565b610d16565b005b60006002828154811061018b5761018a611834565b5b906000526020600020906007020190506040518060400160405280600181526020017f30000000000000000000000000000000000000000000000000000000000000008152508160050190805190602001906101e89291906110ca565b5060008160060160086101000a81548173ffffffffffffffffffffffffffffffffffffffff021916908373ffffffffffffffffffffffffffffffffffffffff16021790555060018060003373ffffffffffffffffffffffffffffffffffffffff1673ffffffffffffffffffffffffffffffffffffffff168152602001908152602001600020546102789190611892565b600160003373ffffffffffffffffffffffffffffffffffffffff1673ffffffffffffffffffffffffffffffffffffffff1681526020019081526020016000208190555060018060003073ffffffffffffffffffffffffffffffffffffffff1673ffffffffffffffffffffffffffffffffffffffff1681526020019081526020016000205461030691906118e8565b600160003073ffffffffffffffffffffffffffffffffffffffff1673ffffffffffffffffffffffffffffffffffffffff168152602001908152602001600020819055503360008084815260200190815260200160002060006101000a81548173ffffffffffffffffffffffffffffffffffffffff021916908373ffffffffffffffffffffffffffffffffffffffff1602179055503373ffffffffffffffffffffffffffffffffffffffff167fe37d189301f8932439394ec9e609cd3ab69ecbd7d0aa80300c172745f644bb09836040516103e0919061191c565b60405180910390a25050565b8073ffffffffffffffffffffffffffffffffffffffff166108fc349081150290604051600060405180830381858888f19350505050158015610432573d6000803e3d6000fd5b5060006002848154811061044957610448611834565b5b90600052602060002090600702019050828160050190805190602001906104719291906110ca565b5060008160060160086101000a81548173ffffffffffffffffffffffffffffffffffffffff021916908373ffffffffffffffffffffffffffffffffffffffff16021790555060018060003073ffffffffffffffffffffffffffffffffffffffff1673ffffffffffffffffffffffffffffffffffffffff1681526020019081526020016000205461050191906118e8565b600160003073ffffffffffffffffffffffffffffffffffffffff1673ffffffffffffffffffffffffffffffffffffffff1681526020019081526020016000208190555060018060003373ffffffffffffffffffffffffffffffffffffffff1673ffffffffffffffffffffffffffffffffffffffff1681526020019081526020016000205461058f9190611892565b600160003373ffffffffffffffffffffffffffffffffffffffff1673ffffffffffffffffffffffffffffffffffffffff168152602001908152602001600020819055503360008086815260200190815260200160002060006101000a81548173ffffffffffffffffffffffffffffffffffffffff021916908373ffffffffffffffffffffffffffffffffffffffff1602179055503373ffffffffffffffffffffffffffffffffffffffff168273ffffffffffffffffffffffffffffffffffffffff167f926ba2594b1ec5b8354a72440fd70b44086344abad079f0acb838a52caaa626e8686604051610682929190611937565b60405180910390a350505050565b6000600283815481106106a6576106a5611834565b5b90600052602060002090600702019050818160050190805190602001906106ce9291906110ca565b50338160060160086101000a81548173ffffffffffffffffffffffffffffffffffffffff021916908373ffffffffffffffffffffffffffffffffffffffff16021790555060018060003373ffffffffffffffffffffffffffffffffffffffff1673ffffffffffffffffffffffffffffffffffffffff1681526020019081526020016000205461075d91906118e8565b600160003373ffffffffffffffffffffffffffffffffffffffff1673ffffffffffffffffffffffffffffffffffffffff1681526020019081526020016000208190555060018060003073ffffffffffffffffffffffffffffffffffffffff1673ffffffffffffffffffffffffffffffffffffffff168152602001908152602001600020546107eb9190611892565b600160003073ffffffffffffffffffffffffffffffffffffffff1673ffffffffffffffffffffffffffffffffffffffff168152602001908152602001600020819055503060008085815260200190815260200160002060006101000a81548173ffffffffffffffffffffffffffffffffffffffff021916908373ffffffffffffffffffffffffffffffffffffffff1602179055503373ffffffffffffffffffffffffffffffffffffffff167f6d079126a716903e65e9e1d51154819fe5514fb3e57e084149b0fdb866a7a53583856040516108c7929190611967565b60405180910390a2505050565b600281815481106108e457600080fd5b906000526020600020906007020160009150905080600001549080600101805461090d906119c6565b80601f0160208091040260200160405190810160405280929190818152602001828054610939906119c6565b80156109865780601f1061095b57610100808354040283529160200191610986565b820191906000526020600020905b81548152906001019060200180831161096957829003601f168201915b50505050509080600201805461099b906119c6565b80601f01602080910402602001604051908101604052809291908181526020018280546109c7906119c6565b8015610a145780601f106109e957610100808354040283529160200191610a14565b820191906000526020600020905b8154815290600101906020018083116109f757829003601f168201915b5050505050908060030160009054906101000a900461ffff1690806004018054610a3d906119c6565b80601f0160208091040260200160405190810160405280929190818152602001828054610a69906119c6565b8015610ab65780601f10610a8b57610100808354040283529160200191610ab6565b820191906000526020600020905b815481529060010190602001808311610a9957829003601f168201915b505050505090806005018054610acb906119c6565b80601f0160208091040260200160405190810160405280929190818152602001828054610af7906119c6565b8015610b445780601f10610b1957610100808354040283529160200191610b44565b820191906000526020600020905b815481529060010190602001808311610b2757829003601f168201915b5050505050908060060160009054906101000a900461ffff16908060060160029054906101000a900461ffff16908060060160049054906101000a900461ffff16908060060160069054906101000a900461ffff16908060060160089054906101000a900473ffffffffffffffffffffffffffffffffffffffff1690508b565b60606000600160008473ffffffffffffffffffffffffffffffffffffffff1673ffffffffffffffffffffffffffffffffffffffff1681526020019081526020016000205467ffffffffffffffff811115610c2157610c206111ff565b5b604051908082528060200260200182016040528015610c4f5781602001602082028036833780820191505090505b5090506000805b600280549050811015610d0b578473ffffffffffffffffffffffffffffffffffffffff1660008083815260200190815260200160002060009054906101000a900473ffffffffffffffffffffffffffffffffffffffff1673ffffffffffffffffffffffffffffffffffffffff161415610cf85780838381518110610cdd57610cdc611834565b5b6020026020010181815250508180610cf4906119f8565b9250505b8080610d03906119f8565b915050610c56565b508192505050919050565b60026040518061016001604052808b81526020018a81526020018981526020018861ffff1681526020018781526020016040518060400160405280600181526020017f300000000000000000000000000000000000000000000000000000000000000081525081526020018661ffff1681526020018561ffff1681526020018461ffff1681526020018361ffff168152602001600073ffffffffffffffffffffffffffffffffffffffff168152509080600181540180825580915050600190039060005260206000209060070201600090919091909150600082015181600001556020820151816001019080519060200190610e139291906110ca565b506040820151816002019080519060200190610e309291906110ca565b5060608201518160030160006101000a81548161ffff021916908361ffff1602179055506080820151816004019080519060200190610e709291906110ca565b5060a0820151816005019080519060200190610e8d9291906110ca565b5060c08201518160060160006101000a81548161ffff021916908361ffff16021790555060e08201518160060160026101000a81548161ffff021916908361ffff1602179055506101008201518160060160046101000a81548161ffff021916908361ffff1602179055506101208201518160060160066101000a81548161ffff021916908361ffff1602179055506101408201518160060160086101000a81548173ffffffffffffffffffffffffffffffffffffffff021916908373ffffffffffffffffffffffffffffffffffffffff160217905550505060006001600280549050610f7a91906118e8565b90503360008083815260200190815260200160002060006101000a81548173ffffffffffffffffffffffffffffffffffffffff021916908373ffffffffffffffffffffffffffffffffffffffff16021790555060018060003373ffffffffffffffffffffffffffffffffffffffff1673ffffffffffffffffffffffffffffffffffffffff168152602001908152602001600020546110189190611892565b600160003373ffffffffffffffffffffffffffffffffffffffff1673ffffffffffffffffffffffffffffffffffffffff168152602001908152602001600020819055503373ffffffffffffffffffffffffffffffffffffffff167f1c96bce994b60b1fe458ea8014a92301414266b04928342f4db66060dc8e4e578b838c8c8c8c8c8c8c8c60006040516110b69b9a99989796959493929190611a8d565b60405180910390a250505050505050505050565b8280546110d6906119c6565b90600052602060002090601f0160209004810192826110f8576000855561113f565b82601f1061111157805160ff191683800117855561113f565b8280016001018555821561113f579182015b8281111561113e578251825591602001919060010190611123565b5b50905061114c9190611150565b5090565b5b80821115611169576000816000905550600101611151565b5090565b6000604051905090565b600080fd5b600080fd5b6000819050919050565b61119481611181565b811461119f57600080fd5b50565b6000813590506111b18161118b565b92915050565b6000602082840312156111cd576111cc611177565b5b60006111db848285016111a2565b91505092915050565b600080fd5b600080fd5b6000601f19601f8301169050919050565b7f4e487b7100000000000000000000000000000000000000000000000000000000600052604160045260246000fd5b611237826111ee565b810181811067ffffffffffffffff82111715611256576112556111ff565b5b80604052505050565b600061126961116d565b9050611275828261122e565b919050565b600067ffffffffffffffff821115611295576112946111ff565b5b61129e826111ee565b9050602081019050919050565b82818337600083830152505050565b60006112cd6112c88461127a565b61125f565b9050828152602081018484840111156112e9576112e86111e9565b5b6112f48482856112ab565b509392505050565b600082601f830112611311576113106111e4565b5b81356113218482602086016112ba565b91505092915050565b600073ffffffffffffffffffffffffffffffffffffffff82169050919050565b60006113558261132a565b9050919050565b6113658161134a565b811461137057600080fd5b50565b6000813590506113828161135c565b92915050565b6000806000606084860312156113a1576113a0611177565b5b60006113af868287016111a2565b935050602084013567ffffffffffffffff8111156113d0576113cf61117c565b5b6113dc868287016112fc565b92505060406113ed86828701611373565b9150509250925092565b6000806040838503121561140e5761140d611177565b5b600061141c858286016111a2565b925050602083013567ffffffffffffffff81111561143d5761143c61117c565b5b611449858286016112fc565b9150509250929050565b61145c81611181565b82525050565b600081519050919050565b600082825260208201905092915050565b60005b8381101561149c578082015181840152602081019050611481565b838111156114ab576000848401525b50505050565b60006114bc82611462565b6114c6818561146d565b93506114d681856020860161147e565b6114df816111ee565b840191505092915050565b600061ffff82169050919050565b611501816114ea565b82525050565b6115108161134a565b82525050565b60006101608201905061152c600083018e611453565b818103602083015261153e818d6114b1565b90508181036040830152611552818c6114b1565b9050611561606083018b6114f8565b8181036080830152611573818a6114b1565b905081810360a083015261158781896114b1565b905061159660c08301886114f8565b6115a360e08301876114f8565b6115b16101008301866114f8565b6115bf6101208301856114f8565b6115cd610140830184611507565b9c9b505050505050505050505050565b6000602082840312156115f3576115f2611177565b5b600061160184828501611373565b91505092915050565b600081519050919050565b600082825260208201905092915050565b6000819050602082019050919050565b61163f81611181565b82525050565b60006116518383611636565b60208301905092915050565b6000602082019050919050565b60006116758261160a565b61167f8185611615565b935061168a83611626565b8060005b838110156116bb5781516116a28882611645565b97506116ad8361165d565b92505060018101905061168e565b5085935050505092915050565b600060208201905081810360008301526116e2818461166a565b905092915050565b6116f3816114ea565b81146116fe57600080fd5b50565b600081359050611710816116ea565b92915050565b60008060008060008060008060006101208a8c03121561173957611738611177565b5b60006117478c828d016111a2565b99505060208a013567ffffffffffffffff8111156117685761176761117c565b5b6117748c828d016112fc565b98505060408a013567ffffffffffffffff8111156117955761179461117c565b5b6117a18c828d016112fc565b97505060606117b28c828d01611701565b96505060808a013567ffffffffffffffff8111156117d3576117d261117c565b5b6117df8c828d016112fc565b95505060a06117f08c828d01611701565b94505060c06118018c828d01611701565b93505060e06118128c828d01611701565b9250506101006118248c828d01611701565b9150509295985092959850929598565b7f4e487b7100000000000000000000000000000000000000000000000000000000600052603260045260246000fd5b7f4e487b7100000000000000000000000000000000000000000000000000000000600052601160045260246000fd5b600061189d82611181565b91506118a883611181565b9250827fffffffffffffffffffffffffffffffffffffffffffffffffffffffffffffffff038211156118dd576118dc611863565b5b828201905092915050565b60006118f382611181565b91506118fe83611181565b92508282101561191157611910611863565b5b828203905092915050565b60006020820190506119316000830184611453565b92915050565b600060408201905061194c6000830185611453565b818103602083015261195e81846114b1565b90509392505050565b6000604082019050818103600083015261198181856114b1565b90506119906020830184611453565b9392505050565b7f4e487b7100000000000000000000000000000000000000000000000000000000600052602260045260246000fd5b600060028204905060018216806119de57607f821691505b602082108114156119f2576119f1611997565b5b50919050565b6000611a0382611181565b91507fffffffffffffffffffffffffffffffffffffffffffffffffffffffffffffffff821415611a3657611a35611863565b5b600182019050919050565b7f3000000000000000000000000000000000000000000000000000000000000000600082015250565b6000611a7760018361146d565b9150611a8282611a41565b602082019050919050565b600061018082019050611aa3600083018e611453565b611ab0602083018d611453565b8181036040830152611ac2818c6114b1565b90508181036060830152611ad6818b6114b1565b9050611ae5608083018a6114f8565b81810360a0830152611af781896114b1565b905081810360c0830152611b0a81611a6a565b9050611b1960e08301886114f8565b611b276101008301876114f8565b611b356101208301866114f8565b611b436101408301856114f8565b611b51610160830184611507565b9c9b50505050505050505050505056fea2646970667358221220266d87f1bc62b123188277740657aeec5b3e249efb59a3dfbc1da476f11672d764736f6c634300080a0033",
  "immutableReferences": {},
  "source": "// SPDX-License-Identifier: MIT\npragma solidity >=0.4.22 <0.9.0;\n\ncontract NFT {\n    struct info_nft {\n        uint256 nft_id;\n        string name;\n        string picture;\n        uint16 reward;\n        string type_nft;\n        string price;\n        uint16 cost_wood;\n        uint16 cost_fruit;\n        uint16 energy_consumed;\n        uint16 amount_food;\n        address seller;\n    }\n\n    event CraftNFT(\n        address indexed to,\n        uint256 nft_id,\n        uint256 indexNFT,\n        string name,\n        string picture,\n        uint16 reward,\n        string type_nft,\n        string price,\n        uint16 cost_wood,\n        uint16 cost_fruit,\n        uint16 energy_consumed,\n        uint16 amount_food,\n        address seller\n    );\n    event BuyNFT(\n        address indexed from,\n        address indexed to,\n        uint256 indexNFT,\n        string price\n    );\n    event SellNFT(address indexed from, string price, uint256 indexNFT);\n    event CancleNFT(address indexed from, uint256 indexNFT);\n    mapping(uint256 => address) internal ownerNft;\n    mapping(address => uint256) internal ownerNFTCount;\n    info_nft[] public nft;\n\n    function _craftNFT(\n        uint256 _nft_id,\n        string memory _name,\n        string memory _picture,\n        uint16 _reward,\n        string memory _type_nft,\n        uint16 _cost_wood,\n        uint16 _cost_fruit,\n        uint16 _energy_consumed,\n        uint16 _amount_food\n    ) public {\n        nft.push(\n            info_nft(\n                _nft_id,\n                _name,\n                _picture,\n                _reward,\n                _type_nft,\n                \"0\",\n                _cost_wood,\n                _cost_fruit,\n                _energy_consumed,\n                _amount_food,\n                address(0)\n            )\n        );\n        uint256 id = nft.length - 1;\n        ownerNft[id] = msg.sender;\n        ownerNFTCount[msg.sender] = ownerNFTCount[msg.sender] + 1;\n        emit CraftNFT(\n            msg.sender,\n            _nft_id,\n            id,\n            _name,\n            _picture,\n            _reward,\n            _type_nft,\n            \"0\",\n            _cost_wood,\n            _cost_fruit,\n            _energy_consumed,\n            _amount_food,\n            address(0)\n        );\n    }\n\n    function getNFTByOwner(address _owner)\n        public\n        view\n        returns (uint256[] memory)\n    {\n        uint256[] memory result = new uint256[](ownerNFTCount[_owner]);\n        uint256 counter = 0;\n        for (uint256 i = 0; i < nft.length; i++) {\n            if (ownerNft[i] == _owner) {\n                result[counter] = i;\n                counter++;\n            }\n        }\n        return result;\n    }\n\n    function sellNFT(uint256 _indexNFT, string memory _price) public {\n        info_nft storage myNFT = nft[_indexNFT];\n        myNFT.price = _price;\n        myNFT.seller = msg.sender;\n        ownerNFTCount[msg.sender] = ownerNFTCount[msg.sender] - 1;\n        ownerNFTCount[address(this)] = ownerNFTCount[address(this)] + 1;\n        ownerNft[_indexNFT] = address(this);\n        emit SellNFT(msg.sender, _price, _indexNFT);\n    }\n\n    function buyNFT(\n        uint256 _indexNFT,\n        string memory _price,\n        address seller\n    ) public payable {\n        payable(seller).transfer(msg.value);\n        info_nft storage myNFT = nft[_indexNFT];\n        myNFT.price = _price;\n        myNFT.seller = address(0);\n        ownerNFTCount[address(this)] = ownerNFTCount[address(this)] - 1;\n        ownerNFTCount[msg.sender] = ownerNFTCount[msg.sender] + 1;\n        ownerNft[_indexNFT] = msg.sender;\n        emit BuyNFT(seller, msg.sender, _indexNFT, _price);\n    }\n\n    function cancleNFT(uint256 _indexNFT) public {\n        info_nft storage myNFT = nft[_indexNFT];\n        myNFT.price = \"0\";\n        myNFT.seller = address(0);\n        ownerNFTCount[msg.sender] = ownerNFTCount[msg.sender] + 1;\n        ownerNFTCount[address(this)] = ownerNFTCount[address(this)] - 1;\n        ownerNft[_indexNFT] = msg.sender;\n        emit CancleNFT(msg.sender, _indexNFT);\n    }\n}\n",
  "sourcePath": "/Users/komsark/Final-Project/farm-souvirniors-web/contracts/NFT.sol",
  "compiler": {
    "name": "solc",
    "version": "0.8.10+commit.fc410830.Emscripten.clang"
  },
  "schemaVersion": "3.4.4",
  "updatedAt": "2022-03-02T17:11:53.445Z",
  "networkType": "ethereum",
  "devdoc": {
    "kind": "dev",
    "methods": {},
    "version": 1
  },
  "userdoc": {
    "kind": "user",
    "methods": {},
    "version": 1
  }
}