{
  "contractName": "NFT",
  "abi": [
    {
      "anonymous": false,
      "inputs": [
        {
          "indexed": true,
          "internalType": "address",
          "name": "from",
          "type": "address"
        },
        {
          "indexed": true,
          "internalType": "address",
          "name": "to",
          "type": "address"
        },
        {
          "indexed": false,
          "internalType": "uint256",
          "name": "indexNFT",
          "type": "uint256"
        },
        {
          "indexed": false,
          "internalType": "string",
          "name": "price",
          "type": "string"
        }
      ],
      "name": "BuyNFT",
      "type": "event"
    },
    {
      "anonymous": false,
      "inputs": [
        {
          "indexed": true,
          "internalType": "address",
          "name": "from",
          "type": "address"
        },
        {
          "indexed": false,
          "internalType": "uint256",
          "name": "indexNFT",
          "type": "uint256"
        }
      ],
      "name": "CancleNFT",
      "type": "event"
    },
    {
      "anonymous": false,
      "inputs": [
        {
          "indexed": true,
          "internalType": "address",
          "name": "to",
          "type": "address"
        },
        {
          "indexed": false,
          "internalType": "uint256",
          "name": "nft_id",
          "type": "uint256"
        },
        {
          "indexed": false,
          "internalType": "uint256",
          "name": "indexNFT",
          "type": "uint256"
        },
        {
          "indexed": false,
          "internalType": "string",
          "name": "name",
          "type": "string"
        },
        {
          "indexed": false,
          "internalType": "string",
          "name": "picture",
          "type": "string"
        },
        {
          "indexed": false,
          "internalType": "uint16",
          "name": "reward",
          "type": "uint16"
        },
        {
          "indexed": false,
          "internalType": "string",
          "name": "type_nft",
          "type": "string"
        },
        {
          "indexed": false,
          "internalType": "string",
          "name": "price",
          "type": "string"
        },
        {
          "indexed": false,
          "internalType": "uint16",
          "name": "cost_wood",
          "type": "uint16"
        },
        {
          "indexed": false,
          "internalType": "uint16",
          "name": "cost_fruit",
          "type": "uint16"
        },
        {
          "indexed": false,
          "internalType": "uint16",
          "name": "energy_consumed",
          "type": "uint16"
        },
        {
          "indexed": false,
          "internalType": "uint16",
          "name": "amount_food",
          "type": "uint16"
        },
        {
          "indexed": false,
          "internalType": "address",
          "name": "seller",
          "type": "address"
        }
      ],
      "name": "CraftNFT",
      "type": "event"
    },
    {
      "anonymous": false,
      "inputs": [
        {
          "indexed": true,
          "internalType": "address",
          "name": "from",
          "type": "address"
        },
        {
          "indexed": false,
          "internalType": "string",
          "name": "price",
          "type": "string"
        },
        {
          "indexed": false,
          "internalType": "uint256",
          "name": "indexNFT",
          "type": "uint256"
        }
      ],
      "name": "SellNFT",
      "type": "event"
    },
    {
      "inputs": [
        {
          "internalType": "uint256",
          "name": "",
          "type": "uint256"
        }
      ],
      "name": "nft",
      "outputs": [
        {
          "internalType": "uint256",
          "name": "nft_id",
          "type": "uint256"
        },
        {
          "internalType": "string",
          "name": "name",
          "type": "string"
        },
        {
          "internalType": "string",
          "name": "picture",
          "type": "string"
        },
        {
          "internalType": "uint16",
          "name": "reward",
          "type": "uint16"
        },
        {
          "internalType": "string",
          "name": "type_nft",
          "type": "string"
        },
        {
          "internalType": "string",
          "name": "price",
          "type": "string"
        },
        {
          "internalType": "uint16",
          "name": "cost_wood",
          "type": "uint16"
        },
        {
          "internalType": "uint16",
          "name": "cost_fruit",
          "type": "uint16"
        },
        {
          "internalType": "uint16",
          "name": "energy_consumed",
          "type": "uint16"
        },
        {
          "internalType": "uint16",
          "name": "amount_food",
          "type": "uint16"
        },
        {
          "internalType": "address",
          "name": "seller",
          "type": "address"
        }
      ],
      "stateMutability": "view",
      "type": "function",
      "constant": true
    },
    {
      "inputs": [
        {
          "internalType": "address",
          "name": "",
          "type": "address"
        }
      ],
      "name": "ownerNFTCount",
      "outputs": [
        {
          "internalType": "uint256",
          "name": "",
          "type": "uint256"
        }
      ],
      "stateMutability": "view",
      "type": "function",
      "constant": true
    },
    {
      "inputs": [
        {
          "internalType": "uint256",
          "name": "",
          "type": "uint256"
        }
      ],
      "name": "ownerNft",
      "outputs": [
        {
          "internalType": "address",
          "name": "",
          "type": "address"
        }
      ],
      "stateMutability": "view",
      "type": "function",
      "constant": true
    },
    {
      "inputs": [
        {
          "internalType": "uint256",
          "name": "_nft_id",
          "type": "uint256"
        },
        {
          "internalType": "string",
          "name": "_name",
          "type": "string"
        },
        {
          "internalType": "string",
          "name": "_picture",
          "type": "string"
        },
        {
          "internalType": "uint16",
          "name": "_reward",
          "type": "uint16"
        },
        {
          "internalType": "string",
          "name": "_type_nft",
          "type": "string"
        },
        {
          "internalType": "uint16",
          "name": "_cost_wood",
          "type": "uint16"
        },
        {
          "internalType": "uint16",
          "name": "_cost_fruit",
          "type": "uint16"
        },
        {
          "internalType": "uint16",
          "name": "_energy_consumed",
          "type": "uint16"
        },
        {
          "internalType": "uint16",
          "name": "_amount_food",
          "type": "uint16"
        }
      ],
      "name": "_craftNFT",
      "outputs": [],
      "stateMutability": "nonpayable",
      "type": "function"
    },
    {
      "inputs": [
        {
          "internalType": "address",
          "name": "_owner",
          "type": "address"
        }
      ],
      "name": "getNFTByOwner",
      "outputs": [
        {
          "internalType": "uint256[]",
          "name": "",
          "type": "uint256[]"
        }
      ],
      "stateMutability": "view",
      "type": "function",
      "constant": true
    },
    {
      "inputs": [
        {
          "internalType": "uint256",
          "name": "_indexNFT",
          "type": "uint256"
        },
        {
          "internalType": "string",
          "name": "_price",
          "type": "string"
        }
      ],
      "name": "sellNFT",
      "outputs": [],
      "stateMutability": "nonpayable",
      "type": "function"
    },
    {
      "inputs": [
        {
          "internalType": "uint256",
          "name": "_indexNFT",
          "type": "uint256"
        },
        {
          "internalType": "string",
          "name": "_price",
          "type": "string"
        },
        {
          "internalType": "address",
          "name": "seller",
          "type": "address"
        }
      ],
      "name": "buyNFT",
      "outputs": [],
      "stateMutability": "payable",
      "type": "function",
      "payable": true
    },
    {
      "inputs": [
        {
          "internalType": "uint256",
          "name": "_indexNFT",
          "type": "uint256"
        }
      ],
      "name": "cancleNFT",
      "outputs": [],
      "stateMutability": "nonpayable",
      "type": "function"
    }
  ],
  "bytecode": "0x608060405234801561001057600080fd5b50611c9d806100206000396000f3fe60806040526004361061007b5760003560e01c80639d0214cb1161004e5780639d0214cb1461012b578063cb0c14c414610172578063fb88df18146101af578063fda547ef146101ec5761007b565b806321381d3714610080578063349d595f146100bd57806335cc06e3146100e657806362cb9fa414610102575b600080fd5b34801561008c57600080fd5b506100a760048036038101906100a291906112a2565b610215565b6040516100b49190611310565b60405180910390f35b3480156100c957600080fd5b506100e460048036038101906100df91906112a2565b610248565b005b61010060048036038101906100fb919061149d565b6104bf565b005b34801561010e57600080fd5b506101296004803603810190610124919061150c565b610763565b005b34801561013757600080fd5b50610152600480360381019061014d91906112a2565b6109a7565b6040516101699b9a9998979695949392919061161c565b60405180910390f35b34801561017e57600080fd5b50610199600480360381019061019491906116e3565b610c97565b6040516101a691906117ce565b60405180910390f35b3480156101bb57600080fd5b506101d660048036038101906101d191906116e3565b610de9565b6040516101e391906117f0565b60405180910390f35b3480156101f857600080fd5b50610213600480360381019061020e9190611837565b610e01565b005b60006020528060005260406000206000915054906101000a900473ffffffffffffffffffffffffffffffffffffffff1681565b60006002828154811061025e5761025d611955565b5b906000526020600020906007020190506040518060400160405280600181526020017f30000000000000000000000000000000000000000000000000000000000000008152508160050190805190602001906102bb9291906111b5565b5060008160060160086101000a81548173ffffffffffffffffffffffffffffffffffffffff021916908373ffffffffffffffffffffffffffffffffffffffff16021790555060018060003373ffffffffffffffffffffffffffffffffffffffff1673ffffffffffffffffffffffffffffffffffffffff1681526020019081526020016000205461034b91906119b3565b600160003373ffffffffffffffffffffffffffffffffffffffff1673ffffffffffffffffffffffffffffffffffffffff1681526020019081526020016000208190555060018060003073ffffffffffffffffffffffffffffffffffffffff1673ffffffffffffffffffffffffffffffffffffffff168152602001908152602001600020546103d99190611a09565b600160003073ffffffffffffffffffffffffffffffffffffffff1673ffffffffffffffffffffffffffffffffffffffff168152602001908152602001600020819055503360008084815260200190815260200160002060006101000a81548173ffffffffffffffffffffffffffffffffffffffff021916908373ffffffffffffffffffffffffffffffffffffffff1602179055503373ffffffffffffffffffffffffffffffffffffffff167fe37d189301f8932439394ec9e609cd3ab69ecbd7d0aa80300c172745f644bb09836040516104b391906117f0565b60405180910390a25050565b8073ffffffffffffffffffffffffffffffffffffffff166108fc349081150290604051600060405180830381858888f19350505050158015610505573d6000803e3d6000fd5b5060006002848154811061051c5761051b611955565b5b90600052602060002090600702019050828160050190805190602001906105449291906111b5565b5060008160060160086101000a81548173ffffffffffffffffffffffffffffffffffffffff021916908373ffffffffffffffffffffffffffffffffffffffff16021790555060018060003073ffffffffffffffffffffffffffffffffffffffff1673ffffffffffffffffffffffffffffffffffffffff168152602001908152602001600020546105d49190611a09565b600160003073ffffffffffffffffffffffffffffffffffffffff1673ffffffffffffffffffffffffffffffffffffffff1681526020019081526020016000208190555060018060003373ffffffffffffffffffffffffffffffffffffffff1673ffffffffffffffffffffffffffffffffffffffff1681526020019081526020016000205461066291906119b3565b600160003373ffffffffffffffffffffffffffffffffffffffff1673ffffffffffffffffffffffffffffffffffffffff168152602001908152602001600020819055503360008086815260200190815260200160002060006101000a81548173ffffffffffffffffffffffffffffffffffffffff021916908373ffffffffffffffffffffffffffffffffffffffff1602179055503373ffffffffffffffffffffffffffffffffffffffff168273ffffffffffffffffffffffffffffffffffffffff167f926ba2594b1ec5b8354a72440fd70b44086344abad079f0acb838a52caaa626e8686604051610755929190611a3d565b60405180910390a350505050565b60006002838154811061077957610778611955565b5b90600052602060002090600702019050818160050190805190602001906107a19291906111b5565b50338160060160086101000a81548173ffffffffffffffffffffffffffffffffffffffff021916908373ffffffffffffffffffffffffffffffffffffffff16021790555060018060003373ffffffffffffffffffffffffffffffffffffffff1673ffffffffffffffffffffffffffffffffffffffff168152602001908152602001600020546108309190611a09565b600160003373ffffffffffffffffffffffffffffffffffffffff1673ffffffffffffffffffffffffffffffffffffffff1681526020019081526020016000208190555060018060003073ffffffffffffffffffffffffffffffffffffffff1673ffffffffffffffffffffffffffffffffffffffff168152602001908152602001600020546108be91906119b3565b600160003073ffffffffffffffffffffffffffffffffffffffff1673ffffffffffffffffffffffffffffffffffffffff168152602001908152602001600020819055503060008085815260200190815260200160002060006101000a81548173ffffffffffffffffffffffffffffffffffffffff021916908373ffffffffffffffffffffffffffffffffffffffff1602179055503373ffffffffffffffffffffffffffffffffffffffff167f6d079126a716903e65e9e1d51154819fe5514fb3e57e084149b0fdb866a7a535838560405161099a929190611a6d565b60405180910390a2505050565b600281815481106109b757600080fd5b90600052602060002090600702016000915090508060000154908060010180546109e090611acc565b80601f0160208091040260200160405190810160405280929190818152602001828054610a0c90611acc565b8015610a595780601f10610a2e57610100808354040283529160200191610a59565b820191906000526020600020905b815481529060010190602001808311610a3c57829003601f168201915b505050505090806002018054610a6e90611acc565b80601f0160208091040260200160405190810160405280929190818152602001828054610a9a90611acc565b8015610ae75780601f10610abc57610100808354040283529160200191610ae7565b820191906000526020600020905b815481529060010190602001808311610aca57829003601f168201915b5050505050908060030160009054906101000a900461ffff1690806004018054610b1090611acc565b80601f0160208091040260200160405190810160405280929190818152602001828054610b3c90611acc565b8015610b895780601f10610b5e57610100808354040283529160200191610b89565b820191906000526020600020905b815481529060010190602001808311610b6c57829003601f168201915b505050505090806005018054610b9e90611acc565b80601f0160208091040260200160405190810160405280929190818152602001828054610bca90611acc565b8015610c175780601f10610bec57610100808354040283529160200191610c17565b820191906000526020600020905b815481529060010190602001808311610bfa57829003601f168201915b5050505050908060060160009054906101000a900461ffff16908060060160029054906101000a900461ffff16908060060160049054906101000a900461ffff16908060060160069054906101000a900461ffff16908060060160089054906101000a900473ffffffffffffffffffffffffffffffffffffffff1690508b565b60606000600160008473ffffffffffffffffffffffffffffffffffffffff1673ffffffffffffffffffffffffffffffffffffffff1681526020019081526020016000205467ffffffffffffffff811115610cf457610cf3611346565b5b604051908082528060200260200182016040528015610d225781602001602082028036833780820191505090505b5090506000805b600280549050811015610dde578473ffffffffffffffffffffffffffffffffffffffff1660008083815260200190815260200160002060009054906101000a900473ffffffffffffffffffffffffffffffffffffffff1673ffffffffffffffffffffffffffffffffffffffff161415610dcb5780838381518110610db057610daf611955565b5b6020026020010181815250508180610dc790611afe565b9250505b8080610dd690611afe565b915050610d29565b508192505050919050565b60016020528060005260406000206000915090505481565b60026040518061016001604052808b81526020018a81526020018981526020018861ffff1681526020018781526020016040518060400160405280600181526020017f300000000000000000000000000000000000000000000000000000000000000081525081526020018661ffff1681526020018561ffff1681526020018461ffff1681526020018361ffff168152602001600073ffffffffffffffffffffffffffffffffffffffff168152509080600181540180825580915050600190039060005260206000209060070201600090919091909150600082015181600001556020820151816001019080519060200190610efe9291906111b5565b506040820151816002019080519060200190610f1b9291906111b5565b5060608201518160030160006101000a81548161ffff021916908361ffff1602179055506080820151816004019080519060200190610f5b9291906111b5565b5060a0820151816005019080519060200190610f789291906111b5565b5060c08201518160060160006101000a81548161ffff021916908361ffff16021790555060e08201518160060160026101000a81548161ffff021916908361ffff1602179055506101008201518160060160046101000a81548161ffff021916908361ffff1602179055506101208201518160060160066101000a81548161ffff021916908361ffff1602179055506101408201518160060160086101000a81548173ffffffffffffffffffffffffffffffffffffffff021916908373ffffffffffffffffffffffffffffffffffffffff1602179055505050600060016002805490506110659190611a09565b90503360008083815260200190815260200160002060006101000a81548173ffffffffffffffffffffffffffffffffffffffff021916908373ffffffffffffffffffffffffffffffffffffffff16021790555060018060003373ffffffffffffffffffffffffffffffffffffffff1673ffffffffffffffffffffffffffffffffffffffff1681526020019081526020016000205461110391906119b3565b600160003373ffffffffffffffffffffffffffffffffffffffff1673ffffffffffffffffffffffffffffffffffffffff168152602001908152602001600020819055503373ffffffffffffffffffffffffffffffffffffffff167f1c96bce994b60b1fe458ea8014a92301414266b04928342f4db66060dc8e4e578b838c8c8c8c8c8c8c8c60006040516111a19b9a99989796959493929190611b93565b60405180910390a250505050505050505050565b8280546111c190611acc565b90600052602060002090601f0160209004810192826111e3576000855561122a565b82601f106111fc57805160ff191683800117855561122a565b8280016001018555821561122a579182015b8281111561122957825182559160200191906001019061120e565b5b509050611237919061123b565b5090565b5b8082111561125457600081600090555060010161123c565b5090565b6000604051905090565b600080fd5b600080fd5b6000819050919050565b61127f8161126c565b811461128a57600080fd5b50565b60008135905061129c81611276565b92915050565b6000602082840312156112b8576112b7611262565b5b60006112c68482850161128d565b91505092915050565b600073ffffffffffffffffffffffffffffffffffffffff82169050919050565b60006112fa826112cf565b9050919050565b61130a816112ef565b82525050565b60006020820190506113256000830184611301565b92915050565b600080fd5b600080fd5b6000601f19601f8301169050919050565b7f4e487b7100000000000000000000000000000000000000000000000000000000600052604160045260246000fd5b61137e82611335565b810181811067ffffffffffffffff8211171561139d5761139c611346565b5b80604052505050565b60006113b0611258565b90506113bc8282611375565b919050565b600067ffffffffffffffff8211156113dc576113db611346565b5b6113e582611335565b9050602081019050919050565b82818337600083830152505050565b600061141461140f846113c1565b6113a6565b9050828152602081018484840111156114305761142f611330565b5b61143b8482856113f2565b509392505050565b600082601f8301126114585761145761132b565b5b8135611468848260208601611401565b91505092915050565b61147a816112ef565b811461148557600080fd5b50565b60008135905061149781611471565b92915050565b6000806000606084860312156114b6576114b5611262565b5b60006114c48682870161128d565b935050602084013567ffffffffffffffff8111156114e5576114e4611267565b5b6114f186828701611443565b925050604061150286828701611488565b9150509250925092565b6000806040838503121561152357611522611262565b5b60006115318582860161128d565b925050602083013567ffffffffffffffff81111561155257611551611267565b5b61155e85828601611443565b9150509250929050565b6115718161126c565b82525050565b600081519050919050565b600082825260208201905092915050565b60005b838110156115b1578082015181840152602081019050611596565b838111156115c0576000848401525b50505050565b60006115d182611577565b6115db8185611582565b93506115eb818560208601611593565b6115f481611335565b840191505092915050565b600061ffff82169050919050565b611616816115ff565b82525050565b600061016082019050611632600083018e611568565b8181036020830152611644818d6115c6565b90508181036040830152611658818c6115c6565b9050611667606083018b61160d565b8181036080830152611679818a6115c6565b905081810360a083015261168d81896115c6565b905061169c60c083018861160d565b6116a960e083018761160d565b6116b761010083018661160d565b6116c561012083018561160d565b6116d3610140830184611301565b9c9b505050505050505050505050565b6000602082840312156116f9576116f8611262565b5b600061170784828501611488565b91505092915050565b600081519050919050565b600082825260208201905092915050565b6000819050602082019050919050565b6117458161126c565b82525050565b6000611757838361173c565b60208301905092915050565b6000602082019050919050565b600061177b82611710565b611785818561171b565b93506117908361172c565b8060005b838110156117c15781516117a8888261174b565b97506117b383611763565b925050600181019050611794565b5085935050505092915050565b600060208201905081810360008301526117e88184611770565b905092915050565b60006020820190506118056000830184611568565b92915050565b611814816115ff565b811461181f57600080fd5b50565b6000813590506118318161180b565b92915050565b60008060008060008060008060006101208a8c03121561185a57611859611262565b5b60006118688c828d0161128d565b99505060208a013567ffffffffffffffff81111561188957611888611267565b5b6118958c828d01611443565b98505060408a013567ffffffffffffffff8111156118b6576118b5611267565b5b6118c28c828d01611443565b97505060606118d38c828d01611822565b96505060808a013567ffffffffffffffff8111156118f4576118f3611267565b5b6119008c828d01611443565b95505060a06119118c828d01611822565b94505060c06119228c828d01611822565b93505060e06119338c828d01611822565b9250506101006119458c828d01611822565b9150509295985092959850929598565b7f4e487b7100000000000000000000000000000000000000000000000000000000600052603260045260246000fd5b7f4e487b7100000000000000000000000000000000000000000000000000000000600052601160045260246000fd5b60006119be8261126c565b91506119c98361126c565b9250827fffffffffffffffffffffffffffffffffffffffffffffffffffffffffffffffff038211156119fe576119fd611984565b5b828201905092915050565b6000611a148261126c565b9150611a1f8361126c565b925082821015611a3257611a31611984565b5b828203905092915050565b6000604082019050611a526000830185611568565b8181036020830152611a6481846115c6565b90509392505050565b60006040820190508181036000830152611a8781856115c6565b9050611a966020830184611568565b9392505050565b7f4e487b7100000000000000000000000000000000000000000000000000000000600052602260045260246000fd5b60006002820490506001821680611ae457607f821691505b60208210811415611af857611af7611a9d565b5b50919050565b6000611b098261126c565b91507fffffffffffffffffffffffffffffffffffffffffffffffffffffffffffffffff821415611b3c57611b3b611984565b5b600182019050919050565b7f3000000000000000000000000000000000000000000000000000000000000000600082015250565b6000611b7d600183611582565b9150611b8882611b47565b602082019050919050565b600061018082019050611ba9600083018e611568565b611bb6602083018d611568565b8181036040830152611bc8818c6115c6565b90508181036060830152611bdc818b6115c6565b9050611beb608083018a61160d565b81810360a0830152611bfd81896115c6565b905081810360c0830152611c1081611b70565b9050611c1f60e083018861160d565b611c2d61010083018761160d565b611c3b61012083018661160d565b611c4961014083018561160d565b611c57610160830184611301565b9c9b50505050505050505050505056fea2646970667358221220298e93b963d68a43982f1d6f9c88f2410d5ba7e246ade522d8af331cba35094b64736f6c634300080a0033",
  "immutableReferences": {},
  "source": "// SPDX-License-Identifier: MIT\npragma solidity >=0.4.22 <0.9.0;\n\ncontract NFT {\n    struct info_nft {\n        uint256 nft_id;\n        string name;\n        string picture;\n        uint16 reward;\n        string type_nft;\n        string price;\n        uint16 cost_wood;\n        uint16 cost_fruit;\n        uint16 energy_consumed;\n        uint16 amount_food;\n        address seller;\n    }\n\n    event CraftNFT(\n        address indexed to,\n        uint256 nft_id,\n        uint256 indexNFT,\n        string name,\n        string picture,\n        uint16 reward,\n        string type_nft,\n        string price,\n        uint16 cost_wood,\n        uint16 cost_fruit,\n        uint16 energy_consumed,\n        uint16 amount_food,\n        address seller\n    );\n    event BuyNFT(\n        address indexed from,\n        address indexed to,\n        uint256 indexNFT,\n        string price\n    );\n    event SellNFT(address indexed from, string price, uint256 indexNFT);\n    event CancleNFT(address indexed from, uint256 indexNFT);\n    mapping(uint256 => address) public ownerNft;\n    mapping(address => uint256) public ownerNFTCount;\n    info_nft[] public nft;\n\n    function _craftNFT(\n        uint256 _nft_id,\n        string memory _name,\n        string memory _picture,\n        uint16 _reward,\n        string memory _type_nft,\n        uint16 _cost_wood,\n        uint16 _cost_fruit,\n        uint16 _energy_consumed,\n        uint16 _amount_food\n    ) public {\n        nft.push(\n            info_nft(\n                _nft_id,\n                _name,\n                _picture,\n                _reward,\n                _type_nft,\n                \"0\",\n                _cost_wood,\n                _cost_fruit,\n                _energy_consumed,\n                _amount_food,\n                address(0)\n            )\n        );\n        uint256 id = nft.length - 1;\n        ownerNft[id] = msg.sender;\n        ownerNFTCount[msg.sender] = ownerNFTCount[msg.sender] + 1;\n        emit CraftNFT(\n            msg.sender,\n            _nft_id,\n            id,\n            _name,\n            _picture,\n            _reward,\n            _type_nft,\n            \"0\",\n            _cost_wood,\n            _cost_fruit,\n            _energy_consumed,\n            _amount_food,\n            address(0)\n        );\n    }\n\n    function getNFTByOwner(address _owner)\n        public\n        view\n        returns (uint256[] memory)\n    {\n        uint256[] memory result = new uint256[](ownerNFTCount[_owner]);\n        uint256 counter = 0;\n        for (uint256 i = 0; i < nft.length; i++) {\n            if (ownerNft[i] == _owner) {\n                result[counter] = i;\n                counter++;\n            }\n        }\n        return result;\n    }\n\n    function sellNFT(uint256 _indexNFT, string memory _price) public {\n        info_nft storage myNFT = nft[_indexNFT];\n        myNFT.price = _price;\n        myNFT.seller = msg.sender;\n        ownerNFTCount[msg.sender] = ownerNFTCount[msg.sender] - 1;\n        ownerNFTCount[address(this)] = ownerNFTCount[address(this)] + 1;\n        ownerNft[_indexNFT] = address(this);\n        emit SellNFT(msg.sender, _price, _indexNFT);\n    }\n\n    function buyNFT(\n        uint256 _indexNFT,\n        string memory _price,\n        address seller\n    ) public payable {\n        payable(seller).transfer(msg.value);\n        info_nft storage myNFT = nft[_indexNFT];\n        myNFT.price = _price;\n        myNFT.seller = address(0);\n        ownerNFTCount[address(this)] = ownerNFTCount[address(this)] - 1;\n        ownerNFTCount[msg.sender] = ownerNFTCount[msg.sender] + 1;\n        ownerNft[_indexNFT] = msg.sender;\n        emit BuyNFT(seller, msg.sender, _indexNFT, _price);\n    }\n\n    function cancleNFT(uint256 _indexNFT) public {\n        info_nft storage myNFT = nft[_indexNFT];\n        myNFT.price = \"0\";\n        myNFT.seller = address(0);\n        ownerNFTCount[msg.sender] = ownerNFTCount[msg.sender] + 1;\n        ownerNFTCount[address(this)] = ownerNFTCount[address(this)] - 1;\n        ownerNft[_indexNFT] = msg.sender;\n        emit CancleNFT(msg.sender, _indexNFT);\n    }\n}\n",
  "sourcePath": "/Users/komsark/Final-Project/farm-souvirniors-web/contracts/NFT.sol",
  "compiler": {
    "name": "solc",
    "version": "0.8.10+commit.fc410830.Emscripten.clang"
  },
  "schemaVersion": "3.4.4",
  "updatedAt": "2022-05-03T16:07:21.839Z",
  "networkType": "ethereum",
  "devdoc": {
    "kind": "dev",
    "methods": {},
    "version": 1
  },
  "userdoc": {
    "kind": "user",
    "methods": {},
    "version": 1
  }
}