{
  "contractName": "NFT",
  "abi": [
    {
      "anonymous": false,
      "inputs": [
        {
          "indexed": true,
          "internalType": "address",
          "name": "from",
          "type": "address"
        },
        {
          "indexed": true,
          "internalType": "address",
          "name": "to",
          "type": "address"
        },
        {
          "indexed": false,
          "internalType": "uint256",
          "name": "indexNFT",
          "type": "uint256"
        },
        {
          "indexed": false,
          "internalType": "string",
          "name": "price",
          "type": "string"
        }
      ],
      "name": "BuyNFT",
      "type": "event"
    },
    {
      "anonymous": false,
      "inputs": [
        {
          "indexed": true,
          "internalType": "address",
          "name": "from",
          "type": "address"
        },
        {
          "indexed": false,
          "internalType": "uint256",
          "name": "indexNFT",
          "type": "uint256"
        }
      ],
      "name": "CancleNFT",
      "type": "event"
    },
    {
      "anonymous": false,
      "inputs": [
        {
          "indexed": true,
          "internalType": "address",
          "name": "to",
          "type": "address"
        },
        {
          "indexed": false,
          "internalType": "uint256",
          "name": "nft_id",
          "type": "uint256"
        },
        {
          "indexed": false,
          "internalType": "uint256",
          "name": "indexNFT",
          "type": "uint256"
        },
        {
          "indexed": false,
          "internalType": "string",
          "name": "name",
          "type": "string"
        },
        {
          "indexed": false,
          "internalType": "string",
          "name": "picture",
          "type": "string"
        },
        {
          "indexed": false,
          "internalType": "uint16",
          "name": "reward",
          "type": "uint16"
        },
        {
          "indexed": false,
          "internalType": "string",
          "name": "type_nft",
          "type": "string"
        },
        {
          "indexed": false,
          "internalType": "string",
          "name": "price",
          "type": "string"
        },
        {
          "indexed": false,
          "internalType": "uint16",
          "name": "cost_wood",
          "type": "uint16"
        },
        {
          "indexed": false,
          "internalType": "uint16",
          "name": "cost_fruit",
          "type": "uint16"
        },
        {
          "indexed": false,
          "internalType": "uint16",
          "name": "energy_consumed",
          "type": "uint16"
        },
        {
          "indexed": false,
          "internalType": "uint16",
          "name": "amount_food",
          "type": "uint16"
        },
        {
          "indexed": false,
          "internalType": "address",
          "name": "seller",
          "type": "address"
        }
      ],
      "name": "CraftNFT",
      "type": "event"
    },
    {
      "anonymous": false,
      "inputs": [
        {
          "indexed": true,
          "internalType": "address",
          "name": "from",
          "type": "address"
        },
        {
          "indexed": false,
          "internalType": "string",
          "name": "price",
          "type": "string"
        },
        {
          "indexed": false,
          "internalType": "uint256",
          "name": "indexNFT",
          "type": "uint256"
        }
      ],
      "name": "SellNFT",
      "type": "event"
    },
    {
      "inputs": [
        {
          "internalType": "uint256",
          "name": "",
          "type": "uint256"
        }
      ],
      "name": "nft",
      "outputs": [
        {
          "internalType": "uint256",
          "name": "nft_id",
          "type": "uint256"
        },
        {
          "internalType": "string",
          "name": "name",
          "type": "string"
        },
        {
          "internalType": "string",
          "name": "picture",
          "type": "string"
        },
        {
          "internalType": "uint16",
          "name": "reward",
          "type": "uint16"
        },
        {
          "internalType": "string",
          "name": "type_nft",
          "type": "string"
        },
        {
          "internalType": "string",
          "name": "price",
          "type": "string"
        },
        {
          "internalType": "uint16",
          "name": "cost_wood",
          "type": "uint16"
        },
        {
          "internalType": "uint16",
          "name": "cost_fruit",
          "type": "uint16"
        },
        {
          "internalType": "uint16",
          "name": "energy_consumed",
          "type": "uint16"
        },
        {
          "internalType": "uint16",
          "name": "amount_food",
          "type": "uint16"
        },
        {
          "internalType": "address",
          "name": "seller",
          "type": "address"
        }
      ],
      "stateMutability": "view",
      "type": "function",
      "constant": true
    },
    {
      "inputs": [
        {
          "internalType": "address",
          "name": "",
          "type": "address"
        }
      ],
      "name": "ownerNFTCount",
      "outputs": [
        {
          "internalType": "uint256",
          "name": "",
          "type": "uint256"
        }
      ],
      "stateMutability": "view",
      "type": "function",
      "constant": true
    },
    {
      "inputs": [
        {
          "internalType": "uint256",
          "name": "",
          "type": "uint256"
        }
      ],
      "name": "ownerNft",
      "outputs": [
        {
          "internalType": "address",
          "name": "",
          "type": "address"
        }
      ],
      "stateMutability": "view",
      "type": "function",
      "constant": true
    },
    {
      "inputs": [
        {
          "internalType": "address",
          "name": "_owner",
          "type": "address"
        }
      ],
      "name": "getNFTByOwner",
      "outputs": [
        {
          "internalType": "uint256[]",
          "name": "",
          "type": "uint256[]"
        }
      ],
      "stateMutability": "view",
      "type": "function",
      "constant": true
    },
    {
      "inputs": [
        {
          "internalType": "uint256",
          "name": "_indexNFT",
          "type": "uint256"
        },
        {
          "internalType": "string",
          "name": "_price",
          "type": "string"
        }
      ],
      "name": "sellNFT",
      "outputs": [],
      "stateMutability": "nonpayable",
      "type": "function"
    },
    {
      "inputs": [
        {
          "internalType": "uint256",
          "name": "_indexNFT",
          "type": "uint256"
        },
        {
          "internalType": "string",
          "name": "_price",
          "type": "string"
        },
        {
          "internalType": "address",
          "name": "seller",
          "type": "address"
        }
      ],
      "name": "buyNFT",
      "outputs": [],
      "stateMutability": "payable",
      "type": "function",
      "payable": true
    },
    {
      "inputs": [
        {
          "internalType": "uint256",
          "name": "_indexNFT",
          "type": "uint256"
        }
      ],
      "name": "cancleNFT",
      "outputs": [],
      "stateMutability": "nonpayable",
      "type": "function"
    }
  ],
  "bytecode": "0x608060405234801561001057600080fd5b5061164b806100206000396000f3fe6080604052600436106100705760003560e01c806362cb9fa41161004e57806362cb9fa4146100f75780639d0214cb14610120578063cb0c14c414610167578063fb88df18146101a457610070565b806321381d3714610075578063349d595f146100b257806335cc06e3146100db575b600080fd5b34801561008157600080fd5b5061009c60048036038101906100979190610eba565b6101e1565b6040516100a99190610f28565b60405180910390f35b3480156100be57600080fd5b506100d960048036038101906100d49190610eba565b610214565b005b6100f560048036038101906100f091906110b5565b61048b565b005b34801561010357600080fd5b5061011e60048036038101906101199190611124565b61072f565b005b34801561012c57600080fd5b5061014760048036038101906101429190610eba565b610973565b60405161015e9b9a99989796959493929190611234565b60405180910390f35b34801561017357600080fd5b5061018e600480360381019061018991906112fb565b610c63565b60405161019b91906113e6565b60405180910390f35b3480156101b057600080fd5b506101cb60048036038101906101c691906112fb565b610db5565b6040516101d89190611408565b60405180910390f35b60006020528060005260406000206000915054906101000a900473ffffffffffffffffffffffffffffffffffffffff1681565b60006002828154811061022a57610229611423565b5b906000526020600020906007020190506040518060400160405280600181526020017f3000000000000000000000000000000000000000000000000000000000000000815250816005019080519060200190610287929190610dcd565b5060008160060160086101000a81548173ffffffffffffffffffffffffffffffffffffffff021916908373ffffffffffffffffffffffffffffffffffffffff16021790555060018060003373ffffffffffffffffffffffffffffffffffffffff1673ffffffffffffffffffffffffffffffffffffffff168152602001908152602001600020546103179190611481565b600160003373ffffffffffffffffffffffffffffffffffffffff1673ffffffffffffffffffffffffffffffffffffffff1681526020019081526020016000208190555060018060003073ffffffffffffffffffffffffffffffffffffffff1673ffffffffffffffffffffffffffffffffffffffff168152602001908152602001600020546103a591906114d7565b600160003073ffffffffffffffffffffffffffffffffffffffff1673ffffffffffffffffffffffffffffffffffffffff168152602001908152602001600020819055503360008084815260200190815260200160002060006101000a81548173ffffffffffffffffffffffffffffffffffffffff021916908373ffffffffffffffffffffffffffffffffffffffff1602179055503373ffffffffffffffffffffffffffffffffffffffff167fe37d189301f8932439394ec9e609cd3ab69ecbd7d0aa80300c172745f644bb098360405161047f9190611408565b60405180910390a25050565b8073ffffffffffffffffffffffffffffffffffffffff166108fc349081150290604051600060405180830381858888f193505050501580156104d1573d6000803e3d6000fd5b506000600284815481106104e8576104e7611423565b5b9060005260206000209060070201905082816005019080519060200190610510929190610dcd565b5060008160060160086101000a81548173ffffffffffffffffffffffffffffffffffffffff021916908373ffffffffffffffffffffffffffffffffffffffff16021790555060018060003073ffffffffffffffffffffffffffffffffffffffff1673ffffffffffffffffffffffffffffffffffffffff168152602001908152602001600020546105a091906114d7565b600160003073ffffffffffffffffffffffffffffffffffffffff1673ffffffffffffffffffffffffffffffffffffffff1681526020019081526020016000208190555060018060003373ffffffffffffffffffffffffffffffffffffffff1673ffffffffffffffffffffffffffffffffffffffff1681526020019081526020016000205461062e9190611481565b600160003373ffffffffffffffffffffffffffffffffffffffff1673ffffffffffffffffffffffffffffffffffffffff168152602001908152602001600020819055503360008086815260200190815260200160002060006101000a81548173ffffffffffffffffffffffffffffffffffffffff021916908373ffffffffffffffffffffffffffffffffffffffff1602179055503373ffffffffffffffffffffffffffffffffffffffff168273ffffffffffffffffffffffffffffffffffffffff167f926ba2594b1ec5b8354a72440fd70b44086344abad079f0acb838a52caaa626e868660405161072192919061150b565b60405180910390a350505050565b60006002838154811061074557610744611423565b5b906000526020600020906007020190508181600501908051906020019061076d929190610dcd565b50338160060160086101000a81548173ffffffffffffffffffffffffffffffffffffffff021916908373ffffffffffffffffffffffffffffffffffffffff16021790555060018060003373ffffffffffffffffffffffffffffffffffffffff1673ffffffffffffffffffffffffffffffffffffffff168152602001908152602001600020546107fc91906114d7565b600160003373ffffffffffffffffffffffffffffffffffffffff1673ffffffffffffffffffffffffffffffffffffffff1681526020019081526020016000208190555060018060003073ffffffffffffffffffffffffffffffffffffffff1673ffffffffffffffffffffffffffffffffffffffff1681526020019081526020016000205461088a9190611481565b600160003073ffffffffffffffffffffffffffffffffffffffff1673ffffffffffffffffffffffffffffffffffffffff168152602001908152602001600020819055503060008085815260200190815260200160002060006101000a81548173ffffffffffffffffffffffffffffffffffffffff021916908373ffffffffffffffffffffffffffffffffffffffff1602179055503373ffffffffffffffffffffffffffffffffffffffff167f6d079126a716903e65e9e1d51154819fe5514fb3e57e084149b0fdb866a7a535838560405161096692919061153b565b60405180910390a2505050565b6002818154811061098357600080fd5b90600052602060002090600702016000915090508060000154908060010180546109ac9061159a565b80601f01602080910402602001604051908101604052809291908181526020018280546109d89061159a565b8015610a255780601f106109fa57610100808354040283529160200191610a25565b820191906000526020600020905b815481529060010190602001808311610a0857829003601f168201915b505050505090806002018054610a3a9061159a565b80601f0160208091040260200160405190810160405280929190818152602001828054610a669061159a565b8015610ab35780601f10610a8857610100808354040283529160200191610ab3565b820191906000526020600020905b815481529060010190602001808311610a9657829003601f168201915b5050505050908060030160009054906101000a900461ffff1690806004018054610adc9061159a565b80601f0160208091040260200160405190810160405280929190818152602001828054610b089061159a565b8015610b555780601f10610b2a57610100808354040283529160200191610b55565b820191906000526020600020905b815481529060010190602001808311610b3857829003601f168201915b505050505090806005018054610b6a9061159a565b80601f0160208091040260200160405190810160405280929190818152602001828054610b969061159a565b8015610be35780601f10610bb857610100808354040283529160200191610be3565b820191906000526020600020905b815481529060010190602001808311610bc657829003601f168201915b5050505050908060060160009054906101000a900461ffff16908060060160029054906101000a900461ffff16908060060160049054906101000a900461ffff16908060060160069054906101000a900461ffff16908060060160089054906101000a900473ffffffffffffffffffffffffffffffffffffffff1690508b565b60606000600160008473ffffffffffffffffffffffffffffffffffffffff1673ffffffffffffffffffffffffffffffffffffffff1681526020019081526020016000205467ffffffffffffffff811115610cc057610cbf610f5e565b5b604051908082528060200260200182016040528015610cee5781602001602082028036833780820191505090505b5090506000805b600280549050811015610daa578473ffffffffffffffffffffffffffffffffffffffff1660008083815260200190815260200160002060009054906101000a900473ffffffffffffffffffffffffffffffffffffffff1673ffffffffffffffffffffffffffffffffffffffff161415610d975780838381518110610d7c57610d7b611423565b5b6020026020010181815250508180610d93906115cc565b9250505b8080610da2906115cc565b915050610cf5565b508192505050919050565b60016020528060005260406000206000915090505481565b828054610dd99061159a565b90600052602060002090601f016020900481019282610dfb5760008555610e42565b82601f10610e1457805160ff1916838001178555610e42565b82800160010185558215610e42579182015b82811115610e41578251825591602001919060010190610e26565b5b509050610e4f9190610e53565b5090565b5b80821115610e6c576000816000905550600101610e54565b5090565b6000604051905090565b600080fd5b600080fd5b6000819050919050565b610e9781610e84565b8114610ea257600080fd5b50565b600081359050610eb481610e8e565b92915050565b600060208284031215610ed057610ecf610e7a565b5b6000610ede84828501610ea5565b91505092915050565b600073ffffffffffffffffffffffffffffffffffffffff82169050919050565b6000610f1282610ee7565b9050919050565b610f2281610f07565b82525050565b6000602082019050610f3d6000830184610f19565b92915050565b600080fd5b600080fd5b6000601f19601f8301169050919050565b7f4e487b7100000000000000000000000000000000000000000000000000000000600052604160045260246000fd5b610f9682610f4d565b810181811067ffffffffffffffff82111715610fb557610fb4610f5e565b5b80604052505050565b6000610fc8610e70565b9050610fd48282610f8d565b919050565b600067ffffffffffffffff821115610ff457610ff3610f5e565b5b610ffd82610f4d565b9050602081019050919050565b82818337600083830152505050565b600061102c61102784610fd9565b610fbe565b90508281526020810184848401111561104857611047610f48565b5b61105384828561100a565b509392505050565b600082601f8301126110705761106f610f43565b5b8135611080848260208601611019565b91505092915050565b61109281610f07565b811461109d57600080fd5b50565b6000813590506110af81611089565b92915050565b6000806000606084860312156110ce576110cd610e7a565b5b60006110dc86828701610ea5565b935050602084013567ffffffffffffffff8111156110fd576110fc610e7f565b5b6111098682870161105b565b925050604061111a868287016110a0565b9150509250925092565b6000806040838503121561113b5761113a610e7a565b5b600061114985828601610ea5565b925050602083013567ffffffffffffffff81111561116a57611169610e7f565b5b6111768582860161105b565b9150509250929050565b61118981610e84565b82525050565b600081519050919050565b600082825260208201905092915050565b60005b838110156111c95780820151818401526020810190506111ae565b838111156111d8576000848401525b50505050565b60006111e98261118f565b6111f3818561119a565b93506112038185602086016111ab565b61120c81610f4d565b840191505092915050565b600061ffff82169050919050565b61122e81611217565b82525050565b60006101608201905061124a600083018e611180565b818103602083015261125c818d6111de565b90508181036040830152611270818c6111de565b905061127f606083018b611225565b8181036080830152611291818a6111de565b905081810360a08301526112a581896111de565b90506112b460c0830188611225565b6112c160e0830187611225565b6112cf610100830186611225565b6112dd610120830185611225565b6112eb610140830184610f19565b9c9b505050505050505050505050565b60006020828403121561131157611310610e7a565b5b600061131f848285016110a0565b91505092915050565b600081519050919050565b600082825260208201905092915050565b6000819050602082019050919050565b61135d81610e84565b82525050565b600061136f8383611354565b60208301905092915050565b6000602082019050919050565b600061139382611328565b61139d8185611333565b93506113a883611344565b8060005b838110156113d95781516113c08882611363565b97506113cb8361137b565b9250506001810190506113ac565b5085935050505092915050565b600060208201905081810360008301526114008184611388565b905092915050565b600060208201905061141d6000830184611180565b92915050565b7f4e487b7100000000000000000000000000000000000000000000000000000000600052603260045260246000fd5b7f4e487b7100000000000000000000000000000000000000000000000000000000600052601160045260246000fd5b600061148c82610e84565b915061149783610e84565b9250827fffffffffffffffffffffffffffffffffffffffffffffffffffffffffffffffff038211156114cc576114cb611452565b5b828201905092915050565b60006114e282610e84565b91506114ed83610e84565b925082821015611500576114ff611452565b5b828203905092915050565b60006040820190506115206000830185611180565b818103602083015261153281846111de565b90509392505050565b6000604082019050818103600083015261155581856111de565b90506115646020830184611180565b9392505050565b7f4e487b7100000000000000000000000000000000000000000000000000000000600052602260045260246000fd5b600060028204905060018216806115b257607f821691505b602082108114156115c6576115c561156b565b5b50919050565b60006115d782610e84565b91507fffffffffffffffffffffffffffffffffffffffffffffffffffffffffffffffff82141561160a57611609611452565b5b60018201905091905056fea2646970667358221220e13230177af78ceb27ec854ae196c671244a81476e1e68af85e9303ed0483d9264736f6c634300080a0033",
  "immutableReferences": {},
  "source": "// SPDX-License-Identifier: MIT\npragma solidity >=0.4.22 <0.9.0;\n\ncontract NFT {\n    struct info_nft {\n        uint256 nft_id;\n        string name;\n        string picture;\n        uint16 reward;\n        string type_nft;\n        string price;\n        uint16 cost_wood;\n        uint16 cost_fruit;\n        uint16 energy_consumed;\n        uint16 amount_food;\n        address seller;\n    }\n\n    event CraftNFT(\n        address indexed to,\n        uint256 nft_id,\n        uint256 indexNFT,\n        string name,\n        string picture,\n        uint16 reward,\n        string type_nft,\n        string price,\n        uint16 cost_wood,\n        uint16 cost_fruit,\n        uint16 energy_consumed,\n        uint16 amount_food,\n        address seller\n    );\n    event BuyNFT(\n        address indexed from,\n        address indexed to,\n        uint256 indexNFT,\n        string price\n    );\n    event SellNFT(address indexed from, string price, uint256 indexNFT);\n    event CancleNFT(address indexed from, uint256 indexNFT);\n    mapping(uint256 => address) public ownerNft;\n    mapping(address => uint256) public ownerNFTCount;\n    info_nft[] public nft;\n\n    function _craftNFT(\n        uint256 _nft_id,\n        string memory _name,\n        string memory _picture,\n        uint16 _reward,\n        string memory _type_nft,\n        uint16 _cost_wood,\n        uint16 _cost_fruit,\n        uint16 _energy_consumed,\n        uint16 _amount_food\n    ) internal {\n        nft.push(\n            info_nft(\n                _nft_id,\n                _name,\n                _picture,\n                _reward,\n                _type_nft,\n                \"0\",\n                _cost_wood,\n                _cost_fruit,\n                _energy_consumed,\n                _amount_food,\n                address(0)\n            )\n        );\n        uint256 id = nft.length - 1;\n        ownerNft[id] = msg.sender;\n        ownerNFTCount[msg.sender] = ownerNFTCount[msg.sender] + 1;\n        emit CraftNFT(\n            msg.sender,\n            _nft_id,\n            id,\n            _name,\n            _picture,\n            _reward,\n            _type_nft,\n            \"0\",\n            _cost_wood,\n            _cost_fruit,\n            _energy_consumed,\n            _amount_food,\n            address(0)\n        );\n    }\n\n    function getNFTByOwner(address _owner)\n        public\n        view\n        returns (uint256[] memory)\n    {\n        uint256[] memory result = new uint256[](ownerNFTCount[_owner]);\n        uint256 counter = 0;\n        for (uint256 i = 0; i < nft.length; i++) {\n            if (ownerNft[i] == _owner) {\n                result[counter] = i;\n                counter++;\n            }\n        }\n        return result;\n    }\n\n    function sellNFT(uint256 _indexNFT, string memory _price) public {\n        info_nft storage myNFT = nft[_indexNFT];\n        myNFT.price = _price;\n        myNFT.seller = msg.sender;\n        ownerNFTCount[msg.sender] = ownerNFTCount[msg.sender] - 1;\n        ownerNFTCount[address(this)] = ownerNFTCount[address(this)] + 1;\n        ownerNft[_indexNFT] = address(this);\n        emit SellNFT(msg.sender, _price, _indexNFT);\n    }\n\n    function buyNFT(\n        uint256 _indexNFT,\n        string memory _price,\n        address seller\n    ) public payable {\n        payable(seller).transfer(msg.value);\n        info_nft storage myNFT = nft[_indexNFT];\n        myNFT.price = _price;\n        myNFT.seller = address(0);\n        ownerNFTCount[address(this)] = ownerNFTCount[address(this)] - 1;\n        ownerNFTCount[msg.sender] = ownerNFTCount[msg.sender] + 1;\n        ownerNft[_indexNFT] = msg.sender;\n        emit BuyNFT(seller, msg.sender, _indexNFT, _price);\n    }\n\n    function cancleNFT(uint256 _indexNFT) public {\n        info_nft storage myNFT = nft[_indexNFT];\n        myNFT.price = \"0\";\n        myNFT.seller = address(0);\n        ownerNFTCount[msg.sender] = ownerNFTCount[msg.sender] + 1;\n        ownerNFTCount[address(this)] = ownerNFTCount[address(this)] - 1;\n        ownerNft[_indexNFT] = msg.sender;\n        emit CancleNFT(msg.sender, _indexNFT);\n    }\n}\n",
  "sourcePath": "/Users/komsark/Final-Project/farm-souvirniors-web/contracts/NFT.sol",
  "compiler": {
    "name": "solc",
    "version": "0.8.10+commit.fc410830.Emscripten.clang"
  },
  "schemaVersion": "3.4.4",
  "updatedAt": "2022-03-07T18:20:29.415Z",
  "networkType": "ethereum",
  "devdoc": {
    "kind": "dev",
    "methods": {},
    "version": 1
  },
  "userdoc": {
    "kind": "user",
    "methods": {},
    "version": 1
  }
}