{
  "contractName": "RandomBox",
  "abi": [
    {
      "inputs": [],
      "stateMutability": "nonpayable",
      "type": "constructor"
    },
    {
      "anonymous": false,
      "inputs": [
        {
          "indexed": true,
          "internalType": "address",
          "name": "from",
          "type": "address"
        },
        {
          "indexed": true,
          "internalType": "address",
          "name": "to",
          "type": "address"
        },
        {
          "indexed": false,
          "internalType": "uint256",
          "name": "indexNFT",
          "type": "uint256"
        },
        {
          "indexed": false,
          "internalType": "string",
          "name": "price",
          "type": "string"
        }
      ],
      "name": "BuyNFT",
      "type": "event"
    },
    {
      "anonymous": false,
      "inputs": [
        {
          "indexed": true,
          "internalType": "address",
          "name": "_to",
          "type": "address"
        },
        {
          "indexed": false,
          "internalType": "string",
          "name": "name",
          "type": "string"
        },
        {
          "indexed": false,
          "internalType": "string",
          "name": "picture",
          "type": "string"
        }
      ],
      "name": "BuyRandomBox",
      "type": "event"
    },
    {
      "anonymous": false,
      "inputs": [
        {
          "indexed": true,
          "internalType": "address",
          "name": "from",
          "type": "address"
        },
        {
          "indexed": false,
          "internalType": "uint256",
          "name": "indexNFT",
          "type": "uint256"
        }
      ],
      "name": "CancleNFT",
      "type": "event"
    },
    {
      "anonymous": false,
      "inputs": [
        {
          "indexed": true,
          "internalType": "address",
          "name": "to",
          "type": "address"
        },
        {
          "indexed": false,
          "internalType": "uint256",
          "name": "nft_id",
          "type": "uint256"
        },
        {
          "indexed": false,
          "internalType": "uint256",
          "name": "indexNFT",
          "type": "uint256"
        },
        {
          "indexed": false,
          "internalType": "string",
          "name": "name",
          "type": "string"
        },
        {
          "indexed": false,
          "internalType": "string",
          "name": "picture",
          "type": "string"
        },
        {
          "indexed": false,
          "internalType": "uint16",
          "name": "reward",
          "type": "uint16"
        },
        {
          "indexed": false,
          "internalType": "string",
          "name": "type_nft",
          "type": "string"
        },
        {
          "indexed": false,
          "internalType": "string",
          "name": "price",
          "type": "string"
        },
        {
          "indexed": false,
          "internalType": "uint16",
          "name": "cost_wood",
          "type": "uint16"
        },
        {
          "indexed": false,
          "internalType": "uint16",
          "name": "cost_fruit",
          "type": "uint16"
        },
        {
          "indexed": false,
          "internalType": "uint16",
          "name": "energy_consumed",
          "type": "uint16"
        },
        {
          "indexed": false,
          "internalType": "uint16",
          "name": "amount_food",
          "type": "uint16"
        },
        {
          "indexed": false,
          "internalType": "address",
          "name": "seller",
          "type": "address"
        }
      ],
      "name": "CraftNFT",
      "type": "event"
    },
    {
      "anonymous": false,
      "inputs": [
        {
          "indexed": true,
          "internalType": "address",
          "name": "from",
          "type": "address"
        },
        {
          "indexed": false,
          "internalType": "uint256",
          "name": "indexNFT",
          "type": "uint256"
        }
      ],
      "name": "OpenRandomBox",
      "type": "event"
    },
    {
      "anonymous": false,
      "inputs": [
        {
          "indexed": true,
          "internalType": "address",
          "name": "from",
          "type": "address"
        },
        {
          "indexed": false,
          "internalType": "string",
          "name": "price",
          "type": "string"
        },
        {
          "indexed": false,
          "internalType": "uint256",
          "name": "indexNFT",
          "type": "uint256"
        }
      ],
      "name": "SellNFT",
      "type": "event"
    },
    {
      "inputs": [
        {
          "internalType": "address",
          "name": "",
          "type": "address"
        }
      ],
      "name": "ContractAddressRandomBoxCount",
      "outputs": [
        {
          "internalType": "uint256",
          "name": "",
          "type": "uint256"
        }
      ],
      "stateMutability": "view",
      "type": "function",
      "constant": true
    },
    {
      "inputs": [
        {
          "internalType": "uint256",
          "name": "",
          "type": "uint256"
        }
      ],
      "name": "box",
      "outputs": [
        {
          "internalType": "string",
          "name": "name",
          "type": "string"
        },
        {
          "internalType": "string",
          "name": "price",
          "type": "string"
        },
        {
          "internalType": "uint16",
          "name": "count",
          "type": "uint16"
        },
        {
          "internalType": "string",
          "name": "picture",
          "type": "string"
        }
      ],
      "stateMutability": "view",
      "type": "function",
      "constant": true
    },
    {
      "inputs": [
        {
          "internalType": "uint256",
          "name": "_indexNFT",
          "type": "uint256"
        },
        {
          "internalType": "string",
          "name": "_price",
          "type": "string"
        },
        {
          "internalType": "address",
          "name": "seller",
          "type": "address"
        }
      ],
      "name": "buyNFT",
      "outputs": [],
      "stateMutability": "payable",
      "type": "function",
      "payable": true
    },
    {
      "inputs": [
        {
          "internalType": "uint256",
          "name": "_indexNFT",
          "type": "uint256"
        }
      ],
      "name": "cancleNFT",
      "outputs": [],
      "stateMutability": "nonpayable",
      "type": "function"
    },
    {
      "inputs": [
        {
          "internalType": "address",
          "name": "_owner",
          "type": "address"
        }
      ],
      "name": "getNFTByOwner",
      "outputs": [
        {
          "internalType": "uint256[]",
          "name": "",
          "type": "uint256[]"
        }
      ],
      "stateMutability": "view",
      "type": "function",
      "constant": true
    },
    {
      "inputs": [
        {
          "internalType": "uint256",
          "name": "",
          "type": "uint256"
        }
      ],
      "name": "nft",
      "outputs": [
        {
          "internalType": "uint256",
          "name": "nft_id",
          "type": "uint256"
        },
        {
          "internalType": "string",
          "name": "name",
          "type": "string"
        },
        {
          "internalType": "string",
          "name": "picture",
          "type": "string"
        },
        {
          "internalType": "uint16",
          "name": "reward",
          "type": "uint16"
        },
        {
          "internalType": "string",
          "name": "type_nft",
          "type": "string"
        },
        {
          "internalType": "string",
          "name": "price",
          "type": "string"
        },
        {
          "internalType": "uint16",
          "name": "cost_wood",
          "type": "uint16"
        },
        {
          "internalType": "uint16",
          "name": "cost_fruit",
          "type": "uint16"
        },
        {
          "internalType": "uint16",
          "name": "energy_consumed",
          "type": "uint16"
        },
        {
          "internalType": "uint16",
          "name": "amount_food",
          "type": "uint16"
        },
        {
          "internalType": "address",
          "name": "seller",
          "type": "address"
        }
      ],
      "stateMutability": "view",
      "type": "function",
      "constant": true
    },
    {
      "inputs": [
        {
          "internalType": "address",
          "name": "",
          "type": "address"
        }
      ],
      "name": "ownerNFTCount",
      "outputs": [
        {
          "internalType": "uint256",
          "name": "",
          "type": "uint256"
        }
      ],
      "stateMutability": "view",
      "type": "function",
      "constant": true
    },
    {
      "inputs": [
        {
          "internalType": "uint256",
          "name": "",
          "type": "uint256"
        }
      ],
      "name": "ownerNft",
      "outputs": [
        {
          "internalType": "address",
          "name": "",
          "type": "address"
        }
      ],
      "stateMutability": "view",
      "type": "function",
      "constant": true
    },
    {
      "inputs": [
        {
          "internalType": "uint256",
          "name": "",
          "type": "uint256"
        }
      ],
      "name": "randomBoxToContractAddress",
      "outputs": [
        {
          "internalType": "address",
          "name": "",
          "type": "address"
        }
      ],
      "stateMutability": "view",
      "type": "function",
      "constant": true
    },
    {
      "inputs": [
        {
          "internalType": "uint256",
          "name": "_indexNFT",
          "type": "uint256"
        },
        {
          "internalType": "string",
          "name": "_price",
          "type": "string"
        }
      ],
      "name": "sellNFT",
      "outputs": [],
      "stateMutability": "nonpayable",
      "type": "function"
    },
    {
      "inputs": [
        {
          "internalType": "string",
          "name": "_name",
          "type": "string"
        },
        {
          "internalType": "string",
          "name": "_price",
          "type": "string"
        },
        {
          "internalType": "uint8",
          "name": "_count",
          "type": "uint8"
        },
        {
          "internalType": "string",
          "name": "_picture",
          "type": "string"
        }
      ],
      "name": "_mintRandomBox",
      "outputs": [],
      "stateMutability": "nonpayable",
      "type": "function"
    },
    {
      "inputs": [
        {
          "internalType": "uint256",
          "name": "_indexRandomBox",
          "type": "uint256"
        },
        {
          "internalType": "uint16",
          "name": "count",
          "type": "uint16"
        }
      ],
      "name": "_addCountRandomBox",
      "outputs": [],
      "stateMutability": "nonpayable",
      "type": "function"
    },
    {
      "inputs": [],
      "name": "_getRandomBox",
      "outputs": [
        {
          "internalType": "uint256[]",
          "name": "",
          "type": "uint256[]"
        }
      ],
      "stateMutability": "view",
      "type": "function",
      "constant": true
    },
    {
      "inputs": [
        {
          "internalType": "uint256",
          "name": "_nft_id",
          "type": "uint256"
        },
        {
          "internalType": "uint256",
          "name": "_indexRandomBox",
          "type": "uint256"
        },
        {
          "internalType": "string",
          "name": "_name",
          "type": "string"
        },
        {
          "internalType": "string",
          "name": "_picture",
          "type": "string"
        }
      ],
      "name": "_buyRandomBox",
      "outputs": [],
      "stateMutability": "payable",
      "type": "function",
      "payable": true
    },
    {
      "inputs": [
        {
          "internalType": "uint256",
          "name": "_nft_id",
          "type": "uint256"
        },
        {
          "internalType": "string",
          "name": "_name",
          "type": "string"
        },
        {
          "internalType": "string",
          "name": "_picture",
          "type": "string"
        },
        {
          "internalType": "uint16",
          "name": "_reward",
          "type": "uint16"
        },
        {
          "internalType": "string",
          "name": "_type_nft",
          "type": "string"
        },
        {
          "internalType": "uint16",
          "name": "_cost_wood",
          "type": "uint16"
        },
        {
          "internalType": "uint16",
          "name": "_cost_fruit",
          "type": "uint16"
        },
        {
          "internalType": "uint16",
          "name": "_energy_consumed",
          "type": "uint16"
        },
        {
          "internalType": "uint16",
          "name": "_amount_food",
          "type": "uint16"
        },
        {
          "internalType": "uint256",
          "name": "_indexRandomBox",
          "type": "uint256"
        }
      ],
      "name": "_openRandomBox",
      "outputs": [],
      "stateMutability": "nonpayable",
      "type": "function"
    }
  ],
  "bytecode": "0x608060405234801561001057600080fd5b5033600360006101000a81548173ffffffffffffffffffffffffffffffffffffffff021916908373ffffffffffffffffffffffffffffffffffffffff1602179055506129ae806100616000396000f3fe6080604052600436106100e85760003560e01c80636ca21b951161008a578063b0ba6d5611610059578063b0ba6d5614610307578063cb0c14c414610330578063d28e7a221461036d578063fb88df1814610398576100e8565b80636ca21b95146102275780639a922345146102675780639d0214cb14610283578063af997894146102ca576100e8565b806335cc06e3116100c657806335cc06e31461017c57806344b2a25b1461019857806362cb9fa4146101c1578063669787c2146101ea576100e8565b806321381d37146100ed578063230635021461012a578063349d595f14610153575b600080fd5b3480156100f957600080fd5b50610114600480360381019061010f9190611cce565b6103d5565b6040516101219190611d3c565b60405180910390f35b34801561013657600080fd5b50610151600480360381019061014c9190611d91565b610408565b005b34801561015f57600080fd5b5061017a60048036038101906101759190611cce565b6104c9565b005b61019660048036038101906101919190611f43565b610740565b005b3480156101a457600080fd5b506101bf60048036038101906101ba9190611feb565b6109e4565b005b3480156101cd57600080fd5b506101e860048036038101906101e391906120a6565b610c0b565b005b3480156101f657600080fd5b50610211600480360381019061020c9190612102565b610e4f565b60405161021e919061213e565b60405180910390f35b34801561023357600080fd5b5061024e60048036038101906102499190611cce565b610e67565b60405161025e94939291906121f0565b60405180910390f35b610281600480360381019061027c919061224a565b61104d565b005b34801561028f57600080fd5b506102aa60048036038101906102a59190611cce565b6111b9565b6040516102c19b9a999897969594939291906122e9565b60405180910390f35b3480156102d657600080fd5b506102f160048036038101906102ec9190611cce565b6114a9565b6040516102fe9190611d3c565b60405180910390f35b34801561031357600080fd5b5061032e600480360381019061032991906123b0565b6114dc565b005b34801561033c57600080fd5b5061035760048036038101906103529190612102565b6115da565b60405161036491906125a1565b60405180910390f35b34801561037957600080fd5b5061038261172c565b60405161038f91906125a1565b60405180910390f35b3480156103a457600080fd5b506103bf60048036038101906103ba9190612102565b611815565b6040516103cc919061213e565b60405180910390f35b60006020528060005260406000206000915054906101000a900473ffffffffffffffffffffffffffffffffffffffff1681565b600360009054906101000a900473ffffffffffffffffffffffffffffffffffffffff1673ffffffffffffffffffffffffffffffffffffffff163373ffffffffffffffffffffffffffffffffffffffff161461046257600080fd5b600060068381548110610478576104776125c3565b5b90600052602060002090600402019050818160020160009054906101000a900461ffff166104a69190612621565b8160020160006101000a81548161ffff021916908361ffff160217905550505050565b6000600282815481106104df576104de6125c3565b5b906000526020600020906007020190506040518060400160405280600181526020017f300000000000000000000000000000000000000000000000000000000000000081525081600501908051906020019061053c929190611be1565b5060008160060160086101000a81548173ffffffffffffffffffffffffffffffffffffffff021916908373ffffffffffffffffffffffffffffffffffffffff16021790555060018060003373ffffffffffffffffffffffffffffffffffffffff1673ffffffffffffffffffffffffffffffffffffffff168152602001908152602001600020546105cc9190612659565b600160003373ffffffffffffffffffffffffffffffffffffffff1673ffffffffffffffffffffffffffffffffffffffff1681526020019081526020016000208190555060018060003073ffffffffffffffffffffffffffffffffffffffff1673ffffffffffffffffffffffffffffffffffffffff1681526020019081526020016000205461065a91906126af565b600160003073ffffffffffffffffffffffffffffffffffffffff1673ffffffffffffffffffffffffffffffffffffffff168152602001908152602001600020819055503360008084815260200190815260200160002060006101000a81548173ffffffffffffffffffffffffffffffffffffffff021916908373ffffffffffffffffffffffffffffffffffffffff1602179055503373ffffffffffffffffffffffffffffffffffffffff167fe37d189301f8932439394ec9e609cd3ab69ecbd7d0aa80300c172745f644bb0983604051610734919061213e565b60405180910390a25050565b8073ffffffffffffffffffffffffffffffffffffffff166108fc349081150290604051600060405180830381858888f19350505050158015610786573d6000803e3d6000fd5b5060006002848154811061079d5761079c6125c3565b5b90600052602060002090600702019050828160050190805190602001906107c5929190611be1565b5060008160060160086101000a81548173ffffffffffffffffffffffffffffffffffffffff021916908373ffffffffffffffffffffffffffffffffffffffff16021790555060018060003073ffffffffffffffffffffffffffffffffffffffff1673ffffffffffffffffffffffffffffffffffffffff1681526020019081526020016000205461085591906126af565b600160003073ffffffffffffffffffffffffffffffffffffffff1673ffffffffffffffffffffffffffffffffffffffff1681526020019081526020016000208190555060018060003373ffffffffffffffffffffffffffffffffffffffff1673ffffffffffffffffffffffffffffffffffffffff168152602001908152602001600020546108e39190612659565b600160003373ffffffffffffffffffffffffffffffffffffffff1673ffffffffffffffffffffffffffffffffffffffff168152602001908152602001600020819055503360008086815260200190815260200160002060006101000a81548173ffffffffffffffffffffffffffffffffffffffff021916908373ffffffffffffffffffffffffffffffffffffffff1602179055503373ffffffffffffffffffffffffffffffffffffffff168273ffffffffffffffffffffffffffffffffffffffff167f926ba2594b1ec5b8354a72440fd70b44086344abad079f0acb838a52caaa626e86866040516109d69291906126e3565b60405180910390a350505050565b600360009054906101000a900473ffffffffffffffffffffffffffffffffffffffff1673ffffffffffffffffffffffffffffffffffffffff163373ffffffffffffffffffffffffffffffffffffffff1614610a3e57600080fd5b600660405180608001604052808681526020018581526020018460ff1661ffff1681526020018381525090806001815401808255809150506001900390600052602060002090600402016000909190919091506000820151816000019080519060200190610aad929190611be1565b506020820151816001019080519060200190610aca929190611be1565b5060408201518160020160006101000a81548161ffff021916908361ffff1602179055506060820151816003019080519060200190610b0a929190611be1565b50505060006001600680549050610b2191906126af565b9050306004600083815260200190815260200160002060006101000a81548173ffffffffffffffffffffffffffffffffffffffff021916908373ffffffffffffffffffffffffffffffffffffffff1602179055506001600560003073ffffffffffffffffffffffffffffffffffffffff1673ffffffffffffffffffffffffffffffffffffffff16815260200190815260200160002054610bc19190612659565b600560003073ffffffffffffffffffffffffffffffffffffffff1673ffffffffffffffffffffffffffffffffffffffff168152602001908152602001600020819055505050505050565b600060028381548110610c2157610c206125c3565b5b9060005260206000209060070201905081816005019080519060200190610c49929190611be1565b50338160060160086101000a81548173ffffffffffffffffffffffffffffffffffffffff021916908373ffffffffffffffffffffffffffffffffffffffff16021790555060018060003373ffffffffffffffffffffffffffffffffffffffff1673ffffffffffffffffffffffffffffffffffffffff16815260200190815260200160002054610cd891906126af565b600160003373ffffffffffffffffffffffffffffffffffffffff1673ffffffffffffffffffffffffffffffffffffffff1681526020019081526020016000208190555060018060003073ffffffffffffffffffffffffffffffffffffffff1673ffffffffffffffffffffffffffffffffffffffff16815260200190815260200160002054610d669190612659565b600160003073ffffffffffffffffffffffffffffffffffffffff1673ffffffffffffffffffffffffffffffffffffffff168152602001908152602001600020819055503060008085815260200190815260200160002060006101000a81548173ffffffffffffffffffffffffffffffffffffffff021916908373ffffffffffffffffffffffffffffffffffffffff1602179055503373ffffffffffffffffffffffffffffffffffffffff167f6d079126a716903e65e9e1d51154819fe5514fb3e57e084149b0fdb866a7a5358385604051610e42929190612713565b60405180910390a2505050565b60056020528060005260406000206000915090505481565b60068181548110610e7757600080fd5b9060005260206000209060040201600091509050806000018054610e9a90612772565b80601f0160208091040260200160405190810160405280929190818152602001828054610ec690612772565b8015610f135780601f10610ee857610100808354040283529160200191610f13565b820191906000526020600020905b815481529060010190602001808311610ef657829003601f168201915b505050505090806001018054610f2890612772565b80601f0160208091040260200160405190810160405280929190818152602001828054610f5490612772565b8015610fa15780601f10610f7657610100808354040283529160200191610fa1565b820191906000526020600020905b815481529060010190602001808311610f8457829003601f168201915b5050505050908060020160009054906101000a900461ffff1690806003018054610fca90612772565b80601f0160208091040260200160405190810160405280929190818152602001828054610ff690612772565b80156110435780601f1061101857610100808354040283529160200191611043565b820191906000526020600020905b81548152906001019060200180831161102657829003601f168201915b5050505050905084565b600060068481548110611063576110626125c3565b5b9060005260206000209060040201905060018160020160009054906101000a900461ffff1661109291906127a4565b8160020160006101000a81548161ffff021916908361ffff160217905550600360009054906101000a900473ffffffffffffffffffffffffffffffffffffffff1673ffffffffffffffffffffffffffffffffffffffff166108fc349081150290604051600060405180830381858888f19350505050158015611118573d6000803e3d6000fd5b5061116285848460006040518060400160405280600581526020017f636865737400000000000000000000000000000000000000000000000000000081525060008060008061182d565b3373ffffffffffffffffffffffffffffffffffffffff167f2f510ed8afb07edba41c72603aa83c40580b23e7801ab8cfbe2b11c54f3c92d684846040516111aa9291906127d8565b60405180910390a25050505050565b600281815481106111c957600080fd5b90600052602060002090600702016000915090508060000154908060010180546111f290612772565b80601f016020809104026020016040519081016040528092919081815260200182805461121e90612772565b801561126b5780601f106112405761010080835404028352916020019161126b565b820191906000526020600020905b81548152906001019060200180831161124e57829003601f168201915b50505050509080600201805461128090612772565b80601f01602080910402602001604051908101604052809291908181526020018280546112ac90612772565b80156112f95780601f106112ce576101008083540402835291602001916112f9565b820191906000526020600020905b8154815290600101906020018083116112dc57829003601f168201915b5050505050908060030160009054906101000a900461ffff169080600401805461132290612772565b80601f016020809104026020016040519081016040528092919081815260200182805461134e90612772565b801561139b5780601f106113705761010080835404028352916020019161139b565b820191906000526020600020905b81548152906001019060200180831161137e57829003601f168201915b5050505050908060050180546113b090612772565b80601f01602080910402602001604051908101604052809291908181526020018280546113dc90612772565b80156114295780601f106113fe57610100808354040283529160200191611429565b820191906000526020600020905b81548152906001019060200180831161140c57829003601f168201915b5050505050908060060160009054906101000a900461ffff16908060060160029054906101000a900461ffff16908060060160049054906101000a900461ffff16908060060160069054906101000a900461ffff16908060060160089054906101000a900473ffffffffffffffffffffffffffffffffffffffff1690508b565b60046020528060005260406000206000915054906101000a900473ffffffffffffffffffffffffffffffffffffffff1681565b61dead60008083815260200190815260200160002060006101000a81548173ffffffffffffffffffffffffffffffffffffffff021916908373ffffffffffffffffffffffffffffffffffffffff16021790555060018060003373ffffffffffffffffffffffffffffffffffffffff1673ffffffffffffffffffffffffffffffffffffffff1681526020019081526020016000205461157a91906126af565b600160003373ffffffffffffffffffffffffffffffffffffffff1673ffffffffffffffffffffffffffffffffffffffff168152602001908152602001600020819055506115ce8a8a8a8a8a8a8a8a8a61182d565b50505050505050505050565b60606000600160008473ffffffffffffffffffffffffffffffffffffffff1673ffffffffffffffffffffffffffffffffffffffff1681526020019081526020016000205467ffffffffffffffff81111561163757611636611dec565b5b6040519080825280602002602001820160405280156116655781602001602082028036833780820191505090505b5090506000805b600280549050811015611721578473ffffffffffffffffffffffffffffffffffffffff1660008083815260200190815260200160002060009054906101000a900473ffffffffffffffffffffffffffffffffffffffff1673ffffffffffffffffffffffffffffffffffffffff16141561170e57808383815181106116f3576116f26125c3565b5b602002602001018181525050818061170a9061280f565b9250505b80806117199061280f565b91505061166c565b508192505050919050565b60606000600560003073ffffffffffffffffffffffffffffffffffffffff1673ffffffffffffffffffffffffffffffffffffffff1681526020019081526020016000205467ffffffffffffffff81111561178957611788611dec565b5b6040519080825280602002602001820160405280156117b75781602001602082028036833780820191505090505b5090506000805b60068054905081101561180c57808383815181106117df576117de6125c3565b5b60200260200101818152505081806117f69061280f565b92505080806118049061280f565b9150506117be565b50819250505090565b60016020528060005260406000206000915090505481565b60026040518061016001604052808b81526020018a81526020018981526020018861ffff1681526020018781526020016040518060400160405280600181526020017f300000000000000000000000000000000000000000000000000000000000000081525081526020018661ffff1681526020018561ffff1681526020018461ffff1681526020018361ffff168152602001600073ffffffffffffffffffffffffffffffffffffffff16815250908060018154018082558091505060019003906000526020600020906007020160009091909190915060008201518160000155602082015181600101908051906020019061192a929190611be1565b506040820151816002019080519060200190611947929190611be1565b5060608201518160030160006101000a81548161ffff021916908361ffff1602179055506080820151816004019080519060200190611987929190611be1565b5060a08201518160050190805190602001906119a4929190611be1565b5060c08201518160060160006101000a81548161ffff021916908361ffff16021790555060e08201518160060160026101000a81548161ffff021916908361ffff1602179055506101008201518160060160046101000a81548161ffff021916908361ffff1602179055506101208201518160060160066101000a81548161ffff021916908361ffff1602179055506101408201518160060160086101000a81548173ffffffffffffffffffffffffffffffffffffffff021916908373ffffffffffffffffffffffffffffffffffffffff160217905550505060006001600280549050611a9191906126af565b90503360008083815260200190815260200160002060006101000a81548173ffffffffffffffffffffffffffffffffffffffff021916908373ffffffffffffffffffffffffffffffffffffffff16021790555060018060003373ffffffffffffffffffffffffffffffffffffffff1673ffffffffffffffffffffffffffffffffffffffff16815260200190815260200160002054611b2f9190612659565b600160003373ffffffffffffffffffffffffffffffffffffffff1673ffffffffffffffffffffffffffffffffffffffff168152602001908152602001600020819055503373ffffffffffffffffffffffffffffffffffffffff167f1c96bce994b60b1fe458ea8014a92301414266b04928342f4db66060dc8e4e578b838c8c8c8c8c8c8c8c6000604051611bcd9b9a999897969594939291906128a4565b60405180910390a250505050505050505050565b828054611bed90612772565b90600052602060002090601f016020900481019282611c0f5760008555611c56565b82601f10611c2857805160ff1916838001178555611c56565b82800160010185558215611c56579182015b82811115611c55578251825591602001919060010190611c3a565b5b509050611c639190611c67565b5090565b5b80821115611c80576000816000905550600101611c68565b5090565b6000604051905090565b600080fd5b600080fd5b6000819050919050565b611cab81611c98565b8114611cb657600080fd5b50565b600081359050611cc881611ca2565b92915050565b600060208284031215611ce457611ce3611c8e565b5b6000611cf284828501611cb9565b91505092915050565b600073ffffffffffffffffffffffffffffffffffffffff82169050919050565b6000611d2682611cfb565b9050919050565b611d3681611d1b565b82525050565b6000602082019050611d516000830184611d2d565b92915050565b600061ffff82169050919050565b611d6e81611d57565b8114611d7957600080fd5b50565b600081359050611d8b81611d65565b92915050565b60008060408385031215611da857611da7611c8e565b5b6000611db685828601611cb9565b9250506020611dc785828601611d7c565b9150509250929050565b600080fd5b600080fd5b6000601f19601f8301169050919050565b7f4e487b7100000000000000000000000000000000000000000000000000000000600052604160045260246000fd5b611e2482611ddb565b810181811067ffffffffffffffff82111715611e4357611e42611dec565b5b80604052505050565b6000611e56611c84565b9050611e628282611e1b565b919050565b600067ffffffffffffffff821115611e8257611e81611dec565b5b611e8b82611ddb565b9050602081019050919050565b82818337600083830152505050565b6000611eba611eb584611e67565b611e4c565b905082815260208101848484011115611ed657611ed5611dd6565b5b611ee1848285611e98565b509392505050565b600082601f830112611efe57611efd611dd1565b5b8135611f0e848260208601611ea7565b91505092915050565b611f2081611d1b565b8114611f2b57600080fd5b50565b600081359050611f3d81611f17565b92915050565b600080600060608486031215611f5c57611f5b611c8e565b5b6000611f6a86828701611cb9565b935050602084013567ffffffffffffffff811115611f8b57611f8a611c93565b5b611f9786828701611ee9565b9250506040611fa886828701611f2e565b9150509250925092565b600060ff82169050919050565b611fc881611fb2565b8114611fd357600080fd5b50565b600081359050611fe581611fbf565b92915050565b6000806000806080858703121561200557612004611c8e565b5b600085013567ffffffffffffffff81111561202357612022611c93565b5b61202f87828801611ee9565b945050602085013567ffffffffffffffff8111156120505761204f611c93565b5b61205c87828801611ee9565b935050604061206d87828801611fd6565b925050606085013567ffffffffffffffff81111561208e5761208d611c93565b5b61209a87828801611ee9565b91505092959194509250565b600080604083850312156120bd576120bc611c8e565b5b60006120cb85828601611cb9565b925050602083013567ffffffffffffffff8111156120ec576120eb611c93565b5b6120f885828601611ee9565b9150509250929050565b60006020828403121561211857612117611c8e565b5b600061212684828501611f2e565b91505092915050565b61213881611c98565b82525050565b6000602082019050612153600083018461212f565b92915050565b600081519050919050565b600082825260208201905092915050565b60005b83811015612193578082015181840152602081019050612178565b838111156121a2576000848401525b50505050565b60006121b382612159565b6121bd8185612164565b93506121cd818560208601612175565b6121d681611ddb565b840191505092915050565b6121ea81611d57565b82525050565b6000608082019050818103600083015261220a81876121a8565b9050818103602083015261221e81866121a8565b905061222d60408301856121e1565b818103606083015261223f81846121a8565b905095945050505050565b6000806000806080858703121561226457612263611c8e565b5b600061227287828801611cb9565b945050602061228387828801611cb9565b935050604085013567ffffffffffffffff8111156122a4576122a3611c93565b5b6122b087828801611ee9565b925050606085013567ffffffffffffffff8111156122d1576122d0611c93565b5b6122dd87828801611ee9565b91505092959194509250565b6000610160820190506122ff600083018e61212f565b8181036020830152612311818d6121a8565b90508181036040830152612325818c6121a8565b9050612334606083018b6121e1565b8181036080830152612346818a6121a8565b905081810360a083015261235a81896121a8565b905061236960c08301886121e1565b61237660e08301876121e1565b6123846101008301866121e1565b6123926101208301856121e1565b6123a0610140830184611d2d565b9c9b505050505050505050505050565b6000806000806000806000806000806101408b8d0312156123d4576123d3611c8e565b5b60006123e28d828e01611cb9565b9a505060208b013567ffffffffffffffff81111561240357612402611c93565b5b61240f8d828e01611ee9565b99505060408b013567ffffffffffffffff8111156124305761242f611c93565b5b61243c8d828e01611ee9565b985050606061244d8d828e01611d7c565b97505060808b013567ffffffffffffffff81111561246e5761246d611c93565b5b61247a8d828e01611ee9565b96505060a061248b8d828e01611d7c565b95505060c061249c8d828e01611d7c565b94505060e06124ad8d828e01611d7c565b9350506101006124bf8d828e01611d7c565b9250506101206124d18d828e01611cb9565b9150509295989b9194979a5092959850565b600081519050919050565b600082825260208201905092915050565b6000819050602082019050919050565b61251881611c98565b82525050565b600061252a838361250f565b60208301905092915050565b6000602082019050919050565b600061254e826124e3565b61255881856124ee565b9350612563836124ff565b8060005b8381101561259457815161257b888261251e565b975061258683612536565b925050600181019050612567565b5085935050505092915050565b600060208201905081810360008301526125bb8184612543565b905092915050565b7f4e487b7100000000000000000000000000000000000000000000000000000000600052603260045260246000fd5b7f4e487b7100000000000000000000000000000000000000000000000000000000600052601160045260246000fd5b600061262c82611d57565b915061263783611d57565b92508261ffff0382111561264e5761264d6125f2565b5b828201905092915050565b600061266482611c98565b915061266f83611c98565b9250827fffffffffffffffffffffffffffffffffffffffffffffffffffffffffffffffff038211156126a4576126a36125f2565b5b828201905092915050565b60006126ba82611c98565b91506126c583611c98565b9250828210156126d8576126d76125f2565b5b828203905092915050565b60006040820190506126f8600083018561212f565b818103602083015261270a81846121a8565b90509392505050565b6000604082019050818103600083015261272d81856121a8565b905061273c602083018461212f565b9392505050565b7f4e487b7100000000000000000000000000000000000000000000000000000000600052602260045260246000fd5b6000600282049050600182168061278a57607f821691505b6020821081141561279e5761279d612743565b5b50919050565b60006127af82611d57565b91506127ba83611d57565b9250828210156127cd576127cc6125f2565b5b828203905092915050565b600060408201905081810360008301526127f281856121a8565b9050818103602083015261280681846121a8565b90509392505050565b600061281a82611c98565b91507fffffffffffffffffffffffffffffffffffffffffffffffffffffffffffffffff82141561284d5761284c6125f2565b5b600182019050919050565b7f3000000000000000000000000000000000000000000000000000000000000000600082015250565b600061288e600183612164565b915061289982612858565b602082019050919050565b6000610180820190506128ba600083018e61212f565b6128c7602083018d61212f565b81810360408301526128d9818c6121a8565b905081810360608301526128ed818b6121a8565b90506128fc608083018a6121e1565b81810360a083015261290e81896121a8565b905081810360c083015261292181612881565b905061293060e08301886121e1565b61293e6101008301876121e1565b61294c6101208301866121e1565b61295a6101408301856121e1565b612968610160830184611d2d565b9c9b50505050505050505050505056fea26469706673582212201b1aafde1d8d7759d2552815f6800d0db6aff6a4f0cf179a92ba26738bfa275d64736f6c634300080a0033",
  "immutableReferences": {},
  "source": "// SPDX-License-Identifier: MIT\npragma solidity >=0.4.22 <0.9.0;\nimport \"./NFT.sol\";\n\ncontract RandomBox is NFT {\n    address private owner;\n    struct info_randomBox {\n        string name;\n        string price;\n        uint16 count;\n        string picture;\n    }\n\n    constructor() {\n        owner = msg.sender;\n    }\n\n    event BuyRandomBox(address indexed _to, string name, string picture);\n    event OpenRandomBox(address indexed from, uint256 indexNFT);\n    mapping(uint256 => address) public randomBoxToContractAddress;\n    mapping(address => uint256) public ContractAddressRandomBoxCount;\n    info_randomBox[] public box;\n\n    modifier is_user() {\n        if (msg.sender != owner) _;\n    }\n\n    function _mintRandomBox(\n        string memory _name,\n        string memory _price,\n        uint8 _count,\n        string memory _picture\n    ) public {\n        require(msg.sender == owner);\n        box.push(info_randomBox(_name, _price, _count, _picture));\n        uint256 id = box.length - 1;\n        randomBoxToContractAddress[id] = address(this);\n        ContractAddressRandomBoxCount[address(this)] =\n            ContractAddressRandomBoxCount[address(this)] +\n            1;\n    }\n\n    function _addCountRandomBox(uint256 _indexRandomBox, uint16 count) public {\n        require(msg.sender == owner);\n        info_randomBox storage randomBox = box[_indexRandomBox];\n        randomBox.count = randomBox.count + count;\n    }\n\n    function _getRandomBox() public view returns (uint256[] memory) {\n        uint256[] memory result = new uint256[](\n            ContractAddressRandomBoxCount[address(this)]\n        );\n        uint256 counter = 0;\n        for (uint256 i = 0; i < box.length; i++) {\n            result[counter] = i;\n            counter++;\n        }\n        return result;\n    }\n\n    function _buyRandomBox(\n        uint256 _nft_id,\n        uint256 _indexRandomBox,\n        string memory _name,\n        string memory _picture\n    ) public payable {\n        info_randomBox storage randomBox = box[_indexRandomBox];\n        randomBox.count = randomBox.count - 1;\n        payable(owner).transfer(msg.value);\n        _craftNFT(_nft_id, _name, _picture, 0, \"chest\", 0, 0, 0, 0);\n        emit BuyRandomBox(msg.sender, _name, _picture);\n    }\n\n    function _openRandomBox(\n        uint256 _nft_id,\n        string memory _name,\n        string memory _picture,\n        uint16 _reward,\n        string memory _type_nft,\n        uint16 _cost_wood,\n        uint16 _cost_fruit,\n        uint16 _energy_consumed,\n        uint16 _amount_food,\n        uint256 _indexRandomBox\n    ) public {\n        ownerNft[_indexRandomBox] = 0x000000000000000000000000000000000000dEaD;\n        ownerNFTCount[msg.sender] = ownerNFTCount[msg.sender] - 1;\n        _craftNFT(\n            _nft_id,\n            _name,\n            _picture,\n            _reward,\n            _type_nft,\n            _cost_wood,\n            _cost_fruit,\n            _energy_consumed,\n            _amount_food\n        );\n    }\n}\n",
  "sourcePath": "/Users/komsark/Final-Project/farm-souvirniors-web/contracts/RandomBox.sol",
  "compiler": {
    "name": "solc",
    "version": "0.8.10+commit.fc410830.Emscripten.clang"
  },
  "schemaVersion": "3.4.4",
  "updatedAt": "2022-03-07T18:20:29.775Z",
  "networkType": "ethereum",
  "devdoc": {
    "kind": "dev",
    "methods": {},
    "version": 1
  },
  "userdoc": {
    "kind": "user",
    "methods": {},
    "version": 1
  }
}