{
  "contractName": "RandomBox",
  "abi": [
    {
      "inputs": [],
      "stateMutability": "nonpayable",
      "type": "constructor"
    },
    {
      "anonymous": false,
      "inputs": [
        {
          "indexed": true,
          "internalType": "address",
          "name": "from",
          "type": "address"
        },
        {
          "indexed": true,
          "internalType": "address",
          "name": "to",
          "type": "address"
        },
        {
          "indexed": false,
          "internalType": "uint256",
          "name": "indexNFT",
          "type": "uint256"
        },
        {
          "indexed": false,
          "internalType": "string",
          "name": "price",
          "type": "string"
        }
      ],
      "name": "BuyNFT",
      "type": "event"
    },
    {
      "anonymous": false,
      "inputs": [
        {
          "indexed": true,
          "internalType": "address",
          "name": "_to",
          "type": "address"
        },
        {
          "indexed": false,
          "internalType": "string",
          "name": "name",
          "type": "string"
        },
        {
          "indexed": false,
          "internalType": "string",
          "name": "picture",
          "type": "string"
        },
        {
          "indexed": false,
          "internalType": "uint256",
          "name": "indexNFT",
          "type": "uint256"
        }
      ],
      "name": "BuyRandomBox",
      "type": "event"
    },
    {
      "anonymous": false,
      "inputs": [
        {
          "indexed": true,
          "internalType": "address",
          "name": "from",
          "type": "address"
        },
        {
          "indexed": false,
          "internalType": "uint256",
          "name": "indexNFT",
          "type": "uint256"
        }
      ],
      "name": "CancleNFT",
      "type": "event"
    },
    {
      "anonymous": false,
      "inputs": [
        {
          "indexed": true,
          "internalType": "address",
          "name": "to",
          "type": "address"
        },
        {
          "indexed": false,
          "internalType": "uint256",
          "name": "nft_id",
          "type": "uint256"
        },
        {
          "indexed": false,
          "internalType": "uint256",
          "name": "indexNFT",
          "type": "uint256"
        },
        {
          "indexed": false,
          "internalType": "string",
          "name": "name",
          "type": "string"
        },
        {
          "indexed": false,
          "internalType": "string",
          "name": "picture",
          "type": "string"
        },
        {
          "indexed": false,
          "internalType": "uint16",
          "name": "reward",
          "type": "uint16"
        },
        {
          "indexed": false,
          "internalType": "string",
          "name": "type_nft",
          "type": "string"
        },
        {
          "indexed": false,
          "internalType": "string",
          "name": "price",
          "type": "string"
        },
        {
          "indexed": false,
          "internalType": "uint16",
          "name": "cost_wood",
          "type": "uint16"
        },
        {
          "indexed": false,
          "internalType": "uint16",
          "name": "cost_fruit",
          "type": "uint16"
        },
        {
          "indexed": false,
          "internalType": "uint16",
          "name": "energy_consumed",
          "type": "uint16"
        },
        {
          "indexed": false,
          "internalType": "uint16",
          "name": "amount_food",
          "type": "uint16"
        },
        {
          "indexed": false,
          "internalType": "address",
          "name": "seller",
          "type": "address"
        }
      ],
      "name": "CraftNFT",
      "type": "event"
    },
    {
      "anonymous": false,
      "inputs": [
        {
          "indexed": true,
          "internalType": "address",
          "name": "from",
          "type": "address"
        },
        {
          "indexed": false,
          "internalType": "uint256",
          "name": "indexNFT",
          "type": "uint256"
        }
      ],
      "name": "OpenRandomBox",
      "type": "event"
    },
    {
      "anonymous": false,
      "inputs": [
        {
          "indexed": true,
          "internalType": "address",
          "name": "from",
          "type": "address"
        },
        {
          "indexed": false,
          "internalType": "string",
          "name": "price",
          "type": "string"
        },
        {
          "indexed": false,
          "internalType": "uint256",
          "name": "indexNFT",
          "type": "uint256"
        }
      ],
      "name": "SellNFT",
      "type": "event"
    },
    {
      "inputs": [
        {
          "internalType": "address",
          "name": "",
          "type": "address"
        }
      ],
      "name": "ContractAddressRandomBoxCount",
      "outputs": [
        {
          "internalType": "uint256",
          "name": "",
          "type": "uint256"
        }
      ],
      "stateMutability": "view",
      "type": "function",
      "constant": true
    },
    {
      "inputs": [
        {
          "internalType": "uint256",
          "name": "",
          "type": "uint256"
        }
      ],
      "name": "box",
      "outputs": [
        {
          "internalType": "string",
          "name": "name",
          "type": "string"
        },
        {
          "internalType": "string",
          "name": "price",
          "type": "string"
        },
        {
          "internalType": "uint16",
          "name": "count",
          "type": "uint16"
        },
        {
          "internalType": "string",
          "name": "picture",
          "type": "string"
        }
      ],
      "stateMutability": "view",
      "type": "function",
      "constant": true
    },
    {
      "inputs": [
        {
          "internalType": "uint256",
          "name": "_indexNFT",
          "type": "uint256"
        },
        {
          "internalType": "string",
          "name": "_price",
          "type": "string"
        },
        {
          "internalType": "address",
          "name": "seller",
          "type": "address"
        }
      ],
      "name": "buyNFT",
      "outputs": [],
      "stateMutability": "payable",
      "type": "function",
      "payable": true
    },
    {
      "inputs": [
        {
          "internalType": "uint256",
          "name": "_indexNFT",
          "type": "uint256"
        }
      ],
      "name": "cancleNFT",
      "outputs": [],
      "stateMutability": "nonpayable",
      "type": "function"
    },
    {
      "inputs": [
        {
          "internalType": "address",
          "name": "_owner",
          "type": "address"
        }
      ],
      "name": "getNFTByOwner",
      "outputs": [
        {
          "internalType": "uint256[]",
          "name": "",
          "type": "uint256[]"
        }
      ],
      "stateMutability": "view",
      "type": "function",
      "constant": true
    },
    {
      "inputs": [
        {
          "internalType": "uint256",
          "name": "",
          "type": "uint256"
        }
      ],
      "name": "nft",
      "outputs": [
        {
          "internalType": "uint256",
          "name": "nft_id",
          "type": "uint256"
        },
        {
          "internalType": "string",
          "name": "name",
          "type": "string"
        },
        {
          "internalType": "string",
          "name": "picture",
          "type": "string"
        },
        {
          "internalType": "uint16",
          "name": "reward",
          "type": "uint16"
        },
        {
          "internalType": "string",
          "name": "type_nft",
          "type": "string"
        },
        {
          "internalType": "string",
          "name": "price",
          "type": "string"
        },
        {
          "internalType": "uint16",
          "name": "cost_wood",
          "type": "uint16"
        },
        {
          "internalType": "uint16",
          "name": "cost_fruit",
          "type": "uint16"
        },
        {
          "internalType": "uint16",
          "name": "energy_consumed",
          "type": "uint16"
        },
        {
          "internalType": "uint16",
          "name": "amount_food",
          "type": "uint16"
        },
        {
          "internalType": "address",
          "name": "seller",
          "type": "address"
        }
      ],
      "stateMutability": "view",
      "type": "function",
      "constant": true
    },
    {
      "inputs": [
        {
          "internalType": "uint256",
          "name": "",
          "type": "uint256"
        }
      ],
      "name": "randomBoxToContractAddress",
      "outputs": [
        {
          "internalType": "address",
          "name": "",
          "type": "address"
        }
      ],
      "stateMutability": "view",
      "type": "function",
      "constant": true
    },
    {
      "inputs": [
        {
          "internalType": "uint256",
          "name": "_indexNFT",
          "type": "uint256"
        },
        {
          "internalType": "string",
          "name": "_price",
          "type": "string"
        }
      ],
      "name": "sellNFT",
      "outputs": [],
      "stateMutability": "nonpayable",
      "type": "function"
    },
    {
      "inputs": [
        {
          "internalType": "string",
          "name": "_name",
          "type": "string"
        },
        {
          "internalType": "string",
          "name": "_price",
          "type": "string"
        },
        {
          "internalType": "uint8",
          "name": "_count",
          "type": "uint8"
        },
        {
          "internalType": "string",
          "name": "_picture",
          "type": "string"
        }
      ],
      "name": "_mintRandomBox",
      "outputs": [],
      "stateMutability": "nonpayable",
      "type": "function"
    },
    {
      "inputs": [
        {
          "internalType": "uint256",
          "name": "_indexRandomBox",
          "type": "uint256"
        },
        {
          "internalType": "uint16",
          "name": "count",
          "type": "uint16"
        }
      ],
      "name": "_addCountRandomBox",
      "outputs": [],
      "stateMutability": "nonpayable",
      "type": "function"
    },
    {
      "inputs": [],
      "name": "_getRandomBox",
      "outputs": [
        {
          "internalType": "uint256[]",
          "name": "",
          "type": "uint256[]"
        }
      ],
      "stateMutability": "view",
      "type": "function",
      "constant": true
    },
    {
      "inputs": [
        {
          "internalType": "uint256",
          "name": "_nft_id",
          "type": "uint256"
        },
        {
          "internalType": "uint256",
          "name": "_indexRandomBox",
          "type": "uint256"
        },
        {
          "internalType": "string",
          "name": "_name",
          "type": "string"
        },
        {
          "internalType": "string",
          "name": "_picture",
          "type": "string"
        }
      ],
      "name": "_buyRandomBox",
      "outputs": [],
      "stateMutability": "payable",
      "type": "function",
      "payable": true
    },
    {
      "inputs": [
        {
          "internalType": "uint256",
          "name": "_nft_id",
          "type": "uint256"
        },
        {
          "internalType": "string",
          "name": "_name",
          "type": "string"
        },
        {
          "internalType": "string",
          "name": "_picture",
          "type": "string"
        },
        {
          "internalType": "uint16",
          "name": "_reward",
          "type": "uint16"
        },
        {
          "internalType": "string",
          "name": "_type_nft",
          "type": "string"
        },
        {
          "internalType": "uint16",
          "name": "_cost_wood",
          "type": "uint16"
        },
        {
          "internalType": "uint16",
          "name": "_cost_fruit",
          "type": "uint16"
        },
        {
          "internalType": "uint16",
          "name": "_energy_consumed",
          "type": "uint16"
        },
        {
          "internalType": "uint16",
          "name": "_amount_food",
          "type": "uint16"
        },
        {
          "internalType": "uint256",
          "name": "_indexRandomBox",
          "type": "uint256"
        }
      ],
      "name": "_openRandomBox",
      "outputs": [],
      "stateMutability": "nonpayable",
      "type": "function"
    }
  ],
  "bytecode": "0x608060405234801561001057600080fd5b5033600360006101000a81548173ffffffffffffffffffffffffffffffffffffffff021916908373ffffffffffffffffffffffffffffffffffffffff160217905550612a75806100616000396000f3fe6080604052600436106100c25760003560e01c80636ca21b951161007f578063af99789411610059578063af99789414610267578063b0ba6d56146102a4578063cb0c14c4146102cd578063d28e7a221461030a576100c2565b80636ca21b95146101c45780639a922345146102045780639d0214cb14610220576100c2565b806323063502146100c7578063349d595f146100f057806335cc06e31461011957806344b2a25b1461013557806362cb9fa41461015e578063669787c214610187575b600080fd5b3480156100d357600080fd5b506100ee60048036038101906100e99190611dc1565b610335565b005b3480156100fc57600080fd5b5061011760048036038101906101129190611e01565b6103f6565b005b610133600480360381019061012e9190611fd2565b61066d565b005b34801561014157600080fd5b5061015c6004803603810190610157919061207a565b610911565b005b34801561016a57600080fd5b5061018560048036038101906101809190612135565b610b38565b005b34801561019357600080fd5b506101ae60048036038101906101a99190612191565b610d7c565b6040516101bb91906121cd565b60405180910390f35b3480156101d057600080fd5b506101eb60048036038101906101e69190611e01565b610d94565b6040516101fb949392919061227f565b60405180910390f35b61021e600480360381019061021991906122d9565b610f7a565b005b34801561022c57600080fd5b5061024760048036038101906102429190611e01565b611234565b60405161025e9b9a99989796959493929190612387565b60405180910390f35b34801561027357600080fd5b5061028e60048036038101906102899190611e01565b611524565b60405161029b919061244e565b60405180910390f35b3480156102b057600080fd5b506102cb60048036038101906102c69190612469565b611557565b005b3480156102d957600080fd5b506102f460048036038101906102ef9190612191565b6116ab565b604051610301919061265a565b60405180910390f35b34801561031657600080fd5b5061031f6117fd565b60405161032c919061265a565b60405180910390f35b600360009054906101000a900473ffffffffffffffffffffffffffffffffffffffff1673ffffffffffffffffffffffffffffffffffffffff163373ffffffffffffffffffffffffffffffffffffffff161461038f57600080fd5b6000600683815481106103a5576103a461267c565b5b90600052602060002090600402019050818160020160009054906101000a900461ffff166103d391906126da565b8160020160006101000a81548161ffff021916908361ffff160217905550505050565b60006002828154811061040c5761040b61267c565b5b906000526020600020906007020190506040518060400160405280600181526020017f3000000000000000000000000000000000000000000000000000000000000000815250816005019080519060200190610469929190611c9a565b5060008160060160086101000a81548173ffffffffffffffffffffffffffffffffffffffff021916908373ffffffffffffffffffffffffffffffffffffffff16021790555060018060003373ffffffffffffffffffffffffffffffffffffffff1673ffffffffffffffffffffffffffffffffffffffff168152602001908152602001600020546104f99190612712565b600160003373ffffffffffffffffffffffffffffffffffffffff1673ffffffffffffffffffffffffffffffffffffffff1681526020019081526020016000208190555060018060003073ffffffffffffffffffffffffffffffffffffffff1673ffffffffffffffffffffffffffffffffffffffff168152602001908152602001600020546105879190612768565b600160003073ffffffffffffffffffffffffffffffffffffffff1673ffffffffffffffffffffffffffffffffffffffff168152602001908152602001600020819055503360008084815260200190815260200160002060006101000a81548173ffffffffffffffffffffffffffffffffffffffff021916908373ffffffffffffffffffffffffffffffffffffffff1602179055503373ffffffffffffffffffffffffffffffffffffffff167fe37d189301f8932439394ec9e609cd3ab69ecbd7d0aa80300c172745f644bb098360405161066191906121cd565b60405180910390a25050565b8073ffffffffffffffffffffffffffffffffffffffff166108fc349081150290604051600060405180830381858888f193505050501580156106b3573d6000803e3d6000fd5b506000600284815481106106ca576106c961267c565b5b90600052602060002090600702019050828160050190805190602001906106f2929190611c9a565b5060008160060160086101000a81548173ffffffffffffffffffffffffffffffffffffffff021916908373ffffffffffffffffffffffffffffffffffffffff16021790555060018060003073ffffffffffffffffffffffffffffffffffffffff1673ffffffffffffffffffffffffffffffffffffffff168152602001908152602001600020546107829190612768565b600160003073ffffffffffffffffffffffffffffffffffffffff1673ffffffffffffffffffffffffffffffffffffffff1681526020019081526020016000208190555060018060003373ffffffffffffffffffffffffffffffffffffffff1673ffffffffffffffffffffffffffffffffffffffff168152602001908152602001600020546108109190612712565b600160003373ffffffffffffffffffffffffffffffffffffffff1673ffffffffffffffffffffffffffffffffffffffff168152602001908152602001600020819055503360008086815260200190815260200160002060006101000a81548173ffffffffffffffffffffffffffffffffffffffff021916908373ffffffffffffffffffffffffffffffffffffffff1602179055503373ffffffffffffffffffffffffffffffffffffffff168273ffffffffffffffffffffffffffffffffffffffff167f926ba2594b1ec5b8354a72440fd70b44086344abad079f0acb838a52caaa626e868660405161090392919061279c565b60405180910390a350505050565b600360009054906101000a900473ffffffffffffffffffffffffffffffffffffffff1673ffffffffffffffffffffffffffffffffffffffff163373ffffffffffffffffffffffffffffffffffffffff161461096b57600080fd5b600660405180608001604052808681526020018581526020018460ff1661ffff16815260200183815250908060018154018082558091505060019003906000526020600020906004020160009091909190915060008201518160000190805190602001906109da929190611c9a565b5060208201518160010190805190602001906109f7929190611c9a565b5060408201518160020160006101000a81548161ffff021916908361ffff1602179055506060820151816003019080519060200190610a37929190611c9a565b50505060006001600680549050610a4e9190612768565b9050306004600083815260200190815260200160002060006101000a81548173ffffffffffffffffffffffffffffffffffffffff021916908373ffffffffffffffffffffffffffffffffffffffff1602179055506001600560003073ffffffffffffffffffffffffffffffffffffffff1673ffffffffffffffffffffffffffffffffffffffff16815260200190815260200160002054610aee9190612712565b600560003073ffffffffffffffffffffffffffffffffffffffff1673ffffffffffffffffffffffffffffffffffffffff168152602001908152602001600020819055505050505050565b600060028381548110610b4e57610b4d61267c565b5b9060005260206000209060070201905081816005019080519060200190610b76929190611c9a565b50338160060160086101000a81548173ffffffffffffffffffffffffffffffffffffffff021916908373ffffffffffffffffffffffffffffffffffffffff16021790555060018060003373ffffffffffffffffffffffffffffffffffffffff1673ffffffffffffffffffffffffffffffffffffffff16815260200190815260200160002054610c059190612768565b600160003373ffffffffffffffffffffffffffffffffffffffff1673ffffffffffffffffffffffffffffffffffffffff1681526020019081526020016000208190555060018060003073ffffffffffffffffffffffffffffffffffffffff1673ffffffffffffffffffffffffffffffffffffffff16815260200190815260200160002054610c939190612712565b600160003073ffffffffffffffffffffffffffffffffffffffff1673ffffffffffffffffffffffffffffffffffffffff168152602001908152602001600020819055503060008085815260200190815260200160002060006101000a81548173ffffffffffffffffffffffffffffffffffffffff021916908373ffffffffffffffffffffffffffffffffffffffff1602179055503373ffffffffffffffffffffffffffffffffffffffff167f6d079126a716903e65e9e1d51154819fe5514fb3e57e084149b0fdb866a7a5358385604051610d6f9291906127cc565b60405180910390a2505050565b60056020528060005260406000206000915090505481565b60068181548110610da457600080fd5b9060005260206000209060040201600091509050806000018054610dc79061282b565b80601f0160208091040260200160405190810160405280929190818152602001828054610df39061282b565b8015610e405780601f10610e1557610100808354040283529160200191610e40565b820191906000526020600020905b815481529060010190602001808311610e2357829003601f168201915b505050505090806001018054610e559061282b565b80601f0160208091040260200160405190810160405280929190818152602001828054610e819061282b565b8015610ece5780601f10610ea357610100808354040283529160200191610ece565b820191906000526020600020905b815481529060010190602001808311610eb157829003601f168201915b5050505050908060020160009054906101000a900461ffff1690806003018054610ef79061282b565b80601f0160208091040260200160405190810160405280929190818152602001828054610f239061282b565b8015610f705780601f10610f4557610100808354040283529160200191610f70565b820191906000526020600020905b815481529060010190602001808311610f5357829003601f168201915b5050505050905084565b600360009054906101000a900473ffffffffffffffffffffffffffffffffffffffff1673ffffffffffffffffffffffffffffffffffffffff163373ffffffffffffffffffffffffffffffffffffffff161461122e5761101884838360006040518060400160405280600581526020017f63686573740000000000000000000000000000000000000000000000000000008152506000806000806118e6565b6000600160028054905061102c9190612768565b90503360008083815260200190815260200160002060006101000a81548173ffffffffffffffffffffffffffffffffffffffff021916908373ffffffffffffffffffffffffffffffffffffffff16021790555060018060003373ffffffffffffffffffffffffffffffffffffffff1673ffffffffffffffffffffffffffffffffffffffff168152602001908152602001600020546110ca9190612712565b600160003373ffffffffffffffffffffffffffffffffffffffff1673ffffffffffffffffffffffffffffffffffffffff168152602001908152602001600020819055506000600685815481106111235761112261267c565b5b9060005260206000209060040201905060018160020160009054906101000a900461ffff16611152919061285d565b8160020160006101000a81548161ffff021916908361ffff160217905550600360009054906101000a900473ffffffffffffffffffffffffffffffffffffffff1673ffffffffffffffffffffffffffffffffffffffff166108fc349081150290604051600060405180830381858888f193505050501580156111d8573d6000803e3d6000fd5b503373ffffffffffffffffffffffffffffffffffffffff167fb1d3cb0374852cdfa1c31b4f9c30b618c2089406ab5604396803f2a75951054485858560405161122393929190612891565b60405180910390a250505b50505050565b6002818154811061124457600080fd5b906000526020600020906007020160009150905080600001549080600101805461126d9061282b565b80601f01602080910402602001604051908101604052809291908181526020018280546112999061282b565b80156112e65780601f106112bb576101008083540402835291602001916112e6565b820191906000526020600020905b8154815290600101906020018083116112c957829003601f168201915b5050505050908060020180546112fb9061282b565b80601f01602080910402602001604051908101604052809291908181526020018280546113279061282b565b80156113745780601f1061134957610100808354040283529160200191611374565b820191906000526020600020905b81548152906001019060200180831161135757829003601f168201915b5050505050908060030160009054906101000a900461ffff169080600401805461139d9061282b565b80601f01602080910402602001604051908101604052809291908181526020018280546113c99061282b565b80156114165780601f106113eb57610100808354040283529160200191611416565b820191906000526020600020905b8154815290600101906020018083116113f957829003601f168201915b50505050509080600501805461142b9061282b565b80601f01602080910402602001604051908101604052809291908181526020018280546114579061282b565b80156114a45780601f10611479576101008083540402835291602001916114a4565b820191906000526020600020905b81548152906001019060200180831161148757829003601f168201915b5050505050908060060160009054906101000a900461ffff16908060060160029054906101000a900461ffff16908060060160049054906101000a900461ffff16908060060160069054906101000a900461ffff16908060060160089054906101000a900473ffffffffffffffffffffffffffffffffffffffff1690508b565b60046020528060005260406000206000915054906101000a900473ffffffffffffffffffffffffffffffffffffffff1681565b600360009054906101000a900473ffffffffffffffffffffffffffffffffffffffff1673ffffffffffffffffffffffffffffffffffffffff163373ffffffffffffffffffffffffffffffffffffffff161461169f5761dead60008083815260200190815260200160002060006101000a81548173ffffffffffffffffffffffffffffffffffffffff021916908373ffffffffffffffffffffffffffffffffffffffff16021790555060018060003373ffffffffffffffffffffffffffffffffffffffff1673ffffffffffffffffffffffffffffffffffffffff1681526020019081526020016000205461164a9190612768565b600160003373ffffffffffffffffffffffffffffffffffffffff1673ffffffffffffffffffffffffffffffffffffffff1681526020019081526020016000208190555061169e8a8a8a8a8a8a8a8a8a6118e6565b5b50505050505050505050565b60606000600160008473ffffffffffffffffffffffffffffffffffffffff1673ffffffffffffffffffffffffffffffffffffffff1681526020019081526020016000205467ffffffffffffffff81111561170857611707611e49565b5b6040519080825280602002602001820160405280156117365781602001602082028036833780820191505090505b5090506000805b6002805490508110156117f2578473ffffffffffffffffffffffffffffffffffffffff1660008083815260200190815260200160002060009054906101000a900473ffffffffffffffffffffffffffffffffffffffff1673ffffffffffffffffffffffffffffffffffffffff1614156117df57808383815181106117c4576117c361267c565b5b60200260200101818152505081806117db906128d6565b9250505b80806117ea906128d6565b91505061173d565b508192505050919050565b60606000600560003073ffffffffffffffffffffffffffffffffffffffff1673ffffffffffffffffffffffffffffffffffffffff1681526020019081526020016000205467ffffffffffffffff81111561185a57611859611e49565b5b6040519080825280602002602001820160405280156118885781602001602082028036833780820191505090505b5090506000805b6006805490508110156118dd57808383815181106118b0576118af61267c565b5b60200260200101818152505081806118c7906128d6565b92505080806118d5906128d6565b91505061188f565b50819250505090565b60026040518061016001604052808b81526020018a81526020018981526020018861ffff1681526020018781526020016040518060400160405280600181526020017f300000000000000000000000000000000000000000000000000000000000000081525081526020018661ffff1681526020018561ffff1681526020018461ffff1681526020018361ffff168152602001600073ffffffffffffffffffffffffffffffffffffffff1681525090806001815401808255809150506001900390600052602060002090600702016000909190919091506000820151816000015560208201518160010190805190602001906119e3929190611c9a565b506040820151816002019080519060200190611a00929190611c9a565b5060608201518160030160006101000a81548161ffff021916908361ffff1602179055506080820151816004019080519060200190611a40929190611c9a565b5060a0820151816005019080519060200190611a5d929190611c9a565b5060c08201518160060160006101000a81548161ffff021916908361ffff16021790555060e08201518160060160026101000a81548161ffff021916908361ffff1602179055506101008201518160060160046101000a81548161ffff021916908361ffff1602179055506101208201518160060160066101000a81548161ffff021916908361ffff1602179055506101408201518160060160086101000a81548173ffffffffffffffffffffffffffffffffffffffff021916908373ffffffffffffffffffffffffffffffffffffffff160217905550505060006001600280549050611b4a9190612768565b90503360008083815260200190815260200160002060006101000a81548173ffffffffffffffffffffffffffffffffffffffff021916908373ffffffffffffffffffffffffffffffffffffffff16021790555060018060003373ffffffffffffffffffffffffffffffffffffffff1673ffffffffffffffffffffffffffffffffffffffff16815260200190815260200160002054611be89190612712565b600160003373ffffffffffffffffffffffffffffffffffffffff1673ffffffffffffffffffffffffffffffffffffffff168152602001908152602001600020819055503373ffffffffffffffffffffffffffffffffffffffff167f1c96bce994b60b1fe458ea8014a92301414266b04928342f4db66060dc8e4e578b838c8c8c8c8c8c8c8c6000604051611c869b9a9998979695949392919061296b565b60405180910390a250505050505050505050565b828054611ca69061282b565b90600052602060002090601f016020900481019282611cc85760008555611d0f565b82601f10611ce157805160ff1916838001178555611d0f565b82800160010185558215611d0f579182015b82811115611d0e578251825591602001919060010190611cf3565b5b509050611d1c9190611d20565b5090565b5b80821115611d39576000816000905550600101611d21565b5090565b6000604051905090565b600080fd5b600080fd5b6000819050919050565b611d6481611d51565b8114611d6f57600080fd5b50565b600081359050611d8181611d5b565b92915050565b600061ffff82169050919050565b611d9e81611d87565b8114611da957600080fd5b50565b600081359050611dbb81611d95565b92915050565b60008060408385031215611dd857611dd7611d47565b5b6000611de685828601611d72565b9250506020611df785828601611dac565b9150509250929050565b600060208284031215611e1757611e16611d47565b5b6000611e2584828501611d72565b91505092915050565b600080fd5b600080fd5b6000601f19601f8301169050919050565b7f4e487b7100000000000000000000000000000000000000000000000000000000600052604160045260246000fd5b611e8182611e38565b810181811067ffffffffffffffff82111715611ea057611e9f611e49565b5b80604052505050565b6000611eb3611d3d565b9050611ebf8282611e78565b919050565b600067ffffffffffffffff821115611edf57611ede611e49565b5b611ee882611e38565b9050602081019050919050565b82818337600083830152505050565b6000611f17611f1284611ec4565b611ea9565b905082815260208101848484011115611f3357611f32611e33565b5b611f3e848285611ef5565b509392505050565b600082601f830112611f5b57611f5a611e2e565b5b8135611f6b848260208601611f04565b91505092915050565b600073ffffffffffffffffffffffffffffffffffffffff82169050919050565b6000611f9f82611f74565b9050919050565b611faf81611f94565b8114611fba57600080fd5b50565b600081359050611fcc81611fa6565b92915050565b600080600060608486031215611feb57611fea611d47565b5b6000611ff986828701611d72565b935050602084013567ffffffffffffffff81111561201a57612019611d4c565b5b61202686828701611f46565b925050604061203786828701611fbd565b9150509250925092565b600060ff82169050919050565b61205781612041565b811461206257600080fd5b50565b6000813590506120748161204e565b92915050565b6000806000806080858703121561209457612093611d47565b5b600085013567ffffffffffffffff8111156120b2576120b1611d4c565b5b6120be87828801611f46565b945050602085013567ffffffffffffffff8111156120df576120de611d4c565b5b6120eb87828801611f46565b93505060406120fc87828801612065565b925050606085013567ffffffffffffffff81111561211d5761211c611d4c565b5b61212987828801611f46565b91505092959194509250565b6000806040838503121561214c5761214b611d47565b5b600061215a85828601611d72565b925050602083013567ffffffffffffffff81111561217b5761217a611d4c565b5b61218785828601611f46565b9150509250929050565b6000602082840312156121a7576121a6611d47565b5b60006121b584828501611fbd565b91505092915050565b6121c781611d51565b82525050565b60006020820190506121e260008301846121be565b92915050565b600081519050919050565b600082825260208201905092915050565b60005b83811015612222578082015181840152602081019050612207565b83811115612231576000848401525b50505050565b6000612242826121e8565b61224c81856121f3565b935061225c818560208601612204565b61226581611e38565b840191505092915050565b61227981611d87565b82525050565b600060808201905081810360008301526122998187612237565b905081810360208301526122ad8186612237565b90506122bc6040830185612270565b81810360608301526122ce8184612237565b905095945050505050565b600080600080608085870312156122f3576122f2611d47565b5b600061230187828801611d72565b945050602061231287828801611d72565b935050604085013567ffffffffffffffff81111561233357612332611d4c565b5b61233f87828801611f46565b925050606085013567ffffffffffffffff8111156123605761235f611d4c565b5b61236c87828801611f46565b91505092959194509250565b61238181611f94565b82525050565b60006101608201905061239d600083018e6121be565b81810360208301526123af818d612237565b905081810360408301526123c3818c612237565b90506123d2606083018b612270565b81810360808301526123e4818a612237565b905081810360a08301526123f88189612237565b905061240760c0830188612270565b61241460e0830187612270565b612422610100830186612270565b612430610120830185612270565b61243e610140830184612378565b9c9b505050505050505050505050565b60006020820190506124636000830184612378565b92915050565b6000806000806000806000806000806101408b8d03121561248d5761248c611d47565b5b600061249b8d828e01611d72565b9a505060208b013567ffffffffffffffff8111156124bc576124bb611d4c565b5b6124c88d828e01611f46565b99505060408b013567ffffffffffffffff8111156124e9576124e8611d4c565b5b6124f58d828e01611f46565b98505060606125068d828e01611dac565b97505060808b013567ffffffffffffffff81111561252757612526611d4c565b5b6125338d828e01611f46565b96505060a06125448d828e01611dac565b95505060c06125558d828e01611dac565b94505060e06125668d828e01611dac565b9350506101006125788d828e01611dac565b92505061012061258a8d828e01611d72565b9150509295989b9194979a5092959850565b600081519050919050565b600082825260208201905092915050565b6000819050602082019050919050565b6125d181611d51565b82525050565b60006125e383836125c8565b60208301905092915050565b6000602082019050919050565b60006126078261259c565b61261181856125a7565b935061261c836125b8565b8060005b8381101561264d57815161263488826125d7565b975061263f836125ef565b925050600181019050612620565b5085935050505092915050565b6000602082019050818103600083015261267481846125fc565b905092915050565b7f4e487b7100000000000000000000000000000000000000000000000000000000600052603260045260246000fd5b7f4e487b7100000000000000000000000000000000000000000000000000000000600052601160045260246000fd5b60006126e582611d87565b91506126f083611d87565b92508261ffff03821115612707576127066126ab565b5b828201905092915050565b600061271d82611d51565b915061272883611d51565b9250827fffffffffffffffffffffffffffffffffffffffffffffffffffffffffffffffff0382111561275d5761275c6126ab565b5b828201905092915050565b600061277382611d51565b915061277e83611d51565b925082821015612791576127906126ab565b5b828203905092915050565b60006040820190506127b160008301856121be565b81810360208301526127c38184612237565b90509392505050565b600060408201905081810360008301526127e68185612237565b90506127f560208301846121be565b9392505050565b7f4e487b7100000000000000000000000000000000000000000000000000000000600052602260045260246000fd5b6000600282049050600182168061284357607f821691505b60208210811415612857576128566127fc565b5b50919050565b600061286882611d87565b915061287383611d87565b925082821015612886576128856126ab565b5b828203905092915050565b600060608201905081810360008301526128ab8186612237565b905081810360208301526128bf8185612237565b90506128ce60408301846121be565b949350505050565b60006128e182611d51565b91507fffffffffffffffffffffffffffffffffffffffffffffffffffffffffffffffff821415612914576129136126ab565b5b600182019050919050565b7f3000000000000000000000000000000000000000000000000000000000000000600082015250565b60006129556001836121f3565b91506129608261291f565b602082019050919050565b600061018082019050612981600083018e6121be565b61298e602083018d6121be565b81810360408301526129a0818c612237565b905081810360608301526129b4818b612237565b90506129c3608083018a612270565b81810360a08301526129d58189612237565b905081810360c08301526129e881612948565b90506129f760e0830188612270565b612a05610100830187612270565b612a13610120830186612270565b612a21610140830185612270565b612a2f610160830184612378565b9c9b50505050505050505050505056fea26469706673582212205bc0a7a69bc2413452b720c37bddd15a0d25b1a5359f8c0ec7f37ceff9a384d464736f6c634300080a0033",
  "immutableReferences": {},
  "source": "// SPDX-License-Identifier: MIT\npragma solidity >=0.4.22 <0.9.0;\nimport \"./NFT.sol\";\n\ncontract RandomBox is NFT {\n    address private owner;\n    struct info_randomBox {\n        string name;\n        string price;\n        uint16 count;\n        string picture;\n    }\n\n    constructor() {\n        owner = msg.sender;\n    }\n\n    event BuyRandomBox(\n        address indexed _to,\n        string name,\n        string picture,\n        uint256 indexNFT\n    );\n    event OpenRandomBox(address indexed from, uint256 indexNFT);\n    mapping(uint256 => address) public randomBoxToContractAddress;\n    mapping(address => uint256) public ContractAddressRandomBoxCount;\n    info_randomBox[] public box;\n\n    modifier is_user() {\n        if (msg.sender != owner) _;\n    }\n\n    function _mintRandomBox(\n        string memory _name,\n        string memory _price,\n        uint8 _count,\n        string memory _picture\n    ) public {\n        require(msg.sender == owner);\n        box.push(info_randomBox(_name, _price, _count, _picture));\n        uint256 id = box.length - 1;\n        randomBoxToContractAddress[id] = address(this);\n        ContractAddressRandomBoxCount[address(this)] =\n            ContractAddressRandomBoxCount[address(this)] +\n            1;\n    }\n\n    function _addCountRandomBox(uint256 _indexRandomBox, uint16 count) public {\n        require(msg.sender == owner);\n        info_randomBox storage randomBox = box[_indexRandomBox];\n        randomBox.count = randomBox.count + count;\n    }\n\n    function _getRandomBox() public view returns (uint256[] memory) {\n        uint256[] memory result = new uint256[](\n            ContractAddressRandomBoxCount[address(this)]\n        );\n        uint256 counter = 0;\n        for (uint256 i = 0; i < box.length; i++) {\n            result[counter] = i;\n            counter++;\n        }\n        return result;\n    }\n\n    function _buyRandomBox(\n        uint256 _nft_id,\n        uint256 _indexRandomBox,\n        string memory _name,\n        string memory _picture\n    ) public payable is_user {\n        _craftNFT(_nft_id, _name, _picture, 0, \"chest\", 0, 0, 0, 0);\n        uint256 id = nft.length - 1;\n        ownerNft[id] = msg.sender;\n        ownerNFTCount[msg.sender] = ownerNFTCount[msg.sender] + 1;\n        info_randomBox storage randomBox = box[_indexRandomBox];\n        randomBox.count = randomBox.count - 1;\n        payable(owner).transfer(msg.value);\n        emit BuyRandomBox(msg.sender, _name, _picture, id);\n    }\n\n    function _openRandomBox(\n        uint256 _nft_id,\n        string memory _name,\n        string memory _picture,\n        uint16 _reward,\n        string memory _type_nft,\n        uint16 _cost_wood,\n        uint16 _cost_fruit,\n        uint16 _energy_consumed,\n        uint16 _amount_food,\n        uint256 _indexRandomBox\n    ) public is_user {\n        ownerNft[_indexRandomBox] = 0x000000000000000000000000000000000000dEaD;\n        ownerNFTCount[msg.sender] = ownerNFTCount[msg.sender] - 1;\n        _craftNFT(\n            _nft_id,\n            _name,\n            _picture,\n            _reward,\n            _type_nft,\n            _cost_wood,\n            _cost_fruit,\n            _energy_consumed,\n            _amount_food\n        );\n    }\n}\n",
  "sourcePath": "/Users/komsark/Final-Project/farm-souvirniors-web/contracts/RandomBox.sol",
  "compiler": {
    "name": "solc",
    "version": "0.8.10+commit.fc410830.Emscripten.clang"
  },
  "schemaVersion": "3.4.4",
  "updatedAt": "2022-02-26T14:06:43.992Z",
  "networkType": "ethereum",
  "devdoc": {
    "kind": "dev",
    "methods": {},
    "version": 1
  },
  "userdoc": {
    "kind": "user",
    "methods": {},
    "version": 1
  }
}