{
  "contractName": "RandomBox",
  "abi": [
    {
      "inputs": [],
      "stateMutability": "nonpayable",
      "type": "constructor"
    },
    {
      "anonymous": false,
      "inputs": [
        {
          "indexed": true,
          "internalType": "address",
          "name": "from",
          "type": "address"
        },
        {
          "indexed": true,
          "internalType": "address",
          "name": "to",
          "type": "address"
        },
        {
          "indexed": false,
          "internalType": "uint256",
          "name": "indexNFT",
          "type": "uint256"
        },
        {
          "indexed": false,
          "internalType": "string",
          "name": "price",
          "type": "string"
        }
      ],
      "name": "BuyNFT",
      "type": "event"
    },
    {
      "anonymous": false,
      "inputs": [
        {
          "indexed": true,
          "internalType": "address",
          "name": "_to",
          "type": "address"
        },
        {
          "indexed": false,
          "internalType": "string",
          "name": "name",
          "type": "string"
        },
        {
          "indexed": false,
          "internalType": "string",
          "name": "picture",
          "type": "string"
        },
        {
          "indexed": false,
          "internalType": "uint256",
          "name": "indexNFT",
          "type": "uint256"
        }
      ],
      "name": "BuyRandomBox",
      "type": "event"
    },
    {
      "anonymous": false,
      "inputs": [
        {
          "indexed": true,
          "internalType": "address",
          "name": "from",
          "type": "address"
        },
        {
          "indexed": false,
          "internalType": "uint256",
          "name": "indexNFT",
          "type": "uint256"
        }
      ],
      "name": "CancleNFT",
      "type": "event"
    },
    {
      "anonymous": false,
      "inputs": [
        {
          "indexed": true,
          "internalType": "address",
          "name": "to",
          "type": "address"
        },
        {
          "indexed": false,
          "internalType": "uint256",
          "name": "nft_id",
          "type": "uint256"
        },
        {
          "indexed": false,
          "internalType": "uint256",
          "name": "indexNFT",
          "type": "uint256"
        },
        {
          "indexed": false,
          "internalType": "string",
          "name": "name",
          "type": "string"
        },
        {
          "indexed": false,
          "internalType": "string",
          "name": "picture",
          "type": "string"
        },
        {
          "indexed": false,
          "internalType": "uint16",
          "name": "reward",
          "type": "uint16"
        },
        {
          "indexed": false,
          "internalType": "string",
          "name": "type_nft",
          "type": "string"
        },
        {
          "indexed": false,
          "internalType": "string",
          "name": "price",
          "type": "string"
        },
        {
          "indexed": false,
          "internalType": "uint16",
          "name": "cost_wood",
          "type": "uint16"
        },
        {
          "indexed": false,
          "internalType": "uint16",
          "name": "cost_fruit",
          "type": "uint16"
        },
        {
          "indexed": false,
          "internalType": "uint16",
          "name": "energy_consumed",
          "type": "uint16"
        },
        {
          "indexed": false,
          "internalType": "uint16",
          "name": "amount_food",
          "type": "uint16"
        },
        {
          "indexed": false,
          "internalType": "address",
          "name": "seller",
          "type": "address"
        }
      ],
      "name": "CraftNFT",
      "type": "event"
    },
    {
      "anonymous": false,
      "inputs": [
        {
          "indexed": true,
          "internalType": "address",
          "name": "from",
          "type": "address"
        },
        {
          "indexed": false,
          "internalType": "uint256",
          "name": "indexNFT",
          "type": "uint256"
        }
      ],
      "name": "OpenRandomBox",
      "type": "event"
    },
    {
      "anonymous": false,
      "inputs": [
        {
          "indexed": true,
          "internalType": "address",
          "name": "from",
          "type": "address"
        },
        {
          "indexed": false,
          "internalType": "string",
          "name": "price",
          "type": "string"
        },
        {
          "indexed": false,
          "internalType": "uint256",
          "name": "indexNFT",
          "type": "uint256"
        }
      ],
      "name": "SellNFT",
      "type": "event"
    },
    {
      "inputs": [
        {
          "internalType": "address",
          "name": "",
          "type": "address"
        }
      ],
      "name": "ContractAddressRandomBoxCount",
      "outputs": [
        {
          "internalType": "uint256",
          "name": "",
          "type": "uint256"
        }
      ],
      "stateMutability": "view",
      "type": "function",
      "constant": true
    },
    {
      "inputs": [
        {
          "internalType": "uint256",
          "name": "_nft_id",
          "type": "uint256"
        },
        {
          "internalType": "string",
          "name": "_name",
          "type": "string"
        },
        {
          "internalType": "string",
          "name": "_picture",
          "type": "string"
        },
        {
          "internalType": "uint16",
          "name": "_reward",
          "type": "uint16"
        },
        {
          "internalType": "string",
          "name": "_type_nft",
          "type": "string"
        },
        {
          "internalType": "uint16",
          "name": "_cost_wood",
          "type": "uint16"
        },
        {
          "internalType": "uint16",
          "name": "_cost_fruit",
          "type": "uint16"
        },
        {
          "internalType": "uint16",
          "name": "_energy_consumed",
          "type": "uint16"
        },
        {
          "internalType": "uint16",
          "name": "_amount_food",
          "type": "uint16"
        }
      ],
      "name": "_craftNFT",
      "outputs": [],
      "stateMutability": "nonpayable",
      "type": "function"
    },
    {
      "inputs": [
        {
          "internalType": "uint256",
          "name": "",
          "type": "uint256"
        }
      ],
      "name": "box",
      "outputs": [
        {
          "internalType": "string",
          "name": "name",
          "type": "string"
        },
        {
          "internalType": "string",
          "name": "price",
          "type": "string"
        },
        {
          "internalType": "uint16",
          "name": "count",
          "type": "uint16"
        },
        {
          "internalType": "string",
          "name": "picture",
          "type": "string"
        }
      ],
      "stateMutability": "view",
      "type": "function",
      "constant": true
    },
    {
      "inputs": [
        {
          "internalType": "uint256",
          "name": "_indexNFT",
          "type": "uint256"
        },
        {
          "internalType": "string",
          "name": "_price",
          "type": "string"
        },
        {
          "internalType": "address",
          "name": "seller",
          "type": "address"
        }
      ],
      "name": "buyNFT",
      "outputs": [],
      "stateMutability": "payable",
      "type": "function",
      "payable": true
    },
    {
      "inputs": [
        {
          "internalType": "uint256",
          "name": "_indexNFT",
          "type": "uint256"
        }
      ],
      "name": "cancleNFT",
      "outputs": [],
      "stateMutability": "nonpayable",
      "type": "function"
    },
    {
      "inputs": [
        {
          "internalType": "address",
          "name": "_owner",
          "type": "address"
        }
      ],
      "name": "getNFTByOwner",
      "outputs": [
        {
          "internalType": "uint256[]",
          "name": "",
          "type": "uint256[]"
        }
      ],
      "stateMutability": "view",
      "type": "function",
      "constant": true
    },
    {
      "inputs": [
        {
          "internalType": "uint256",
          "name": "",
          "type": "uint256"
        }
      ],
      "name": "nft",
      "outputs": [
        {
          "internalType": "uint256",
          "name": "nft_id",
          "type": "uint256"
        },
        {
          "internalType": "string",
          "name": "name",
          "type": "string"
        },
        {
          "internalType": "string",
          "name": "picture",
          "type": "string"
        },
        {
          "internalType": "uint16",
          "name": "reward",
          "type": "uint16"
        },
        {
          "internalType": "string",
          "name": "type_nft",
          "type": "string"
        },
        {
          "internalType": "string",
          "name": "price",
          "type": "string"
        },
        {
          "internalType": "uint16",
          "name": "cost_wood",
          "type": "uint16"
        },
        {
          "internalType": "uint16",
          "name": "cost_fruit",
          "type": "uint16"
        },
        {
          "internalType": "uint16",
          "name": "energy_consumed",
          "type": "uint16"
        },
        {
          "internalType": "uint16",
          "name": "amount_food",
          "type": "uint16"
        },
        {
          "internalType": "address",
          "name": "seller",
          "type": "address"
        }
      ],
      "stateMutability": "view",
      "type": "function",
      "constant": true
    },
    {
      "inputs": [
        {
          "internalType": "uint256",
          "name": "",
          "type": "uint256"
        }
      ],
      "name": "randomBoxToContractAddress",
      "outputs": [
        {
          "internalType": "address",
          "name": "",
          "type": "address"
        }
      ],
      "stateMutability": "view",
      "type": "function",
      "constant": true
    },
    {
      "inputs": [
        {
          "internalType": "uint256",
          "name": "_indexNFT",
          "type": "uint256"
        },
        {
          "internalType": "string",
          "name": "_price",
          "type": "string"
        }
      ],
      "name": "sellNFT",
      "outputs": [],
      "stateMutability": "nonpayable",
      "type": "function"
    },
    {
      "inputs": [
        {
          "internalType": "string",
          "name": "_name",
          "type": "string"
        },
        {
          "internalType": "string",
          "name": "_price",
          "type": "string"
        },
        {
          "internalType": "uint8",
          "name": "_count",
          "type": "uint8"
        },
        {
          "internalType": "string",
          "name": "_picture",
          "type": "string"
        }
      ],
      "name": "_mintRandomBox",
      "outputs": [],
      "stateMutability": "nonpayable",
      "type": "function"
    },
    {
      "inputs": [
        {
          "internalType": "uint256",
          "name": "_indexRandomBox",
          "type": "uint256"
        },
        {
          "internalType": "uint16",
          "name": "count",
          "type": "uint16"
        }
      ],
      "name": "_addCountRandomBox",
      "outputs": [],
      "stateMutability": "nonpayable",
      "type": "function"
    },
    {
      "inputs": [],
      "name": "_getRandomBox",
      "outputs": [
        {
          "internalType": "uint256[]",
          "name": "",
          "type": "uint256[]"
        }
      ],
      "stateMutability": "view",
      "type": "function",
      "constant": true
    },
    {
      "inputs": [
        {
          "internalType": "uint256",
          "name": "_nft_id",
          "type": "uint256"
        },
        {
          "internalType": "uint256",
          "name": "_indexRandomBox",
          "type": "uint256"
        },
        {
          "internalType": "string",
          "name": "_name",
          "type": "string"
        },
        {
          "internalType": "string",
          "name": "_picture",
          "type": "string"
        }
      ],
      "name": "_buyRandomBox",
      "outputs": [],
      "stateMutability": "payable",
      "type": "function",
      "payable": true
    },
    {
      "inputs": [
        {
          "internalType": "uint256",
          "name": "_nft_id",
          "type": "uint256"
        },
        {
          "internalType": "string",
          "name": "_name",
          "type": "string"
        },
        {
          "internalType": "string",
          "name": "_picture",
          "type": "string"
        },
        {
          "internalType": "uint16",
          "name": "_reward",
          "type": "uint16"
        },
        {
          "internalType": "string",
          "name": "_type_nft",
          "type": "string"
        },
        {
          "internalType": "uint16",
          "name": "_cost_wood",
          "type": "uint16"
        },
        {
          "internalType": "uint16",
          "name": "_cost_fruit",
          "type": "uint16"
        },
        {
          "internalType": "uint16",
          "name": "_energy_consumed",
          "type": "uint16"
        },
        {
          "internalType": "uint16",
          "name": "_amount_food",
          "type": "uint16"
        },
        {
          "internalType": "uint256",
          "name": "_indexRandomBox",
          "type": "uint256"
        }
      ],
      "name": "_openRandomBox",
      "outputs": [],
      "stateMutability": "nonpayable",
      "type": "function"
    }
  ],
  "bytecode": "0x608060405234801561001057600080fd5b5033600360006101000a81548173ffffffffffffffffffffffffffffffffffffffff021916908373ffffffffffffffffffffffffffffffffffffffff160217905550612bd7806100616000396000f3fe6080604052600436106100dd5760003560e01c80639a9223451161007f578063b0ba6d5611610059578063b0ba6d56146102bf578063cb0c14c4146102e8578063d28e7a2214610325578063fda547ef14610350576100dd565b80639a9223451461021f5780639d0214cb1461023b578063af99789414610282576100dd565b806344b2a25b116100bb57806344b2a25b1461015057806362cb9fa414610179578063669787c2146101a25780636ca21b95146101df576100dd565b806323063502146100e2578063349d595f1461010b57806335cc06e314610134575b600080fd5b3480156100ee57600080fd5b5061010960048036038101906101049190611e05565b610379565b005b34801561011757600080fd5b50610132600480360381019061012d9190611e45565b61043a565b005b61014e60048036038101906101499190612016565b6106b1565b005b34801561015c57600080fd5b50610177600480360381019061017291906120be565b610955565b005b34801561018557600080fd5b506101a0600480360381019061019b9190612179565b610b7c565b005b3480156101ae57600080fd5b506101c960048036038101906101c491906121d5565b610dc0565b6040516101d69190612211565b60405180910390f35b3480156101eb57600080fd5b5061020660048036038101906102019190611e45565b610dd8565b60405161021694939291906122c3565b60405180910390f35b6102396004803603810190610234919061231d565b610fbe565b005b34801561024757600080fd5b50610262600480360381019061025d9190611e45565b611278565b6040516102799b9a999897969594939291906123cb565b60405180910390f35b34801561028e57600080fd5b506102a960048036038101906102a49190611e45565b611568565b6040516102b69190612492565b60405180910390f35b3480156102cb57600080fd5b506102e660048036038101906102e191906124ad565b61159b565b005b3480156102f457600080fd5b5061030f600480360381019061030a91906121d5565b6116ef565b60405161031c919061269e565b60405180910390f35b34801561033157600080fd5b5061033a611841565b604051610347919061269e565b60405180910390f35b34801561035c57600080fd5b50610377600480360381019061037291906126c0565b61192a565b005b600360009054906101000a900473ffffffffffffffffffffffffffffffffffffffff1673ffffffffffffffffffffffffffffffffffffffff163373ffffffffffffffffffffffffffffffffffffffff16146103d357600080fd5b6000600683815481106103e9576103e86127de565b5b90600052602060002090600402019050818160020160009054906101000a900461ffff16610417919061283c565b8160020160006101000a81548161ffff021916908361ffff160217905550505050565b6000600282815481106104505761044f6127de565b5b906000526020600020906007020190506040518060400160405280600181526020017f30000000000000000000000000000000000000000000000000000000000000008152508160050190805190602001906104ad929190611cde565b5060008160060160086101000a81548173ffffffffffffffffffffffffffffffffffffffff021916908373ffffffffffffffffffffffffffffffffffffffff16021790555060018060003373ffffffffffffffffffffffffffffffffffffffff1673ffffffffffffffffffffffffffffffffffffffff1681526020019081526020016000205461053d9190612874565b600160003373ffffffffffffffffffffffffffffffffffffffff1673ffffffffffffffffffffffffffffffffffffffff1681526020019081526020016000208190555060018060003073ffffffffffffffffffffffffffffffffffffffff1673ffffffffffffffffffffffffffffffffffffffff168152602001908152602001600020546105cb91906128ca565b600160003073ffffffffffffffffffffffffffffffffffffffff1673ffffffffffffffffffffffffffffffffffffffff168152602001908152602001600020819055503360008084815260200190815260200160002060006101000a81548173ffffffffffffffffffffffffffffffffffffffff021916908373ffffffffffffffffffffffffffffffffffffffff1602179055503373ffffffffffffffffffffffffffffffffffffffff167fe37d189301f8932439394ec9e609cd3ab69ecbd7d0aa80300c172745f644bb09836040516106a59190612211565b60405180910390a25050565b8073ffffffffffffffffffffffffffffffffffffffff166108fc349081150290604051600060405180830381858888f193505050501580156106f7573d6000803e3d6000fd5b5060006002848154811061070e5761070d6127de565b5b9060005260206000209060070201905082816005019080519060200190610736929190611cde565b5060008160060160086101000a81548173ffffffffffffffffffffffffffffffffffffffff021916908373ffffffffffffffffffffffffffffffffffffffff16021790555060018060003073ffffffffffffffffffffffffffffffffffffffff1673ffffffffffffffffffffffffffffffffffffffff168152602001908152602001600020546107c691906128ca565b600160003073ffffffffffffffffffffffffffffffffffffffff1673ffffffffffffffffffffffffffffffffffffffff1681526020019081526020016000208190555060018060003373ffffffffffffffffffffffffffffffffffffffff1673ffffffffffffffffffffffffffffffffffffffff168152602001908152602001600020546108549190612874565b600160003373ffffffffffffffffffffffffffffffffffffffff1673ffffffffffffffffffffffffffffffffffffffff168152602001908152602001600020819055503360008086815260200190815260200160002060006101000a81548173ffffffffffffffffffffffffffffffffffffffff021916908373ffffffffffffffffffffffffffffffffffffffff1602179055503373ffffffffffffffffffffffffffffffffffffffff168273ffffffffffffffffffffffffffffffffffffffff167f926ba2594b1ec5b8354a72440fd70b44086344abad079f0acb838a52caaa626e86866040516109479291906128fe565b60405180910390a350505050565b600360009054906101000a900473ffffffffffffffffffffffffffffffffffffffff1673ffffffffffffffffffffffffffffffffffffffff163373ffffffffffffffffffffffffffffffffffffffff16146109af57600080fd5b600660405180608001604052808681526020018581526020018460ff1661ffff1681526020018381525090806001815401808255809150506001900390600052602060002090600402016000909190919091506000820151816000019080519060200190610a1e929190611cde565b506020820151816001019080519060200190610a3b929190611cde565b5060408201518160020160006101000a81548161ffff021916908361ffff1602179055506060820151816003019080519060200190610a7b929190611cde565b50505060006001600680549050610a9291906128ca565b9050306004600083815260200190815260200160002060006101000a81548173ffffffffffffffffffffffffffffffffffffffff021916908373ffffffffffffffffffffffffffffffffffffffff1602179055506001600560003073ffffffffffffffffffffffffffffffffffffffff1673ffffffffffffffffffffffffffffffffffffffff16815260200190815260200160002054610b329190612874565b600560003073ffffffffffffffffffffffffffffffffffffffff1673ffffffffffffffffffffffffffffffffffffffff168152602001908152602001600020819055505050505050565b600060028381548110610b9257610b916127de565b5b9060005260206000209060070201905081816005019080519060200190610bba929190611cde565b50338160060160086101000a81548173ffffffffffffffffffffffffffffffffffffffff021916908373ffffffffffffffffffffffffffffffffffffffff16021790555060018060003373ffffffffffffffffffffffffffffffffffffffff1673ffffffffffffffffffffffffffffffffffffffff16815260200190815260200160002054610c4991906128ca565b600160003373ffffffffffffffffffffffffffffffffffffffff1673ffffffffffffffffffffffffffffffffffffffff1681526020019081526020016000208190555060018060003073ffffffffffffffffffffffffffffffffffffffff1673ffffffffffffffffffffffffffffffffffffffff16815260200190815260200160002054610cd79190612874565b600160003073ffffffffffffffffffffffffffffffffffffffff1673ffffffffffffffffffffffffffffffffffffffff168152602001908152602001600020819055503060008085815260200190815260200160002060006101000a81548173ffffffffffffffffffffffffffffffffffffffff021916908373ffffffffffffffffffffffffffffffffffffffff1602179055503373ffffffffffffffffffffffffffffffffffffffff167f6d079126a716903e65e9e1d51154819fe5514fb3e57e084149b0fdb866a7a5358385604051610db392919061292e565b60405180910390a2505050565b60056020528060005260406000206000915090505481565b60068181548110610de857600080fd5b9060005260206000209060040201600091509050806000018054610e0b9061298d565b80601f0160208091040260200160405190810160405280929190818152602001828054610e379061298d565b8015610e845780601f10610e5957610100808354040283529160200191610e84565b820191906000526020600020905b815481529060010190602001808311610e6757829003601f168201915b505050505090806001018054610e999061298d565b80601f0160208091040260200160405190810160405280929190818152602001828054610ec59061298d565b8015610f125780601f10610ee757610100808354040283529160200191610f12565b820191906000526020600020905b815481529060010190602001808311610ef557829003601f168201915b5050505050908060020160009054906101000a900461ffff1690806003018054610f3b9061298d565b80601f0160208091040260200160405190810160405280929190818152602001828054610f679061298d565b8015610fb45780601f10610f8957610100808354040283529160200191610fb4565b820191906000526020600020905b815481529060010190602001808311610f9757829003601f168201915b5050505050905084565b600360009054906101000a900473ffffffffffffffffffffffffffffffffffffffff1673ffffffffffffffffffffffffffffffffffffffff163373ffffffffffffffffffffffffffffffffffffffff16146112725761105c84838360006040518060400160405280600581526020017f636865737400000000000000000000000000000000000000000000000000000081525060008060008061192a565b6000600160028054905061107091906128ca565b90503360008083815260200190815260200160002060006101000a81548173ffffffffffffffffffffffffffffffffffffffff021916908373ffffffffffffffffffffffffffffffffffffffff16021790555060018060003373ffffffffffffffffffffffffffffffffffffffff1673ffffffffffffffffffffffffffffffffffffffff1681526020019081526020016000205461110e9190612874565b600160003373ffffffffffffffffffffffffffffffffffffffff1673ffffffffffffffffffffffffffffffffffffffff16815260200190815260200160002081905550600060068581548110611167576111666127de565b5b9060005260206000209060040201905060018160020160009054906101000a900461ffff1661119691906129bf565b8160020160006101000a81548161ffff021916908361ffff160217905550600360009054906101000a900473ffffffffffffffffffffffffffffffffffffffff1673ffffffffffffffffffffffffffffffffffffffff166108fc349081150290604051600060405180830381858888f1935050505015801561121c573d6000803e3d6000fd5b503373ffffffffffffffffffffffffffffffffffffffff167fb1d3cb0374852cdfa1c31b4f9c30b618c2089406ab5604396803f2a759510544858585604051611267939291906129f3565b60405180910390a250505b50505050565b6002818154811061128857600080fd5b90600052602060002090600702016000915090508060000154908060010180546112b19061298d565b80601f01602080910402602001604051908101604052809291908181526020018280546112dd9061298d565b801561132a5780601f106112ff5761010080835404028352916020019161132a565b820191906000526020600020905b81548152906001019060200180831161130d57829003601f168201915b50505050509080600201805461133f9061298d565b80601f016020809104026020016040519081016040528092919081815260200182805461136b9061298d565b80156113b85780601f1061138d576101008083540402835291602001916113b8565b820191906000526020600020905b81548152906001019060200180831161139b57829003601f168201915b5050505050908060030160009054906101000a900461ffff16908060040180546113e19061298d565b80601f016020809104026020016040519081016040528092919081815260200182805461140d9061298d565b801561145a5780601f1061142f5761010080835404028352916020019161145a565b820191906000526020600020905b81548152906001019060200180831161143d57829003601f168201915b50505050509080600501805461146f9061298d565b80601f016020809104026020016040519081016040528092919081815260200182805461149b9061298d565b80156114e85780601f106114bd576101008083540402835291602001916114e8565b820191906000526020600020905b8154815290600101906020018083116114cb57829003601f168201915b5050505050908060060160009054906101000a900461ffff16908060060160029054906101000a900461ffff16908060060160049054906101000a900461ffff16908060060160069054906101000a900461ffff16908060060160089054906101000a900473ffffffffffffffffffffffffffffffffffffffff1690508b565b60046020528060005260406000206000915054906101000a900473ffffffffffffffffffffffffffffffffffffffff1681565b600360009054906101000a900473ffffffffffffffffffffffffffffffffffffffff1673ffffffffffffffffffffffffffffffffffffffff163373ffffffffffffffffffffffffffffffffffffffff16146116e35761dead60008083815260200190815260200160002060006101000a81548173ffffffffffffffffffffffffffffffffffffffff021916908373ffffffffffffffffffffffffffffffffffffffff16021790555060018060003373ffffffffffffffffffffffffffffffffffffffff1673ffffffffffffffffffffffffffffffffffffffff1681526020019081526020016000205461168e91906128ca565b600160003373ffffffffffffffffffffffffffffffffffffffff1673ffffffffffffffffffffffffffffffffffffffff168152602001908152602001600020819055506116e28a8a8a8a8a8a8a8a8a61192a565b5b50505050505050505050565b60606000600160008473ffffffffffffffffffffffffffffffffffffffff1673ffffffffffffffffffffffffffffffffffffffff1681526020019081526020016000205467ffffffffffffffff81111561174c5761174b611e8d565b5b60405190808252806020026020018201604052801561177a5781602001602082028036833780820191505090505b5090506000805b600280549050811015611836578473ffffffffffffffffffffffffffffffffffffffff1660008083815260200190815260200160002060009054906101000a900473ffffffffffffffffffffffffffffffffffffffff1673ffffffffffffffffffffffffffffffffffffffff1614156118235780838381518110611808576118076127de565b5b602002602001018181525050818061181f90612a38565b9250505b808061182e90612a38565b915050611781565b508192505050919050565b60606000600560003073ffffffffffffffffffffffffffffffffffffffff1673ffffffffffffffffffffffffffffffffffffffff1681526020019081526020016000205467ffffffffffffffff81111561189e5761189d611e8d565b5b6040519080825280602002602001820160405280156118cc5781602001602082028036833780820191505090505b5090506000805b60068054905081101561192157808383815181106118f4576118f36127de565b5b602002602001018181525050818061190b90612a38565b925050808061191990612a38565b9150506118d3565b50819250505090565b60026040518061016001604052808b81526020018a81526020018981526020018861ffff1681526020018781526020016040518060400160405280600181526020017f300000000000000000000000000000000000000000000000000000000000000081525081526020018661ffff1681526020018561ffff1681526020018461ffff1681526020018361ffff168152602001600073ffffffffffffffffffffffffffffffffffffffff168152509080600181540180825580915050600190039060005260206000209060070201600090919091909150600082015181600001556020820151816001019080519060200190611a27929190611cde565b506040820151816002019080519060200190611a44929190611cde565b5060608201518160030160006101000a81548161ffff021916908361ffff1602179055506080820151816004019080519060200190611a84929190611cde565b5060a0820151816005019080519060200190611aa1929190611cde565b5060c08201518160060160006101000a81548161ffff021916908361ffff16021790555060e08201518160060160026101000a81548161ffff021916908361ffff1602179055506101008201518160060160046101000a81548161ffff021916908361ffff1602179055506101208201518160060160066101000a81548161ffff021916908361ffff1602179055506101408201518160060160086101000a81548173ffffffffffffffffffffffffffffffffffffffff021916908373ffffffffffffffffffffffffffffffffffffffff160217905550505060006001600280549050611b8e91906128ca565b90503360008083815260200190815260200160002060006101000a81548173ffffffffffffffffffffffffffffffffffffffff021916908373ffffffffffffffffffffffffffffffffffffffff16021790555060018060003373ffffffffffffffffffffffffffffffffffffffff1673ffffffffffffffffffffffffffffffffffffffff16815260200190815260200160002054611c2c9190612874565b600160003373ffffffffffffffffffffffffffffffffffffffff1673ffffffffffffffffffffffffffffffffffffffff168152602001908152602001600020819055503373ffffffffffffffffffffffffffffffffffffffff167f1c96bce994b60b1fe458ea8014a92301414266b04928342f4db66060dc8e4e578b838c8c8c8c8c8c8c8c6000604051611cca9b9a99989796959493929190612acd565b60405180910390a250505050505050505050565b828054611cea9061298d565b90600052602060002090601f016020900481019282611d0c5760008555611d53565b82601f10611d2557805160ff1916838001178555611d53565b82800160010185558215611d53579182015b82811115611d52578251825591602001919060010190611d37565b5b509050611d609190611d64565b5090565b5b80821115611d7d576000816000905550600101611d65565b5090565b6000604051905090565b600080fd5b600080fd5b6000819050919050565b611da881611d95565b8114611db357600080fd5b50565b600081359050611dc581611d9f565b92915050565b600061ffff82169050919050565b611de281611dcb565b8114611ded57600080fd5b50565b600081359050611dff81611dd9565b92915050565b60008060408385031215611e1c57611e1b611d8b565b5b6000611e2a85828601611db6565b9250506020611e3b85828601611df0565b9150509250929050565b600060208284031215611e5b57611e5a611d8b565b5b6000611e6984828501611db6565b91505092915050565b600080fd5b600080fd5b6000601f19601f8301169050919050565b7f4e487b7100000000000000000000000000000000000000000000000000000000600052604160045260246000fd5b611ec582611e7c565b810181811067ffffffffffffffff82111715611ee457611ee3611e8d565b5b80604052505050565b6000611ef7611d81565b9050611f038282611ebc565b919050565b600067ffffffffffffffff821115611f2357611f22611e8d565b5b611f2c82611e7c565b9050602081019050919050565b82818337600083830152505050565b6000611f5b611f5684611f08565b611eed565b905082815260208101848484011115611f7757611f76611e77565b5b611f82848285611f39565b509392505050565b600082601f830112611f9f57611f9e611e72565b5b8135611faf848260208601611f48565b91505092915050565b600073ffffffffffffffffffffffffffffffffffffffff82169050919050565b6000611fe382611fb8565b9050919050565b611ff381611fd8565b8114611ffe57600080fd5b50565b60008135905061201081611fea565b92915050565b60008060006060848603121561202f5761202e611d8b565b5b600061203d86828701611db6565b935050602084013567ffffffffffffffff81111561205e5761205d611d90565b5b61206a86828701611f8a565b925050604061207b86828701612001565b9150509250925092565b600060ff82169050919050565b61209b81612085565b81146120a657600080fd5b50565b6000813590506120b881612092565b92915050565b600080600080608085870312156120d8576120d7611d8b565b5b600085013567ffffffffffffffff8111156120f6576120f5611d90565b5b61210287828801611f8a565b945050602085013567ffffffffffffffff81111561212357612122611d90565b5b61212f87828801611f8a565b9350506040612140878288016120a9565b925050606085013567ffffffffffffffff81111561216157612160611d90565b5b61216d87828801611f8a565b91505092959194509250565b600080604083850312156121905761218f611d8b565b5b600061219e85828601611db6565b925050602083013567ffffffffffffffff8111156121bf576121be611d90565b5b6121cb85828601611f8a565b9150509250929050565b6000602082840312156121eb576121ea611d8b565b5b60006121f984828501612001565b91505092915050565b61220b81611d95565b82525050565b60006020820190506122266000830184612202565b92915050565b600081519050919050565b600082825260208201905092915050565b60005b8381101561226657808201518184015260208101905061224b565b83811115612275576000848401525b50505050565b60006122868261222c565b6122908185612237565b93506122a0818560208601612248565b6122a981611e7c565b840191505092915050565b6122bd81611dcb565b82525050565b600060808201905081810360008301526122dd818761227b565b905081810360208301526122f1818661227b565b905061230060408301856122b4565b8181036060830152612312818461227b565b905095945050505050565b6000806000806080858703121561233757612336611d8b565b5b600061234587828801611db6565b945050602061235687828801611db6565b935050604085013567ffffffffffffffff81111561237757612376611d90565b5b61238387828801611f8a565b925050606085013567ffffffffffffffff8111156123a4576123a3611d90565b5b6123b087828801611f8a565b91505092959194509250565b6123c581611fd8565b82525050565b6000610160820190506123e1600083018e612202565b81810360208301526123f3818d61227b565b90508181036040830152612407818c61227b565b9050612416606083018b6122b4565b8181036080830152612428818a61227b565b905081810360a083015261243c818961227b565b905061244b60c08301886122b4565b61245860e08301876122b4565b6124666101008301866122b4565b6124746101208301856122b4565b6124826101408301846123bc565b9c9b505050505050505050505050565b60006020820190506124a760008301846123bc565b92915050565b6000806000806000806000806000806101408b8d0312156124d1576124d0611d8b565b5b60006124df8d828e01611db6565b9a505060208b013567ffffffffffffffff811115612500576124ff611d90565b5b61250c8d828e01611f8a565b99505060408b013567ffffffffffffffff81111561252d5761252c611d90565b5b6125398d828e01611f8a565b985050606061254a8d828e01611df0565b97505060808b013567ffffffffffffffff81111561256b5761256a611d90565b5b6125778d828e01611f8a565b96505060a06125888d828e01611df0565b95505060c06125998d828e01611df0565b94505060e06125aa8d828e01611df0565b9350506101006125bc8d828e01611df0565b9250506101206125ce8d828e01611db6565b9150509295989b9194979a5092959850565b600081519050919050565b600082825260208201905092915050565b6000819050602082019050919050565b61261581611d95565b82525050565b6000612627838361260c565b60208301905092915050565b6000602082019050919050565b600061264b826125e0565b61265581856125eb565b9350612660836125fc565b8060005b83811015612691578151612678888261261b565b975061268383612633565b925050600181019050612664565b5085935050505092915050565b600060208201905081810360008301526126b88184612640565b905092915050565b60008060008060008060008060006101208a8c0312156126e3576126e2611d8b565b5b60006126f18c828d01611db6565b99505060208a013567ffffffffffffffff81111561271257612711611d90565b5b61271e8c828d01611f8a565b98505060408a013567ffffffffffffffff81111561273f5761273e611d90565b5b61274b8c828d01611f8a565b975050606061275c8c828d01611df0565b96505060808a013567ffffffffffffffff81111561277d5761277c611d90565b5b6127898c828d01611f8a565b95505060a061279a8c828d01611df0565b94505060c06127ab8c828d01611df0565b93505060e06127bc8c828d01611df0565b9250506101006127ce8c828d01611df0565b9150509295985092959850929598565b7f4e487b7100000000000000000000000000000000000000000000000000000000600052603260045260246000fd5b7f4e487b7100000000000000000000000000000000000000000000000000000000600052601160045260246000fd5b600061284782611dcb565b915061285283611dcb565b92508261ffff038211156128695761286861280d565b5b828201905092915050565b600061287f82611d95565b915061288a83611d95565b9250827fffffffffffffffffffffffffffffffffffffffffffffffffffffffffffffffff038211156128bf576128be61280d565b5b828201905092915050565b60006128d582611d95565b91506128e083611d95565b9250828210156128f3576128f261280d565b5b828203905092915050565b60006040820190506129136000830185612202565b8181036020830152612925818461227b565b90509392505050565b60006040820190508181036000830152612948818561227b565b90506129576020830184612202565b9392505050565b7f4e487b7100000000000000000000000000000000000000000000000000000000600052602260045260246000fd5b600060028204905060018216806129a557607f821691505b602082108114156129b9576129b861295e565b5b50919050565b60006129ca82611dcb565b91506129d583611dcb565b9250828210156129e8576129e761280d565b5b828203905092915050565b60006060820190508181036000830152612a0d818661227b565b90508181036020830152612a21818561227b565b9050612a306040830184612202565b949350505050565b6000612a4382611d95565b91507fffffffffffffffffffffffffffffffffffffffffffffffffffffffffffffffff821415612a7657612a7561280d565b5b600182019050919050565b7f3000000000000000000000000000000000000000000000000000000000000000600082015250565b6000612ab7600183612237565b9150612ac282612a81565b602082019050919050565b600061018082019050612ae3600083018e612202565b612af0602083018d612202565b8181036040830152612b02818c61227b565b90508181036060830152612b16818b61227b565b9050612b25608083018a6122b4565b81810360a0830152612b37818961227b565b905081810360c0830152612b4a81612aaa565b9050612b5960e08301886122b4565b612b676101008301876122b4565b612b756101208301866122b4565b612b836101408301856122b4565b612b916101608301846123bc565b9c9b50505050505050505050505056fea2646970667358221220dacd6956c80fa18b2ad69239b547cc4cef35e2fcb7cb10d45cb72a97844d099e64736f6c634300080a0033",
  "immutableReferences": {},
  "source": "// SPDX-License-Identifier: MIT\npragma solidity >=0.4.22 <0.9.0;\nimport \"./NFT.sol\";\n\ncontract RandomBox is NFT {\n    address private owner;\n    struct info_randomBox {\n        string name;\n        string price;\n        uint16 count;\n        string picture;\n    }\n\n    constructor() {\n        owner = msg.sender;\n    }\n\n    event BuyRandomBox(\n        address indexed _to,\n        string name,\n        string picture,\n        uint256 indexNFT\n    );\n    event OpenRandomBox(address indexed from, uint256 indexNFT);\n    mapping(uint256 => address) public randomBoxToContractAddress;\n    mapping(address => uint256) public ContractAddressRandomBoxCount;\n    info_randomBox[] public box;\n\n    modifier is_user() {\n        if (msg.sender != owner) _;\n    }\n\n    function _mintRandomBox(\n        string memory _name,\n        string memory _price,\n        uint8 _count,\n        string memory _picture\n    ) public {\n        require(msg.sender == owner);\n        box.push(info_randomBox(_name, _price, _count, _picture));\n        uint256 id = box.length - 1;\n        randomBoxToContractAddress[id] = address(this);\n        ContractAddressRandomBoxCount[address(this)] =\n            ContractAddressRandomBoxCount[address(this)] +\n            1;\n    }\n\n    function _addCountRandomBox(uint256 _indexRandomBox, uint16 count) public {\n        require(msg.sender == owner);\n        info_randomBox storage randomBox = box[_indexRandomBox];\n        randomBox.count = randomBox.count + count;\n    }\n\n    function _getRandomBox() public view returns (uint256[] memory) {\n        uint256[] memory result = new uint256[](\n            ContractAddressRandomBoxCount[address(this)]\n        );\n        uint256 counter = 0;\n        for (uint256 i = 0; i < box.length; i++) {\n            result[counter] = i;\n            counter++;\n        }\n        return result;\n    }\n\n    function _buyRandomBox(\n        uint256 _nft_id,\n        uint256 _indexRandomBox,\n        string memory _name,\n        string memory _picture\n    ) public payable is_user {\n        _craftNFT(_nft_id, _name, _picture, 0, \"chest\", 0, 0, 0, 0);\n        uint256 id = nft.length - 1;\n        ownerNft[id] = msg.sender;\n        ownerNFTCount[msg.sender] = ownerNFTCount[msg.sender] + 1;\n        info_randomBox storage randomBox = box[_indexRandomBox];\n        randomBox.count = randomBox.count - 1;\n        payable(owner).transfer(msg.value);\n        emit BuyRandomBox(msg.sender, _name, _picture, id);\n    }\n\n    function _openRandomBox(\n        uint256 _nft_id,\n        string memory _name,\n        string memory _picture,\n        uint16 _reward,\n        string memory _type_nft,\n        uint16 _cost_wood,\n        uint16 _cost_fruit,\n        uint16 _energy_consumed,\n        uint16 _amount_food,\n        uint256 _indexRandomBox\n    ) public is_user {\n        ownerNft[_indexRandomBox] = 0x000000000000000000000000000000000000dEaD;\n        ownerNFTCount[msg.sender] = ownerNFTCount[msg.sender] - 1;\n        _craftNFT(\n            _nft_id,\n            _name,\n            _picture,\n            _reward,\n            _type_nft,\n            _cost_wood,\n            _cost_fruit,\n            _energy_consumed,\n            _amount_food\n        );\n    }\n}\n",
  "sourcePath": "/Users/komsark/Final-Project/farm-souvirniors-web/contracts/RandomBox.sol",
  "compiler": {
    "name": "solc",
    "version": "0.8.10+commit.fc410830.Emscripten.clang"
  },
  "schemaVersion": "3.4.4",
  "updatedAt": "2022-02-28T19:34:18.867Z",
  "networkType": "ethereum",
  "devdoc": {
    "kind": "dev",
    "methods": {},
    "version": 1
  },
  "userdoc": {
    "kind": "user",
    "methods": {},
    "version": 1
  }
}