{
  "contractName": "RandomBox",
  "abi": [
    {
      "inputs": [],
      "stateMutability": "nonpayable",
      "type": "constructor"
    },
    {
      "anonymous": false,
      "inputs": [
        {
          "indexed": true,
          "internalType": "address",
          "name": "from",
          "type": "address"
        },
        {
          "indexed": true,
          "internalType": "address",
          "name": "to",
          "type": "address"
        },
        {
          "indexed": false,
          "internalType": "uint256",
          "name": "indexNFT",
          "type": "uint256"
        },
        {
          "indexed": false,
          "internalType": "string",
          "name": "price",
          "type": "string"
        }
      ],
      "name": "BuyNFT",
      "type": "event"
    },
    {
      "anonymous": false,
      "inputs": [
        {
          "indexed": true,
          "internalType": "address",
          "name": "_to",
          "type": "address"
        },
        {
          "indexed": false,
          "internalType": "string",
          "name": "name",
          "type": "string"
        },
        {
          "indexed": false,
          "internalType": "string",
          "name": "picture",
          "type": "string"
        }
      ],
      "name": "BuyRandomBox",
      "type": "event"
    },
    {
      "anonymous": false,
      "inputs": [
        {
          "indexed": true,
          "internalType": "address",
          "name": "from",
          "type": "address"
        },
        {
          "indexed": false,
          "internalType": "uint256",
          "name": "indexNFT",
          "type": "uint256"
        }
      ],
      "name": "CancleNFT",
      "type": "event"
    },
    {
      "anonymous": false,
      "inputs": [
        {
          "indexed": true,
          "internalType": "address",
          "name": "to",
          "type": "address"
        },
        {
          "indexed": false,
          "internalType": "uint256",
          "name": "nft_id",
          "type": "uint256"
        },
        {
          "indexed": false,
          "internalType": "uint256",
          "name": "indexNFT",
          "type": "uint256"
        },
        {
          "indexed": false,
          "internalType": "string",
          "name": "name",
          "type": "string"
        },
        {
          "indexed": false,
          "internalType": "string",
          "name": "picture",
          "type": "string"
        },
        {
          "indexed": false,
          "internalType": "uint16",
          "name": "reward",
          "type": "uint16"
        },
        {
          "indexed": false,
          "internalType": "string",
          "name": "type_nft",
          "type": "string"
        },
        {
          "indexed": false,
          "internalType": "string",
          "name": "price",
          "type": "string"
        },
        {
          "indexed": false,
          "internalType": "uint16",
          "name": "cost_wood",
          "type": "uint16"
        },
        {
          "indexed": false,
          "internalType": "uint16",
          "name": "cost_fruit",
          "type": "uint16"
        },
        {
          "indexed": false,
          "internalType": "uint16",
          "name": "energy_consumed",
          "type": "uint16"
        },
        {
          "indexed": false,
          "internalType": "uint16",
          "name": "amount_food",
          "type": "uint16"
        },
        {
          "indexed": false,
          "internalType": "address",
          "name": "seller",
          "type": "address"
        }
      ],
      "name": "CraftNFT",
      "type": "event"
    },
    {
      "anonymous": false,
      "inputs": [
        {
          "indexed": true,
          "internalType": "address",
          "name": "from",
          "type": "address"
        },
        {
          "indexed": false,
          "internalType": "uint256",
          "name": "indexNFT",
          "type": "uint256"
        }
      ],
      "name": "OpenRandomBox",
      "type": "event"
    },
    {
      "anonymous": false,
      "inputs": [
        {
          "indexed": true,
          "internalType": "address",
          "name": "from",
          "type": "address"
        },
        {
          "indexed": false,
          "internalType": "string",
          "name": "price",
          "type": "string"
        },
        {
          "indexed": false,
          "internalType": "uint256",
          "name": "indexNFT",
          "type": "uint256"
        }
      ],
      "name": "SellNFT",
      "type": "event"
    },
    {
      "inputs": [
        {
          "internalType": "address",
          "name": "",
          "type": "address"
        }
      ],
      "name": "ContractAddressRandomBoxCount",
      "outputs": [
        {
          "internalType": "uint256",
          "name": "",
          "type": "uint256"
        }
      ],
      "stateMutability": "view",
      "type": "function",
      "constant": true
    },
    {
      "inputs": [
        {
          "internalType": "uint256",
          "name": "_nft_id",
          "type": "uint256"
        },
        {
          "internalType": "string",
          "name": "_name",
          "type": "string"
        },
        {
          "internalType": "string",
          "name": "_picture",
          "type": "string"
        },
        {
          "internalType": "uint16",
          "name": "_reward",
          "type": "uint16"
        },
        {
          "internalType": "string",
          "name": "_type_nft",
          "type": "string"
        },
        {
          "internalType": "uint16",
          "name": "_cost_wood",
          "type": "uint16"
        },
        {
          "internalType": "uint16",
          "name": "_cost_fruit",
          "type": "uint16"
        },
        {
          "internalType": "uint16",
          "name": "_energy_consumed",
          "type": "uint16"
        },
        {
          "internalType": "uint16",
          "name": "_amount_food",
          "type": "uint16"
        }
      ],
      "name": "_craftNFT",
      "outputs": [],
      "stateMutability": "nonpayable",
      "type": "function"
    },
    {
      "inputs": [
        {
          "internalType": "uint256",
          "name": "",
          "type": "uint256"
        }
      ],
      "name": "box",
      "outputs": [
        {
          "internalType": "string",
          "name": "name",
          "type": "string"
        },
        {
          "internalType": "string",
          "name": "price",
          "type": "string"
        },
        {
          "internalType": "uint16",
          "name": "count",
          "type": "uint16"
        },
        {
          "internalType": "string",
          "name": "picture",
          "type": "string"
        }
      ],
      "stateMutability": "view",
      "type": "function",
      "constant": true
    },
    {
      "inputs": [
        {
          "internalType": "uint256",
          "name": "_indexNFT",
          "type": "uint256"
        },
        {
          "internalType": "string",
          "name": "_price",
          "type": "string"
        },
        {
          "internalType": "address",
          "name": "seller",
          "type": "address"
        }
      ],
      "name": "buyNFT",
      "outputs": [],
      "stateMutability": "payable",
      "type": "function",
      "payable": true
    },
    {
      "inputs": [
        {
          "internalType": "uint256",
          "name": "_indexNFT",
          "type": "uint256"
        }
      ],
      "name": "cancleNFT",
      "outputs": [],
      "stateMutability": "nonpayable",
      "type": "function"
    },
    {
      "inputs": [
        {
          "internalType": "address",
          "name": "_owner",
          "type": "address"
        }
      ],
      "name": "getNFTByOwner",
      "outputs": [
        {
          "internalType": "uint256[]",
          "name": "",
          "type": "uint256[]"
        }
      ],
      "stateMutability": "view",
      "type": "function",
      "constant": true
    },
    {
      "inputs": [
        {
          "internalType": "uint256",
          "name": "",
          "type": "uint256"
        }
      ],
      "name": "nft",
      "outputs": [
        {
          "internalType": "uint256",
          "name": "nft_id",
          "type": "uint256"
        },
        {
          "internalType": "string",
          "name": "name",
          "type": "string"
        },
        {
          "internalType": "string",
          "name": "picture",
          "type": "string"
        },
        {
          "internalType": "uint16",
          "name": "reward",
          "type": "uint16"
        },
        {
          "internalType": "string",
          "name": "type_nft",
          "type": "string"
        },
        {
          "internalType": "string",
          "name": "price",
          "type": "string"
        },
        {
          "internalType": "uint16",
          "name": "cost_wood",
          "type": "uint16"
        },
        {
          "internalType": "uint16",
          "name": "cost_fruit",
          "type": "uint16"
        },
        {
          "internalType": "uint16",
          "name": "energy_consumed",
          "type": "uint16"
        },
        {
          "internalType": "uint16",
          "name": "amount_food",
          "type": "uint16"
        },
        {
          "internalType": "address",
          "name": "seller",
          "type": "address"
        }
      ],
      "stateMutability": "view",
      "type": "function",
      "constant": true
    },
    {
      "inputs": [
        {
          "internalType": "address",
          "name": "",
          "type": "address"
        }
      ],
      "name": "ownerNFTCount",
      "outputs": [
        {
          "internalType": "uint256",
          "name": "",
          "type": "uint256"
        }
      ],
      "stateMutability": "view",
      "type": "function",
      "constant": true
    },
    {
      "inputs": [
        {
          "internalType": "uint256",
          "name": "",
          "type": "uint256"
        }
      ],
      "name": "ownerNft",
      "outputs": [
        {
          "internalType": "address",
          "name": "",
          "type": "address"
        }
      ],
      "stateMutability": "view",
      "type": "function",
      "constant": true
    },
    {
      "inputs": [
        {
          "internalType": "uint256",
          "name": "",
          "type": "uint256"
        }
      ],
      "name": "randomBoxToContractAddress",
      "outputs": [
        {
          "internalType": "address",
          "name": "",
          "type": "address"
        }
      ],
      "stateMutability": "view",
      "type": "function",
      "constant": true
    },
    {
      "inputs": [
        {
          "internalType": "uint256",
          "name": "_indexNFT",
          "type": "uint256"
        },
        {
          "internalType": "string",
          "name": "_price",
          "type": "string"
        }
      ],
      "name": "sellNFT",
      "outputs": [],
      "stateMutability": "nonpayable",
      "type": "function"
    },
    {
      "inputs": [
        {
          "internalType": "string",
          "name": "_name",
          "type": "string"
        },
        {
          "internalType": "string",
          "name": "_price",
          "type": "string"
        },
        {
          "internalType": "uint8",
          "name": "_count",
          "type": "uint8"
        },
        {
          "internalType": "string",
          "name": "_picture",
          "type": "string"
        }
      ],
      "name": "_mintRandomBox",
      "outputs": [],
      "stateMutability": "nonpayable",
      "type": "function"
    },
    {
      "inputs": [
        {
          "internalType": "uint256",
          "name": "_indexRandomBox",
          "type": "uint256"
        },
        {
          "internalType": "uint16",
          "name": "count",
          "type": "uint16"
        }
      ],
      "name": "_addCountRandomBox",
      "outputs": [],
      "stateMutability": "nonpayable",
      "type": "function"
    },
    {
      "inputs": [],
      "name": "_getRandomBox",
      "outputs": [
        {
          "internalType": "uint256[]",
          "name": "",
          "type": "uint256[]"
        }
      ],
      "stateMutability": "view",
      "type": "function",
      "constant": true
    },
    {
      "inputs": [
        {
          "internalType": "uint256",
          "name": "_nft_id",
          "type": "uint256"
        },
        {
          "internalType": "uint256",
          "name": "_indexRandomBox",
          "type": "uint256"
        },
        {
          "internalType": "string",
          "name": "_name",
          "type": "string"
        },
        {
          "internalType": "string",
          "name": "_picture",
          "type": "string"
        }
      ],
      "name": "_buyRandomBox",
      "outputs": [],
      "stateMutability": "payable",
      "type": "function",
      "payable": true
    },
    {
      "inputs": [
        {
          "internalType": "uint256",
          "name": "_nft_id",
          "type": "uint256"
        },
        {
          "internalType": "string",
          "name": "_name",
          "type": "string"
        },
        {
          "internalType": "string",
          "name": "_picture",
          "type": "string"
        },
        {
          "internalType": "uint16",
          "name": "_reward",
          "type": "uint16"
        },
        {
          "internalType": "string",
          "name": "_type_nft",
          "type": "string"
        },
        {
          "internalType": "uint16",
          "name": "_cost_wood",
          "type": "uint16"
        },
        {
          "internalType": "uint16",
          "name": "_cost_fruit",
          "type": "uint16"
        },
        {
          "internalType": "uint16",
          "name": "_energy_consumed",
          "type": "uint16"
        },
        {
          "internalType": "uint16",
          "name": "_amount_food",
          "type": "uint16"
        },
        {
          "internalType": "uint256",
          "name": "_indexRandomBox",
          "type": "uint256"
        }
      ],
      "name": "_openRandomBox",
      "outputs": [],
      "stateMutability": "nonpayable",
      "type": "function"
    }
  ],
  "bytecode": "0x608060405234801561001057600080fd5b5033600360006101000a81548173ffffffffffffffffffffffffffffffffffffffff021916908373ffffffffffffffffffffffffffffffffffffffff160217905550612b00806100616000396000f3fe6080604052600436106100f35760003560e01c80639a9223451161008a578063cb0c14c411610059578063cb0c14c41461033b578063d28e7a2214610378578063fb88df18146103a3578063fda547ef146103e0576100f3565b80639a922345146102725780639d0214cb1461028e578063af997894146102d5578063b0ba6d5614610312576100f3565b806344b2a25b116100c657806344b2a25b146101a357806362cb9fa4146101cc578063669787c2146101f55780636ca21b9514610232576100f3565b806321381d37146100f85780632306350214610135578063349d595f1461015e57806335cc06e314610187575b600080fd5b34801561010457600080fd5b5061011f600480360381019061011a9190611d02565b610409565b60405161012c9190611d70565b60405180910390f35b34801561014157600080fd5b5061015c60048036038101906101579190611dc5565b61043c565b005b34801561016a57600080fd5b5061018560048036038101906101809190611d02565b6104fd565b005b6101a1600480360381019061019c9190611f77565b610774565b005b3480156101af57600080fd5b506101ca60048036038101906101c5919061201f565b610a18565b005b3480156101d857600080fd5b506101f360048036038101906101ee91906120da565b610c3f565b005b34801561020157600080fd5b5061021c60048036038101906102179190612136565b610e83565b6040516102299190612172565b60405180910390f35b34801561023e57600080fd5b5061025960048036038101906102549190611d02565b610e9b565b6040516102699493929190612224565b60405180910390f35b61028c6004803603810190610287919061227e565b611081565b005b34801561029a57600080fd5b506102b560048036038101906102b09190611d02565b6111ed565b6040516102cc9b9a9998979695949392919061231d565b60405180910390f35b3480156102e157600080fd5b506102fc60048036038101906102f79190611d02565b6114dd565b6040516103099190611d70565b60405180910390f35b34801561031e57600080fd5b50610339600480360381019061033491906123e4565b611510565b005b34801561034757600080fd5b50610362600480360381019061035d9190612136565b61160e565b60405161036f91906125d5565b60405180910390f35b34801561038457600080fd5b5061038d611760565b60405161039a91906125d5565b60405180910390f35b3480156103af57600080fd5b506103ca60048036038101906103c59190612136565b611849565b6040516103d79190612172565b60405180910390f35b3480156103ec57600080fd5b50610407600480360381019061040291906125f7565b611861565b005b60006020528060005260406000206000915054906101000a900473ffffffffffffffffffffffffffffffffffffffff1681565b600360009054906101000a900473ffffffffffffffffffffffffffffffffffffffff1673ffffffffffffffffffffffffffffffffffffffff163373ffffffffffffffffffffffffffffffffffffffff161461049657600080fd5b6000600683815481106104ac576104ab612715565b5b90600052602060002090600402019050818160020160009054906101000a900461ffff166104da9190612773565b8160020160006101000a81548161ffff021916908361ffff160217905550505050565b60006002828154811061051357610512612715565b5b906000526020600020906007020190506040518060400160405280600181526020017f3000000000000000000000000000000000000000000000000000000000000000815250816005019080519060200190610570929190611c15565b5060008160060160086101000a81548173ffffffffffffffffffffffffffffffffffffffff021916908373ffffffffffffffffffffffffffffffffffffffff16021790555060018060003373ffffffffffffffffffffffffffffffffffffffff1673ffffffffffffffffffffffffffffffffffffffff1681526020019081526020016000205461060091906127ab565b600160003373ffffffffffffffffffffffffffffffffffffffff1673ffffffffffffffffffffffffffffffffffffffff1681526020019081526020016000208190555060018060003073ffffffffffffffffffffffffffffffffffffffff1673ffffffffffffffffffffffffffffffffffffffff1681526020019081526020016000205461068e9190612801565b600160003073ffffffffffffffffffffffffffffffffffffffff1673ffffffffffffffffffffffffffffffffffffffff168152602001908152602001600020819055503360008084815260200190815260200160002060006101000a81548173ffffffffffffffffffffffffffffffffffffffff021916908373ffffffffffffffffffffffffffffffffffffffff1602179055503373ffffffffffffffffffffffffffffffffffffffff167fe37d189301f8932439394ec9e609cd3ab69ecbd7d0aa80300c172745f644bb09836040516107689190612172565b60405180910390a25050565b8073ffffffffffffffffffffffffffffffffffffffff166108fc349081150290604051600060405180830381858888f193505050501580156107ba573d6000803e3d6000fd5b506000600284815481106107d1576107d0612715565b5b90600052602060002090600702019050828160050190805190602001906107f9929190611c15565b5060008160060160086101000a81548173ffffffffffffffffffffffffffffffffffffffff021916908373ffffffffffffffffffffffffffffffffffffffff16021790555060018060003073ffffffffffffffffffffffffffffffffffffffff1673ffffffffffffffffffffffffffffffffffffffff168152602001908152602001600020546108899190612801565b600160003073ffffffffffffffffffffffffffffffffffffffff1673ffffffffffffffffffffffffffffffffffffffff1681526020019081526020016000208190555060018060003373ffffffffffffffffffffffffffffffffffffffff1673ffffffffffffffffffffffffffffffffffffffff1681526020019081526020016000205461091791906127ab565b600160003373ffffffffffffffffffffffffffffffffffffffff1673ffffffffffffffffffffffffffffffffffffffff168152602001908152602001600020819055503360008086815260200190815260200160002060006101000a81548173ffffffffffffffffffffffffffffffffffffffff021916908373ffffffffffffffffffffffffffffffffffffffff1602179055503373ffffffffffffffffffffffffffffffffffffffff168273ffffffffffffffffffffffffffffffffffffffff167f926ba2594b1ec5b8354a72440fd70b44086344abad079f0acb838a52caaa626e8686604051610a0a929190612835565b60405180910390a350505050565b600360009054906101000a900473ffffffffffffffffffffffffffffffffffffffff1673ffffffffffffffffffffffffffffffffffffffff163373ffffffffffffffffffffffffffffffffffffffff1614610a7257600080fd5b600660405180608001604052808681526020018581526020018460ff1661ffff1681526020018381525090806001815401808255809150506001900390600052602060002090600402016000909190919091506000820151816000019080519060200190610ae1929190611c15565b506020820151816001019080519060200190610afe929190611c15565b5060408201518160020160006101000a81548161ffff021916908361ffff1602179055506060820151816003019080519060200190610b3e929190611c15565b50505060006001600680549050610b559190612801565b9050306004600083815260200190815260200160002060006101000a81548173ffffffffffffffffffffffffffffffffffffffff021916908373ffffffffffffffffffffffffffffffffffffffff1602179055506001600560003073ffffffffffffffffffffffffffffffffffffffff1673ffffffffffffffffffffffffffffffffffffffff16815260200190815260200160002054610bf591906127ab565b600560003073ffffffffffffffffffffffffffffffffffffffff1673ffffffffffffffffffffffffffffffffffffffff168152602001908152602001600020819055505050505050565b600060028381548110610c5557610c54612715565b5b9060005260206000209060070201905081816005019080519060200190610c7d929190611c15565b50338160060160086101000a81548173ffffffffffffffffffffffffffffffffffffffff021916908373ffffffffffffffffffffffffffffffffffffffff16021790555060018060003373ffffffffffffffffffffffffffffffffffffffff1673ffffffffffffffffffffffffffffffffffffffff16815260200190815260200160002054610d0c9190612801565b600160003373ffffffffffffffffffffffffffffffffffffffff1673ffffffffffffffffffffffffffffffffffffffff1681526020019081526020016000208190555060018060003073ffffffffffffffffffffffffffffffffffffffff1673ffffffffffffffffffffffffffffffffffffffff16815260200190815260200160002054610d9a91906127ab565b600160003073ffffffffffffffffffffffffffffffffffffffff1673ffffffffffffffffffffffffffffffffffffffff168152602001908152602001600020819055503060008085815260200190815260200160002060006101000a81548173ffffffffffffffffffffffffffffffffffffffff021916908373ffffffffffffffffffffffffffffffffffffffff1602179055503373ffffffffffffffffffffffffffffffffffffffff167f6d079126a716903e65e9e1d51154819fe5514fb3e57e084149b0fdb866a7a5358385604051610e76929190612865565b60405180910390a2505050565b60056020528060005260406000206000915090505481565b60068181548110610eab57600080fd5b9060005260206000209060040201600091509050806000018054610ece906128c4565b80601f0160208091040260200160405190810160405280929190818152602001828054610efa906128c4565b8015610f475780601f10610f1c57610100808354040283529160200191610f47565b820191906000526020600020905b815481529060010190602001808311610f2a57829003601f168201915b505050505090806001018054610f5c906128c4565b80601f0160208091040260200160405190810160405280929190818152602001828054610f88906128c4565b8015610fd55780601f10610faa57610100808354040283529160200191610fd5565b820191906000526020600020905b815481529060010190602001808311610fb857829003601f168201915b5050505050908060020160009054906101000a900461ffff1690806003018054610ffe906128c4565b80601f016020809104026020016040519081016040528092919081815260200182805461102a906128c4565b80156110775780601f1061104c57610100808354040283529160200191611077565b820191906000526020600020905b81548152906001019060200180831161105a57829003601f168201915b5050505050905084565b60006006848154811061109757611096612715565b5b9060005260206000209060040201905060018160020160009054906101000a900461ffff166110c691906128f6565b8160020160006101000a81548161ffff021916908361ffff160217905550600360009054906101000a900473ffffffffffffffffffffffffffffffffffffffff1673ffffffffffffffffffffffffffffffffffffffff166108fc349081150290604051600060405180830381858888f1935050505015801561114c573d6000803e3d6000fd5b5061119685848460006040518060400160405280600581526020017f6368657374000000000000000000000000000000000000000000000000000000815250600080600080611861565b3373ffffffffffffffffffffffffffffffffffffffff167f2f510ed8afb07edba41c72603aa83c40580b23e7801ab8cfbe2b11c54f3c92d684846040516111de92919061292a565b60405180910390a25050505050565b600281815481106111fd57600080fd5b9060005260206000209060070201600091509050806000015490806001018054611226906128c4565b80601f0160208091040260200160405190810160405280929190818152602001828054611252906128c4565b801561129f5780601f106112745761010080835404028352916020019161129f565b820191906000526020600020905b81548152906001019060200180831161128257829003601f168201915b5050505050908060020180546112b4906128c4565b80601f01602080910402602001604051908101604052809291908181526020018280546112e0906128c4565b801561132d5780601f106113025761010080835404028352916020019161132d565b820191906000526020600020905b81548152906001019060200180831161131057829003601f168201915b5050505050908060030160009054906101000a900461ffff1690806004018054611356906128c4565b80601f0160208091040260200160405190810160405280929190818152602001828054611382906128c4565b80156113cf5780601f106113a4576101008083540402835291602001916113cf565b820191906000526020600020905b8154815290600101906020018083116113b257829003601f168201915b5050505050908060050180546113e4906128c4565b80601f0160208091040260200160405190810160405280929190818152602001828054611410906128c4565b801561145d5780601f106114325761010080835404028352916020019161145d565b820191906000526020600020905b81548152906001019060200180831161144057829003601f168201915b5050505050908060060160009054906101000a900461ffff16908060060160029054906101000a900461ffff16908060060160049054906101000a900461ffff16908060060160069054906101000a900461ffff16908060060160089054906101000a900473ffffffffffffffffffffffffffffffffffffffff1690508b565b60046020528060005260406000206000915054906101000a900473ffffffffffffffffffffffffffffffffffffffff1681565b61dead60008083815260200190815260200160002060006101000a81548173ffffffffffffffffffffffffffffffffffffffff021916908373ffffffffffffffffffffffffffffffffffffffff16021790555060018060003373ffffffffffffffffffffffffffffffffffffffff1673ffffffffffffffffffffffffffffffffffffffff168152602001908152602001600020546115ae9190612801565b600160003373ffffffffffffffffffffffffffffffffffffffff1673ffffffffffffffffffffffffffffffffffffffff168152602001908152602001600020819055506116028a8a8a8a8a8a8a8a8a611861565b50505050505050505050565b60606000600160008473ffffffffffffffffffffffffffffffffffffffff1673ffffffffffffffffffffffffffffffffffffffff1681526020019081526020016000205467ffffffffffffffff81111561166b5761166a611e20565b5b6040519080825280602002602001820160405280156116995781602001602082028036833780820191505090505b5090506000805b600280549050811015611755578473ffffffffffffffffffffffffffffffffffffffff1660008083815260200190815260200160002060009054906101000a900473ffffffffffffffffffffffffffffffffffffffff1673ffffffffffffffffffffffffffffffffffffffff161415611742578083838151811061172757611726612715565b5b602002602001018181525050818061173e90612961565b9250505b808061174d90612961565b9150506116a0565b508192505050919050565b60606000600560003073ffffffffffffffffffffffffffffffffffffffff1673ffffffffffffffffffffffffffffffffffffffff1681526020019081526020016000205467ffffffffffffffff8111156117bd576117bc611e20565b5b6040519080825280602002602001820160405280156117eb5781602001602082028036833780820191505090505b5090506000805b600680549050811015611840578083838151811061181357611812612715565b5b602002602001018181525050818061182a90612961565b925050808061183890612961565b9150506117f2565b50819250505090565b60016020528060005260406000206000915090505481565b60026040518061016001604052808b81526020018a81526020018981526020018861ffff1681526020018781526020016040518060400160405280600181526020017f300000000000000000000000000000000000000000000000000000000000000081525081526020018661ffff1681526020018561ffff1681526020018461ffff1681526020018361ffff168152602001600073ffffffffffffffffffffffffffffffffffffffff16815250908060018154018082558091505060019003906000526020600020906007020160009091909190915060008201518160000155602082015181600101908051906020019061195e929190611c15565b50604082015181600201908051906020019061197b929190611c15565b5060608201518160030160006101000a81548161ffff021916908361ffff16021790555060808201518160040190805190602001906119bb929190611c15565b5060a08201518160050190805190602001906119d8929190611c15565b5060c08201518160060160006101000a81548161ffff021916908361ffff16021790555060e08201518160060160026101000a81548161ffff021916908361ffff1602179055506101008201518160060160046101000a81548161ffff021916908361ffff1602179055506101208201518160060160066101000a81548161ffff021916908361ffff1602179055506101408201518160060160086101000a81548173ffffffffffffffffffffffffffffffffffffffff021916908373ffffffffffffffffffffffffffffffffffffffff160217905550505060006001600280549050611ac59190612801565b90503360008083815260200190815260200160002060006101000a81548173ffffffffffffffffffffffffffffffffffffffff021916908373ffffffffffffffffffffffffffffffffffffffff16021790555060018060003373ffffffffffffffffffffffffffffffffffffffff1673ffffffffffffffffffffffffffffffffffffffff16815260200190815260200160002054611b6391906127ab565b600160003373ffffffffffffffffffffffffffffffffffffffff1673ffffffffffffffffffffffffffffffffffffffff168152602001908152602001600020819055503373ffffffffffffffffffffffffffffffffffffffff167f1c96bce994b60b1fe458ea8014a92301414266b04928342f4db66060dc8e4e578b838c8c8c8c8c8c8c8c6000604051611c019b9a999897969594939291906129f6565b60405180910390a250505050505050505050565b828054611c21906128c4565b90600052602060002090601f016020900481019282611c435760008555611c8a565b82601f10611c5c57805160ff1916838001178555611c8a565b82800160010185558215611c8a579182015b82811115611c89578251825591602001919060010190611c6e565b5b509050611c979190611c9b565b5090565b5b80821115611cb4576000816000905550600101611c9c565b5090565b6000604051905090565b600080fd5b600080fd5b6000819050919050565b611cdf81611ccc565b8114611cea57600080fd5b50565b600081359050611cfc81611cd6565b92915050565b600060208284031215611d1857611d17611cc2565b5b6000611d2684828501611ced565b91505092915050565b600073ffffffffffffffffffffffffffffffffffffffff82169050919050565b6000611d5a82611d2f565b9050919050565b611d6a81611d4f565b82525050565b6000602082019050611d856000830184611d61565b92915050565b600061ffff82169050919050565b611da281611d8b565b8114611dad57600080fd5b50565b600081359050611dbf81611d99565b92915050565b60008060408385031215611ddc57611ddb611cc2565b5b6000611dea85828601611ced565b9250506020611dfb85828601611db0565b9150509250929050565b600080fd5b600080fd5b6000601f19601f8301169050919050565b7f4e487b7100000000000000000000000000000000000000000000000000000000600052604160045260246000fd5b611e5882611e0f565b810181811067ffffffffffffffff82111715611e7757611e76611e20565b5b80604052505050565b6000611e8a611cb8565b9050611e968282611e4f565b919050565b600067ffffffffffffffff821115611eb657611eb5611e20565b5b611ebf82611e0f565b9050602081019050919050565b82818337600083830152505050565b6000611eee611ee984611e9b565b611e80565b905082815260208101848484011115611f0a57611f09611e0a565b5b611f15848285611ecc565b509392505050565b600082601f830112611f3257611f31611e05565b5b8135611f42848260208601611edb565b91505092915050565b611f5481611d4f565b8114611f5f57600080fd5b50565b600081359050611f7181611f4b565b92915050565b600080600060608486031215611f9057611f8f611cc2565b5b6000611f9e86828701611ced565b935050602084013567ffffffffffffffff811115611fbf57611fbe611cc7565b5b611fcb86828701611f1d565b9250506040611fdc86828701611f62565b9150509250925092565b600060ff82169050919050565b611ffc81611fe6565b811461200757600080fd5b50565b60008135905061201981611ff3565b92915050565b6000806000806080858703121561203957612038611cc2565b5b600085013567ffffffffffffffff81111561205757612056611cc7565b5b61206387828801611f1d565b945050602085013567ffffffffffffffff81111561208457612083611cc7565b5b61209087828801611f1d565b93505060406120a18782880161200a565b925050606085013567ffffffffffffffff8111156120c2576120c1611cc7565b5b6120ce87828801611f1d565b91505092959194509250565b600080604083850312156120f1576120f0611cc2565b5b60006120ff85828601611ced565b925050602083013567ffffffffffffffff8111156121205761211f611cc7565b5b61212c85828601611f1d565b9150509250929050565b60006020828403121561214c5761214b611cc2565b5b600061215a84828501611f62565b91505092915050565b61216c81611ccc565b82525050565b60006020820190506121876000830184612163565b92915050565b600081519050919050565b600082825260208201905092915050565b60005b838110156121c75780820151818401526020810190506121ac565b838111156121d6576000848401525b50505050565b60006121e78261218d565b6121f18185612198565b93506122018185602086016121a9565b61220a81611e0f565b840191505092915050565b61221e81611d8b565b82525050565b6000608082019050818103600083015261223e81876121dc565b9050818103602083015261225281866121dc565b90506122616040830185612215565b818103606083015261227381846121dc565b905095945050505050565b6000806000806080858703121561229857612297611cc2565b5b60006122a687828801611ced565b94505060206122b787828801611ced565b935050604085013567ffffffffffffffff8111156122d8576122d7611cc7565b5b6122e487828801611f1d565b925050606085013567ffffffffffffffff81111561230557612304611cc7565b5b61231187828801611f1d565b91505092959194509250565b600061016082019050612333600083018e612163565b8181036020830152612345818d6121dc565b90508181036040830152612359818c6121dc565b9050612368606083018b612215565b818103608083015261237a818a6121dc565b905081810360a083015261238e81896121dc565b905061239d60c0830188612215565b6123aa60e0830187612215565b6123b8610100830186612215565b6123c6610120830185612215565b6123d4610140830184611d61565b9c9b505050505050505050505050565b6000806000806000806000806000806101408b8d03121561240857612407611cc2565b5b60006124168d828e01611ced565b9a505060208b013567ffffffffffffffff81111561243757612436611cc7565b5b6124438d828e01611f1d565b99505060408b013567ffffffffffffffff81111561246457612463611cc7565b5b6124708d828e01611f1d565b98505060606124818d828e01611db0565b97505060808b013567ffffffffffffffff8111156124a2576124a1611cc7565b5b6124ae8d828e01611f1d565b96505060a06124bf8d828e01611db0565b95505060c06124d08d828e01611db0565b94505060e06124e18d828e01611db0565b9350506101006124f38d828e01611db0565b9250506101206125058d828e01611ced565b9150509295989b9194979a5092959850565b600081519050919050565b600082825260208201905092915050565b6000819050602082019050919050565b61254c81611ccc565b82525050565b600061255e8383612543565b60208301905092915050565b6000602082019050919050565b600061258282612517565b61258c8185612522565b935061259783612533565b8060005b838110156125c85781516125af8882612552565b97506125ba8361256a565b92505060018101905061259b565b5085935050505092915050565b600060208201905081810360008301526125ef8184612577565b905092915050565b60008060008060008060008060006101208a8c03121561261a57612619611cc2565b5b60006126288c828d01611ced565b99505060208a013567ffffffffffffffff81111561264957612648611cc7565b5b6126558c828d01611f1d565b98505060408a013567ffffffffffffffff81111561267657612675611cc7565b5b6126828c828d01611f1d565b97505060606126938c828d01611db0565b96505060808a013567ffffffffffffffff8111156126b4576126b3611cc7565b5b6126c08c828d01611f1d565b95505060a06126d18c828d01611db0565b94505060c06126e28c828d01611db0565b93505060e06126f38c828d01611db0565b9250506101006127058c828d01611db0565b9150509295985092959850929598565b7f4e487b7100000000000000000000000000000000000000000000000000000000600052603260045260246000fd5b7f4e487b7100000000000000000000000000000000000000000000000000000000600052601160045260246000fd5b600061277e82611d8b565b915061278983611d8b565b92508261ffff038211156127a05761279f612744565b5b828201905092915050565b60006127b682611ccc565b91506127c183611ccc565b9250827fffffffffffffffffffffffffffffffffffffffffffffffffffffffffffffffff038211156127f6576127f5612744565b5b828201905092915050565b600061280c82611ccc565b915061281783611ccc565b92508282101561282a57612829612744565b5b828203905092915050565b600060408201905061284a6000830185612163565b818103602083015261285c81846121dc565b90509392505050565b6000604082019050818103600083015261287f81856121dc565b905061288e6020830184612163565b9392505050565b7f4e487b7100000000000000000000000000000000000000000000000000000000600052602260045260246000fd5b600060028204905060018216806128dc57607f821691505b602082108114156128f0576128ef612895565b5b50919050565b600061290182611d8b565b915061290c83611d8b565b92508282101561291f5761291e612744565b5b828203905092915050565b6000604082019050818103600083015261294481856121dc565b9050818103602083015261295881846121dc565b90509392505050565b600061296c82611ccc565b91507fffffffffffffffffffffffffffffffffffffffffffffffffffffffffffffffff82141561299f5761299e612744565b5b600182019050919050565b7f3000000000000000000000000000000000000000000000000000000000000000600082015250565b60006129e0600183612198565b91506129eb826129aa565b602082019050919050565b600061018082019050612a0c600083018e612163565b612a19602083018d612163565b8181036040830152612a2b818c6121dc565b90508181036060830152612a3f818b6121dc565b9050612a4e608083018a612215565b81810360a0830152612a6081896121dc565b905081810360c0830152612a73816129d3565b9050612a8260e0830188612215565b612a90610100830187612215565b612a9e610120830186612215565b612aac610140830185612215565b612aba610160830184611d61565b9c9b50505050505050505050505056fea26469706673582212207044ee428f6892974cd7011982c042d2a26f7fe7597c8620e87d7b2a3af121f564736f6c634300080a0033",
  "immutableReferences": {},
  "source": "// SPDX-License-Identifier: MIT\npragma solidity >=0.4.22 <0.9.0;\nimport \"./NFT.sol\";\n\ncontract RandomBox is NFT {\n    address private owner;\n    struct info_randomBox {\n        string name;\n        string price;\n        uint16 count;\n        string picture;\n    }\n\n    constructor() {\n        owner = msg.sender;\n    }\n\n    event BuyRandomBox(address indexed _to, string name, string picture);\n    event OpenRandomBox(address indexed from, uint256 indexNFT);\n    mapping(uint256 => address) public randomBoxToContractAddress;\n    mapping(address => uint256) public ContractAddressRandomBoxCount;\n    info_randomBox[] public box;\n\n    modifier is_user() {\n        if (msg.sender != owner) _;\n    }\n\n    function _mintRandomBox(\n        string memory _name,\n        string memory _price,\n        uint8 _count,\n        string memory _picture\n    ) public {\n        require(msg.sender == owner);\n        box.push(info_randomBox(_name, _price, _count, _picture));\n        uint256 id = box.length - 1;\n        randomBoxToContractAddress[id] = address(this);\n        ContractAddressRandomBoxCount[address(this)] =\n            ContractAddressRandomBoxCount[address(this)] +\n            1;\n    }\n\n    function _addCountRandomBox(uint256 _indexRandomBox, uint16 count) public {\n        require(msg.sender == owner);\n        info_randomBox storage randomBox = box[_indexRandomBox];\n        randomBox.count = randomBox.count + count;\n    }\n\n    function _getRandomBox() public view returns (uint256[] memory) {\n        uint256[] memory result = new uint256[](\n            ContractAddressRandomBoxCount[address(this)]\n        );\n        uint256 counter = 0;\n        for (uint256 i = 0; i < box.length; i++) {\n            result[counter] = i;\n            counter++;\n        }\n        return result;\n    }\n\n    function _buyRandomBox(\n        uint256 _nft_id,\n        uint256 _indexRandomBox,\n        string memory _name,\n        string memory _picture\n    ) public payable {\n        info_randomBox storage randomBox = box[_indexRandomBox];\n        randomBox.count = randomBox.count - 1;\n        payable(owner).transfer(msg.value);\n        _craftNFT(_nft_id, _name, _picture, 0, \"chest\", 0, 0, 0, 0);\n        emit BuyRandomBox(msg.sender, _name, _picture);\n    }\n\n    function _openRandomBox(\n        uint256 _nft_id,\n        string memory _name,\n        string memory _picture,\n        uint16 _reward,\n        string memory _type_nft,\n        uint16 _cost_wood,\n        uint16 _cost_fruit,\n        uint16 _energy_consumed,\n        uint16 _amount_food,\n        uint256 _indexRandomBox\n    ) public {\n        ownerNft[_indexRandomBox] = 0x000000000000000000000000000000000000dEaD;\n        ownerNFTCount[msg.sender] = ownerNFTCount[msg.sender] - 1;\n        _craftNFT(\n            _nft_id,\n            _name,\n            _picture,\n            _reward,\n            _type_nft,\n            _cost_wood,\n            _cost_fruit,\n            _energy_consumed,\n            _amount_food\n        );\n    }\n}\n",
  "sourcePath": "/Users/komsark/Final-Project/farm-souvirniors-web/contracts/RandomBox.sol",
  "compiler": {
    "name": "solc",
    "version": "0.8.10+commit.fc410830.Emscripten.clang"
  },
  "schemaVersion": "3.4.4",
  "updatedAt": "2022-05-03T16:07:22.235Z",
  "networkType": "ethereum",
  "devdoc": {
    "kind": "dev",
    "methods": {},
    "version": 1
  },
  "userdoc": {
    "kind": "user",
    "methods": {},
    "version": 1
  }
}