{
  "contractName": "SteakToken",
  "abi": [
    {
      "inputs": [],
      "stateMutability": "nonpayable",
      "type": "constructor"
    },
    {
      "inputs": [
        {
          "internalType": "address",
          "name": "",
          "type": "address"
        }
      ],
      "name": "balanceOf",
      "outputs": [
        {
          "internalType": "uint256",
          "name": "",
          "type": "uint256"
        }
      ],
      "stateMutability": "view",
      "type": "function",
      "constant": true
    },
    {
      "inputs": [],
      "name": "name",
      "outputs": [
        {
          "internalType": "string",
          "name": "",
          "type": "string"
        }
      ],
      "stateMutability": "view",
      "type": "function",
      "constant": true
    },
    {
      "inputs": [],
      "name": "owner",
      "outputs": [
        {
          "internalType": "address",
          "name": "",
          "type": "address"
        }
      ],
      "stateMutability": "view",
      "type": "function",
      "constant": true
    },
    {
      "inputs": [],
      "name": "symbol",
      "outputs": [
        {
          "internalType": "string",
          "name": "",
          "type": "string"
        }
      ],
      "stateMutability": "view",
      "type": "function",
      "constant": true
    },
    {
      "inputs": [],
      "name": "totalSupply",
      "outputs": [
        {
          "internalType": "uint256",
          "name": "",
          "type": "uint256"
        }
      ],
      "stateMutability": "view",
      "type": "function",
      "constant": true
    },
    {
      "inputs": [
        {
          "internalType": "address",
          "name": "_to",
          "type": "address"
        },
        {
          "internalType": "uint256",
          "name": "_value",
          "type": "uint256"
        }
      ],
      "name": "_WithdrawToken",
      "outputs": [
        {
          "internalType": "bool",
          "name": "success",
          "type": "bool"
        }
      ],
      "stateMutability": "nonpayable",
      "type": "function"
    },
    {
      "inputs": [
        {
          "internalType": "address",
          "name": "_to",
          "type": "address"
        },
        {
          "internalType": "uint256",
          "name": "_value",
          "type": "uint256"
        }
      ],
      "name": "_DepositToken",
      "outputs": [
        {
          "internalType": "bool",
          "name": "success",
          "type": "bool"
        }
      ],
      "stateMutability": "nonpayable",
      "type": "function"
    },
    {
      "inputs": [
        {
          "internalType": "address",
          "name": "_from",
          "type": "address"
        }
      ],
      "name": "_BalanceOf",
      "outputs": [
        {
          "internalType": "uint256",
          "name": "",
          "type": "uint256"
        }
      ],
      "stateMutability": "view",
      "type": "function",
      "constant": true
    }
  ],
  "bytecode": "0x60806040526040518060400160405280600b81526020017f537465616b20546f6b656e0000000000000000000000000000000000000000008152506001908051906020019061004f929190610142565b506040518060400160405280600581526020017f537465616b0000000000000000000000000000000000000000000000000000008152506002908051906020019061009b929190610142565b5069d3c21bcecceda10000006003553480156100b657600080fd5b50600354600460003373ffffffffffffffffffffffffffffffffffffffff1673ffffffffffffffffffffffffffffffffffffffff16815260200190815260200160002081905550336000806101000a81548173ffffffffffffffffffffffffffffffffffffffff021916908373ffffffffffffffffffffffffffffffffffffffff160217905550610246565b82805461014e90610214565b90600052602060002090601f01602090048101928261017057600085556101b7565b82601f1061018957805160ff19168380011785556101b7565b828001600101855582156101b7579182015b828111156101b657825182559160200191906001019061019b565b5b5090506101c491906101c8565b5090565b5b808211156101e15760008160009055506001016101c9565b5090565b7f4e487b7100000000000000000000000000000000000000000000000000000000600052602260045260246000fd5b6000600282049050600182168061022c57607f821691505b602082108114156102405761023f6101e5565b5b50919050565b610a03806102556000396000f3fe608060405234801561001057600080fd5b50600436106100885760003560e01c806370a082311161005b57806370a08231146101295780638da5cb5b1461015957806395d89b4114610177578063fb535aa91461019557610088565b8063013bf7c11461008d57806306fdde03146100bd57806318160ddd146100db578063516898c1146100f9575b600080fd5b6100a760048036038101906100a29190610701565b6101c5565b6040516100b4919061075c565b60405180910390f35b6100c5610343565b6040516100d29190610810565b60405180910390f35b6100e36103d1565b6040516100f09190610841565b60405180910390f35b610113600480360381019061010e919061085c565b6103d7565b6040516101209190610841565b60405180910390f35b610143600480360381019061013e919061085c565b610420565b6040516101509190610841565b60405180910390f35b610161610438565b60405161016e9190610898565b60405180910390f35b61017f61045c565b60405161018c9190610810565b60405180910390f35b6101af60048036038101906101aa9190610701565b6104ea565b6040516101bc919061075c565b60405180910390f35b600081600460008060009054906101000a900473ffffffffffffffffffffffffffffffffffffffff1673ffffffffffffffffffffffffffffffffffffffff1673ffffffffffffffffffffffffffffffffffffffff16815260200190815260200160002054101561023457600080fd5b81600460008060009054906101000a900473ffffffffffffffffffffffffffffffffffffffff1673ffffffffffffffffffffffffffffffffffffffff1673ffffffffffffffffffffffffffffffffffffffff16815260200190815260200160002060008282546102a491906108e2565b9250508190555081600460008573ffffffffffffffffffffffffffffffffffffffff1673ffffffffffffffffffffffffffffffffffffffff168152602001908152602001600020546102f69190610916565b600460008573ffffffffffffffffffffffffffffffffffffffff1673ffffffffffffffffffffffffffffffffffffffff168152602001908152602001600020819055506001905092915050565b600180546103509061099b565b80601f016020809104026020016040519081016040528092919081815260200182805461037c9061099b565b80156103c95780601f1061039e576101008083540402835291602001916103c9565b820191906000526020600020905b8154815290600101906020018083116103ac57829003601f168201915b505050505081565b60035481565b6000600460008373ffffffffffffffffffffffffffffffffffffffff1673ffffffffffffffffffffffffffffffffffffffff168152602001908152602001600020549050919050565b60046020528060005260406000206000915090505481565b60008054906101000a900473ffffffffffffffffffffffffffffffffffffffff1681565b600280546104699061099b565b80601f01602080910402602001604051908101604052809291908181526020018280546104959061099b565b80156104e25780601f106104b7576101008083540402835291602001916104e2565b820191906000526020600020905b8154815290600101906020018083116104c557829003601f168201915b505050505081565b600081600460008573ffffffffffffffffffffffffffffffffffffffff1673ffffffffffffffffffffffffffffffffffffffff16815260200190815260200160002054101561053857600080fd5b81600460008573ffffffffffffffffffffffffffffffffffffffff1673ffffffffffffffffffffffffffffffffffffffff168152602001908152602001600020600082825461058791906108e2565b9250508190555081600460008060009054906101000a900473ffffffffffffffffffffffffffffffffffffffff1673ffffffffffffffffffffffffffffffffffffffff1673ffffffffffffffffffffffffffffffffffffffff168152602001908152602001600020546105fa9190610916565b600460008060009054906101000a900473ffffffffffffffffffffffffffffffffffffffff1673ffffffffffffffffffffffffffffffffffffffff1673ffffffffffffffffffffffffffffffffffffffff168152602001908152602001600020819055506001905092915050565b600080fd5b600073ffffffffffffffffffffffffffffffffffffffff82169050919050565b60006106988261066d565b9050919050565b6106a88161068d565b81146106b357600080fd5b50565b6000813590506106c58161069f565b92915050565b6000819050919050565b6106de816106cb565b81146106e957600080fd5b50565b6000813590506106fb816106d5565b92915050565b6000806040838503121561071857610717610668565b5b6000610726858286016106b6565b9250506020610737858286016106ec565b9150509250929050565b60008115159050919050565b61075681610741565b82525050565b6000602082019050610771600083018461074d565b92915050565b600081519050919050565b600082825260208201905092915050565b60005b838110156107b1578082015181840152602081019050610796565b838111156107c0576000848401525b50505050565b6000601f19601f8301169050919050565b60006107e282610777565b6107ec8185610782565b93506107fc818560208601610793565b610805816107c6565b840191505092915050565b6000602082019050818103600083015261082a81846107d7565b905092915050565b61083b816106cb565b82525050565b60006020820190506108566000830184610832565b92915050565b60006020828403121561087257610871610668565b5b6000610880848285016106b6565b91505092915050565b6108928161068d565b82525050565b60006020820190506108ad6000830184610889565b92915050565b7f4e487b7100000000000000000000000000000000000000000000000000000000600052601160045260246000fd5b60006108ed826106cb565b91506108f8836106cb565b92508282101561090b5761090a6108b3565b5b828203905092915050565b6000610921826106cb565b915061092c836106cb565b9250827fffffffffffffffffffffffffffffffffffffffffffffffffffffffffffffffff03821115610961576109606108b3565b5b828201905092915050565b7f4e487b7100000000000000000000000000000000000000000000000000000000600052602260045260246000fd5b600060028204905060018216806109b357607f821691505b602082108114156109c7576109c661096c565b5b5091905056fea2646970667358221220a0eae0d69cacc7ee8b2675cd5c3709a9e534ace46fe7e1b667782d037a7e8b1064736f6c634300080a0033",
  "immutableReferences": {},
  "source": "// SPDX-License-Identifier: MIT\npragma solidity >=0.4.22 <0.9.0;\n\ncontract SteakToken {\n    address public owner;\n    string public name = \"Steak Token\";\n    string public symbol = \"Steak\";\n    uint256 public totalSupply = 1000000000000000000000000; // 1 million tokens\n    mapping(address => uint256) public balanceOf;\n\n    constructor() {\n        balanceOf[msg.sender] = totalSupply;\n        owner = msg.sender;\n    }\n\n    function _WithdrawToken(address _to, uint256 _value)\n        public\n        returns (bool success)\n    {\n        require(balanceOf[owner] >= _value);\n        balanceOf[owner] -= _value;\n        balanceOf[_to] = balanceOf[_to] + _value;\n        return true;\n    }\n\n    function _DepositToken(address _to, uint256 _value)\n        public\n        returns (bool success)\n    {\n        require(balanceOf[_to] >= _value);\n        balanceOf[_to] -= _value;\n        balanceOf[owner] = balanceOf[owner] + _value;\n        return true;\n    }\n\n    function _BalanceOf(address _from) public view returns (uint256) {\n        return balanceOf[_from];\n    }\n}\n",
  "sourcePath": "/Users/komsark/Final-Project/farm-souvirniors-web/contracts/SteakToken.sol",
  "compiler": {
    "name": "solc",
    "version": "0.8.10+commit.fc410830.Emscripten.clang"
  },
  "schemaVersion": "3.4.4",
  "updatedAt": "2022-03-29T04:17:42.547Z",
  "networkType": "ethereum",
  "devdoc": {
    "kind": "dev",
    "methods": {},
    "version": 1
  },
  "userdoc": {
    "kind": "user",
    "methods": {},
    "version": 1
  }
}