{
  "contractName": "WineToken",
  "abi": [
    {
      "inputs": [],
      "stateMutability": "nonpayable",
      "type": "constructor"
    },
    {
      "inputs": [
        {
          "internalType": "address",
          "name": "",
          "type": "address"
        }
      ],
      "name": "balanceOf",
      "outputs": [
        {
          "internalType": "uint256",
          "name": "",
          "type": "uint256"
        }
      ],
      "stateMutability": "view",
      "type": "function",
      "constant": true
    },
    {
      "inputs": [],
      "name": "decimals",
      "outputs": [
        {
          "internalType": "uint8",
          "name": "",
          "type": "uint8"
        }
      ],
      "stateMutability": "view",
      "type": "function",
      "constant": true
    },
    {
      "inputs": [],
      "name": "name",
      "outputs": [
        {
          "internalType": "string",
          "name": "",
          "type": "string"
        }
      ],
      "stateMutability": "view",
      "type": "function",
      "constant": true
    },
    {
      "inputs": [],
      "name": "owner",
      "outputs": [
        {
          "internalType": "address",
          "name": "",
          "type": "address"
        }
      ],
      "stateMutability": "view",
      "type": "function",
      "constant": true
    },
    {
      "inputs": [],
      "name": "symbol",
      "outputs": [
        {
          "internalType": "string",
          "name": "",
          "type": "string"
        }
      ],
      "stateMutability": "view",
      "type": "function",
      "constant": true
    },
    {
      "inputs": [],
      "name": "totalSupply",
      "outputs": [
        {
          "internalType": "uint256",
          "name": "",
          "type": "uint256"
        }
      ],
      "stateMutability": "view",
      "type": "function",
      "constant": true
    },
    {
      "inputs": [
        {
          "internalType": "address",
          "name": "_to",
          "type": "address"
        },
        {
          "internalType": "uint256",
          "name": "_value",
          "type": "uint256"
        },
        {
          "internalType": "uint256",
          "name": "_taxValue",
          "type": "uint256"
        }
      ],
      "name": "_WithdrawToken",
      "outputs": [
        {
          "internalType": "bool",
          "name": "success",
          "type": "bool"
        }
      ],
      "stateMutability": "nonpayable",
      "type": "function"
    },
    {
      "inputs": [
        {
          "internalType": "address",
          "name": "_to",
          "type": "address"
        },
        {
          "internalType": "uint256",
          "name": "_value",
          "type": "uint256"
        }
      ],
      "name": "_DepositToken",
      "outputs": [
        {
          "internalType": "bool",
          "name": "success",
          "type": "bool"
        }
      ],
      "stateMutability": "nonpayable",
      "type": "function"
    },
    {
      "inputs": [
        {
          "internalType": "address",
          "name": "_from",
          "type": "address"
        }
      ],
      "name": "_BalanceOf",
      "outputs": [
        {
          "internalType": "uint256",
          "name": "",
          "type": "uint256"
        }
      ],
      "stateMutability": "view",
      "type": "function",
      "constant": true
    }
  ],
  "bytecode": "0x60806040526040518060400160405280600a81526020017f57696e6520546f6b656e00000000000000000000000000000000000000000000815250600190805190602001906200005192919062000164565b506040518060400160405280600481526020017f57696e6500000000000000000000000000000000000000000000000000000000815250600290805190602001906200009f92919062000164565b506012600360006101000a81548160ff021916908360ff16021790555069d3c21bcecceda1000000600455348015620000d757600080fd5b50600454600560003373ffffffffffffffffffffffffffffffffffffffff1673ffffffffffffffffffffffffffffffffffffffff16815260200190815260200160002081905550336000806101000a81548173ffffffffffffffffffffffffffffffffffffffff021916908373ffffffffffffffffffffffffffffffffffffffff16021790555062000279565b828054620001729062000243565b90600052602060002090601f016020900481019282620001965760008555620001e2565b82601f10620001b157805160ff1916838001178555620001e2565b82800160010185558215620001e2579182015b82811115620001e1578251825591602001919060010190620001c4565b5b509050620001f19190620001f5565b5090565b5b8082111562000210576000816000905550600101620001f6565b5090565b7f4e487b7100000000000000000000000000000000000000000000000000000000600052602260045260246000fd5b600060028204905060018216806200025c57607f821691505b6020821081141562000273576200027262000214565b5b50919050565b610b4180620002896000396000f3fe608060405234801561001057600080fd5b50600436106100935760003560e01c806370a082311161006657806370a08231146101225780638da5cb5b1461015257806395d89b4114610170578063ca9cc6911461018e578063fb535aa9146101be57610093565b806306fdde031461009857806318160ddd146100b6578063313ce567146100d4578063516898c1146100f2575b600080fd5b6100a06101ee565b6040516100ad91906107b5565b60405180910390f35b6100be61027c565b6040516100cb91906107f0565b60405180910390f35b6100dc610282565b6040516100e99190610827565b60405180910390f35b61010c600480360381019061010791906108a5565b610295565b60405161011991906107f0565b60405180910390f35b61013c600480360381019061013791906108a5565b6102de565b60405161014991906107f0565b60405180910390f35b61015a6102f6565b60405161016791906108e1565b60405180910390f35b61017861031a565b60405161018591906107b5565b60405180910390f35b6101a860048036038101906101a39190610928565b6103a8565b6040516101b59190610996565b60405180910390f35b6101d860048036038101906101d391906109b1565b61059e565b6040516101e59190610996565b60405180910390f35b600180546101fb90610a20565b80601f016020809104026020016040519081016040528092919081815260200182805461022790610a20565b80156102745780601f1061024957610100808354040283529160200191610274565b820191906000526020600020905b81548152906001019060200180831161025757829003601f168201915b505050505081565b60045481565b600360009054906101000a900460ff1681565b6000600560008373ffffffffffffffffffffffffffffffffffffffff1673ffffffffffffffffffffffffffffffffffffffff168152602001908152602001600020549050919050565b60056020528060005260406000206000915090505481565b60008054906101000a900473ffffffffffffffffffffffffffffffffffffffff1681565b6002805461032790610a20565b80601f016020809104026020016040519081016040528092919081815260200182805461035390610a20565b80156103a05780601f10610375576101008083540402835291602001916103a0565b820191906000526020600020905b81548152906001019060200180831161038357829003601f168201915b505050505081565b600082600560008060009054906101000a900473ffffffffffffffffffffffffffffffffffffffff1673ffffffffffffffffffffffffffffffffffffffff1673ffffffffffffffffffffffffffffffffffffffff16815260200190815260200160002054101561041757600080fd5b82600560008060009054906101000a900473ffffffffffffffffffffffffffffffffffffffff1673ffffffffffffffffffffffffffffffffffffffff1673ffffffffffffffffffffffffffffffffffffffff16815260200190815260200160002060008282546104879190610a81565b9250508190555082600560008673ffffffffffffffffffffffffffffffffffffffff1673ffffffffffffffffffffffffffffffffffffffff168152602001908152602001600020546104d99190610ab5565b600560008673ffffffffffffffffffffffffffffffffffffffff1673ffffffffffffffffffffffffffffffffffffffff1681526020019081526020016000208190555081600560008060009054906101000a900473ffffffffffffffffffffffffffffffffffffffff1673ffffffffffffffffffffffffffffffffffffffff1673ffffffffffffffffffffffffffffffffffffffff168152602001908152602001600020600082825461058c9190610ab5565b92505081905550600190509392505050565b600081600560008573ffffffffffffffffffffffffffffffffffffffff1673ffffffffffffffffffffffffffffffffffffffff1681526020019081526020016000205410156105ec57600080fd5b81600560008573ffffffffffffffffffffffffffffffffffffffff1673ffffffffffffffffffffffffffffffffffffffff168152602001908152602001600020600082825461063b9190610a81565b9250508190555081600560008060009054906101000a900473ffffffffffffffffffffffffffffffffffffffff1673ffffffffffffffffffffffffffffffffffffffff1673ffffffffffffffffffffffffffffffffffffffff168152602001908152602001600020546106ae9190610ab5565b600560008060009054906101000a900473ffffffffffffffffffffffffffffffffffffffff1673ffffffffffffffffffffffffffffffffffffffff1673ffffffffffffffffffffffffffffffffffffffff168152602001908152602001600020819055506001905092915050565b600081519050919050565b600082825260208201905092915050565b60005b8381101561075657808201518184015260208101905061073b565b83811115610765576000848401525b50505050565b6000601f19601f8301169050919050565b60006107878261071c565b6107918185610727565b93506107a1818560208601610738565b6107aa8161076b565b840191505092915050565b600060208201905081810360008301526107cf818461077c565b905092915050565b6000819050919050565b6107ea816107d7565b82525050565b600060208201905061080560008301846107e1565b92915050565b600060ff82169050919050565b6108218161080b565b82525050565b600060208201905061083c6000830184610818565b92915050565b600080fd5b600073ffffffffffffffffffffffffffffffffffffffff82169050919050565b600061087282610847565b9050919050565b61088281610867565b811461088d57600080fd5b50565b60008135905061089f81610879565b92915050565b6000602082840312156108bb576108ba610842565b5b60006108c984828501610890565b91505092915050565b6108db81610867565b82525050565b60006020820190506108f660008301846108d2565b92915050565b610905816107d7565b811461091057600080fd5b50565b600081359050610922816108fc565b92915050565b60008060006060848603121561094157610940610842565b5b600061094f86828701610890565b935050602061096086828701610913565b925050604061097186828701610913565b9150509250925092565b60008115159050919050565b6109908161097b565b82525050565b60006020820190506109ab6000830184610987565b92915050565b600080604083850312156109c8576109c7610842565b5b60006109d685828601610890565b92505060206109e785828601610913565b9150509250929050565b7f4e487b7100000000000000000000000000000000000000000000000000000000600052602260045260246000fd5b60006002820490506001821680610a3857607f821691505b60208210811415610a4c57610a4b6109f1565b5b50919050565b7f4e487b7100000000000000000000000000000000000000000000000000000000600052601160045260246000fd5b6000610a8c826107d7565b9150610a97836107d7565b925082821015610aaa57610aa9610a52565b5b828203905092915050565b6000610ac0826107d7565b9150610acb836107d7565b9250827fffffffffffffffffffffffffffffffffffffffffffffffffffffffffffffffff03821115610b0057610aff610a52565b5b82820190509291505056fea2646970667358221220c9ed65526b39a35d02b5e735cbbcb374f6d397b4a6d2eea6bbf297060c7ce10d64736f6c634300080a0033",
  "immutableReferences": {},
  "source": "// SPDX-License-Identifier: MIT\npragma solidity >=0.4.22 <0.9.0;\n\ncontract WineToken {\n    address public owner;\n    string public name = \"Wine Token\";\n    string public symbol = \"Wine\";\n     uint8   public decimals = 18;\n    uint256 public totalSupply = 1000000000000000000000000; // 1 million tokens\n    mapping(address => uint256) public balanceOf;\n\n    constructor() {\n        balanceOf[msg.sender] = totalSupply;\n        owner = msg.sender;\n    }\n\n    function _WithdrawToken(address _to, uint256 _value,uint256 _taxValue)\n        public\n        returns (bool success)\n    {\n        require(balanceOf[owner] >= _value);\n        balanceOf[owner] -= _value;\n        balanceOf[_to] = balanceOf[_to] + _value;\n        balanceOf[owner] += _taxValue;\n        return true;\n    }\n\n    function _DepositToken(address _to, uint256 _value)\n        public\n        returns (bool success)\n    {\n        require(balanceOf[_to] >= _value);\n        balanceOf[_to] -= _value;\n        balanceOf[owner] = balanceOf[owner] + _value;\n        return true;\n    }\n      function _BalanceOf(address _from) public view returns (uint256) {\n        return balanceOf[_from];\n    }\n}\n",
  "sourcePath": "/Users/komsark/Final-Project/farm-souvirniors-web/contracts/WineToken.sol",
  "compiler": {
    "name": "solc",
    "version": "0.8.10+commit.fc410830.Emscripten.clang"
  },
  "schemaVersion": "3.4.4",
  "updatedAt": "2022-04-01T06:43:04.804Z",
  "networkType": "ethereum",
  "devdoc": {
    "kind": "dev",
    "methods": {},
    "version": 1
  },
  "userdoc": {
    "kind": "user",
    "methods": {},
    "version": 1
  }
}